{
  "_format": "hh-sol-artifact-1",
  "contractName": "LoopringPaymaster",
  "sourceName": "contracts/base/LoopringPaymaster.sol",
  "abi": [
    {
      "inputs": [
        {
          "internalType": "contract IEntryPoint",
          "name": "_entryPoint",
          "type": "address"
        },
        {
          "internalType": "address",
          "name": "paymasterOwner",
          "type": "address"
        }
      ],
      "stateMutability": "nonpayable",
      "type": "constructor"
    },
    {
      "anonymous": false,
      "inputs": [
        {
          "indexed": true,
          "internalType": "address",
          "name": "newEntrypoint",
          "type": "address"
        }
      ],
      "name": "EntryPointChanged",
      "type": "event"
    },
    {
      "anonymous": false,
      "inputs": [
        {
          "indexed": true,
          "internalType": "address",
          "name": "previousOwner",
          "type": "address"
        },
        {
          "indexed": true,
          "internalType": "address",
          "name": "newOwner",
          "type": "address"
        }
      ],
      "name": "OwnershipTransferred",
      "type": "event"
    },
    {
      "anonymous": false,
      "inputs": [
        {
          "indexed": true,
          "internalType": "bytes32",
          "name": "userOpHash",
          "type": "bytes32"
        },
        {
          "indexed": false,
          "internalType": "address",
          "name": "token",
          "type": "address"
        },
        {
          "indexed": false,
          "internalType": "uint256",
          "name": "valueOfEth",
          "type": "uint256"
        },
        {
          "indexed": false,
          "internalType": "uint256",
          "name": "actualTokenCost",
          "type": "uint256"
        }
      ],
      "name": "PaymasterEvent",
      "type": "event"
    },
    {
      "anonymous": false,
      "inputs": [
        {
          "indexed": true,
          "internalType": "bytes32",
          "name": "role",
          "type": "bytes32"
        },
        {
          "indexed": true,
          "internalType": "bytes32",
          "name": "previousAdminRole",
          "type": "bytes32"
        },
        {
          "indexed": true,
          "internalType": "bytes32",
          "name": "newAdminRole",
          "type": "bytes32"
        }
      ],
      "name": "RoleAdminChanged",
      "type": "event"
    },
    {
      "anonymous": false,
      "inputs": [
        {
          "indexed": true,
          "internalType": "bytes32",
          "name": "role",
          "type": "bytes32"
        },
        {
          "indexed": true,
          "internalType": "address",
          "name": "account",
          "type": "address"
        },
        {
          "indexed": true,
          "internalType": "address",
          "name": "sender",
          "type": "address"
        }
      ],
      "name": "RoleGranted",
      "type": "event"
    },
    {
      "anonymous": false,
      "inputs": [
        {
          "indexed": true,
          "internalType": "bytes32",
          "name": "role",
          "type": "bytes32"
        },
        {
          "indexed": true,
          "internalType": "address",
          "name": "account",
          "type": "address"
        },
        {
          "indexed": true,
          "internalType": "address",
          "name": "sender",
          "type": "address"
        }
      ],
      "name": "RoleRevoked",
      "type": "event"
    },
    {
      "inputs": [],
      "name": "DEFAULT_ADMIN_ROLE",
      "outputs": [
        {
          "internalType": "bytes32",
          "name": "",
          "type": "bytes32"
        }
      ],
      "stateMutability": "view",
      "type": "function"
    },
    {
      "inputs": [],
      "name": "SIGNER",
      "outputs": [
        {
          "internalType": "bytes32",
          "name": "",
          "type": "bytes32"
        }
      ],
      "stateMutability": "view",
      "type": "function"
    },
    {
      "inputs": [
        {
          "internalType": "contract ERC20",
          "name": "token",
          "type": "address"
        },
        {
          "internalType": "address",
          "name": "account",
          "type": "address"
        },
        {
          "internalType": "uint256",
          "name": "amount",
          "type": "uint256"
        }
      ],
      "name": "addDepositFor",
      "outputs": [],
      "stateMutability": "nonpayable",
      "type": "function"
    },
    {
      "inputs": [
        {
          "internalType": "uint32",
          "name": "unstakeDelaySec",
          "type": "uint32"
        }
      ],
      "name": "addStake",
      "outputs": [],
      "stateMutability": "payable",
      "type": "function"
    },
    {
      "inputs": [
        {
          "internalType": "contract ERC20",
          "name": "token",
          "type": "address"
        }
      ],
      "name": "addToken",
      "outputs": [],
      "stateMutability": "nonpayable",
      "type": "function"
    },
    {
      "inputs": [
        {
          "internalType": "contract ERC20",
          "name": "",
          "type": "address"
        },
        {
          "internalType": "address",
          "name": "",
          "type": "address"
        }
      ],
      "name": "balances",
      "outputs": [
        {
          "internalType": "uint256",
          "name": "",
          "type": "uint256"
        }
      ],
      "stateMutability": "view",
      "type": "function"
    },
    {
      "inputs": [
        {
          "internalType": "contract IEntryPoint",
          "name": "newEntryPoint",
          "type": "address"
        }
      ],
      "name": "changeEntryPoint",
      "outputs": [],
      "stateMutability": "nonpayable",
      "type": "function"
    },
    {
      "inputs": [],
      "name": "deposit",
      "outputs": [],
      "stateMutability": "payable",
      "type": "function"
    },
    {
      "inputs": [
        {
          "internalType": "contract ERC20",
          "name": "token",
          "type": "address"
        },
        {
          "internalType": "address",
          "name": "account",
          "type": "address"
        }
      ],
      "name": "depositInfo",
      "outputs": [
        {
          "internalType": "uint256",
          "name": "amount",
          "type": "uint256"
        },
        {
          "internalType": "uint256",
          "name": "_unlockBlock",
          "type": "uint256"
        }
      ],
      "stateMutability": "view",
      "type": "function"
    },
    {
      "inputs": [],
      "name": "entryPoint",
      "outputs": [
        {
          "internalType": "contract IEntryPoint",
          "name": "",
          "type": "address"
        }
      ],
      "stateMutability": "view",
      "type": "function"
    },
    {
      "inputs": [],
      "name": "getDeposit",
      "outputs": [
        {
          "internalType": "uint256",
          "name": "",
          "type": "uint256"
        }
      ],
      "stateMutability": "view",
      "type": "function"
    },
    {
      "inputs": [
        {
          "components": [
            {
              "internalType": "address",
              "name": "sender",
              "type": "address"
            },
            {
              "internalType": "uint256",
              "name": "nonce",
              "type": "uint256"
            },
            {
              "internalType": "bytes",
              "name": "initCode",
              "type": "bytes"
            },
            {
              "internalType": "bytes",
              "name": "callData",
              "type": "bytes"
            },
            {
              "internalType": "uint256",
              "name": "callGasLimit",
              "type": "uint256"
            },
            {
              "internalType": "uint256",
              "name": "verificationGasLimit",
              "type": "uint256"
            },
            {
              "internalType": "uint256",
              "name": "preVerificationGas",
              "type": "uint256"
            },
            {
              "internalType": "uint256",
              "name": "maxFeePerGas",
              "type": "uint256"
            },
            {
              "internalType": "uint256",
              "name": "maxPriorityFeePerGas",
              "type": "uint256"
            },
            {
              "internalType": "bytes",
              "name": "paymasterAndData",
              "type": "bytes"
            },
            {
              "internalType": "bytes",
              "name": "signature",
              "type": "bytes"
            }
          ],
          "internalType": "struct UserOperation",
          "name": "userOp",
          "type": "tuple"
        },
        {
          "internalType": "bytes32",
          "name": "dataHash",
          "type": "bytes32"
        }
      ],
      "name": "getHash",
      "outputs": [
        {
          "internalType": "bytes32",
          "name": "",
          "type": "bytes32"
        }
      ],
      "stateMutability": "view",
      "type": "function"
    },
    {
      "inputs": [
        {
          "internalType": "bytes32",
          "name": "role",
          "type": "bytes32"
        }
      ],
      "name": "getRoleAdmin",
      "outputs": [
        {
          "internalType": "bytes32",
          "name": "",
          "type": "bytes32"
        }
      ],
      "stateMutability": "view",
      "type": "function"
    },
    {
      "inputs": [
        {
          "internalType": "bytes32",
          "name": "role",
          "type": "bytes32"
        },
        {
          "internalType": "address",
          "name": "account",
          "type": "address"
        }
      ],
      "name": "grantRole",
      "outputs": [],
      "stateMutability": "nonpayable",
      "type": "function"
    },
    {
      "inputs": [
        {
          "internalType": "bytes32",
          "name": "role",
          "type": "bytes32"
        },
        {
          "internalType": "address",
          "name": "account",
          "type": "address"
        }
      ],
      "name": "hasRole",
      "outputs": [
        {
          "internalType": "bool",
          "name": "",
          "type": "bool"
        }
      ],
      "stateMutability": "view",
      "type": "function"
    },
    {
      "inputs": [],
      "name": "lockTokenDeposit",
      "outputs": [],
      "stateMutability": "nonpayable",
      "type": "function"
    },
    {
      "inputs": [],
      "name": "owner",
      "outputs": [
        {
          "internalType": "address",
          "name": "",
          "type": "address"
        }
      ],
      "stateMutability": "view",
      "type": "function"
    },
    {
      "inputs": [
        {
          "internalType": "bytes",
          "name": "paymasterAndData",
          "type": "bytes"
        }
      ],
      "name": "parsePaymasterAndData",
      "outputs": [
        {
          "components": [
            {
              "internalType": "address",
              "name": "token",
              "type": "address"
            },
            {
              "internalType": "uint48",
              "name": "validUntil",
              "type": "uint48"
            },
            {
              "internalType": "uint256",
              "name": "valueOfEth",
              "type": "uint256"
            }
          ],
          "internalType": "struct LoopringPaymaster.DecodedData",
          "name": "decodedData",
          "type": "tuple"
        },
        {
          "internalType": "bytes",
          "name": "signature",
          "type": "bytes"
        }
      ],
      "stateMutability": "pure",
      "type": "function"
    },
    {
      "inputs": [
        {
          "internalType": "enum IPaymaster.PostOpMode",
          "name": "mode",
          "type": "uint8"
        },
        {
          "internalType": "bytes",
          "name": "context",
          "type": "bytes"
        },
        {
          "internalType": "uint256",
          "name": "actualGasCost",
          "type": "uint256"
        }
      ],
      "name": "postOp",
      "outputs": [],
      "stateMutability": "nonpayable",
      "type": "function"
    },
    {
      "inputs": [
        {
          "internalType": "contract ERC20",
          "name": "",
          "type": "address"
        }
      ],
      "name": "registeredToken",
      "outputs": [
        {
          "internalType": "bool",
          "name": "",
          "type": "bool"
        }
      ],
      "stateMutability": "view",
      "type": "function"
    },
    {
      "inputs": [
        {
          "internalType": "contract ERC20",
          "name": "token",
          "type": "address"
        }
      ],
      "name": "removeToken",
      "outputs": [],
      "stateMutability": "nonpayable",
      "type": "function"
    },
    {
      "inputs": [],
      "name": "renounceOwnership",
      "outputs": [],
      "stateMutability": "nonpayable",
      "type": "function"
    },
    {
      "inputs": [
        {
          "internalType": "bytes32",
          "name": "role",
          "type": "bytes32"
        },
        {
          "internalType": "address",
          "name": "account",
          "type": "address"
        }
      ],
      "name": "renounceRole",
      "outputs": [],
      "stateMutability": "nonpayable",
      "type": "function"
    },
    {
      "inputs": [
        {
          "internalType": "bytes32",
          "name": "role",
          "type": "bytes32"
        },
        {
          "internalType": "address",
          "name": "account",
          "type": "address"
        }
      ],
      "name": "revokeRole",
      "outputs": [],
      "stateMutability": "nonpayable",
      "type": "function"
    },
    {
      "inputs": [
        {
          "internalType": "address",
          "name": "",
          "type": "address"
        }
      ],
      "name": "senderNonce",
      "outputs": [
        {
          "internalType": "uint256",
          "name": "",
          "type": "uint256"
        }
      ],
      "stateMutability": "view",
      "type": "function"
    },
    {
      "inputs": [
        {
          "internalType": "bytes4",
          "name": "interfaceId",
          "type": "bytes4"
        }
      ],
      "name": "supportsInterface",
      "outputs": [
        {
          "internalType": "bool",
          "name": "",
          "type": "bool"
        }
      ],
      "stateMutability": "view",
      "type": "function"
    },
    {
      "inputs": [
        {
          "internalType": "address",
          "name": "newOwner",
          "type": "address"
        }
      ],
      "name": "transferOwnership",
      "outputs": [],
      "stateMutability": "nonpayable",
      "type": "function"
    },
    {
      "inputs": [
        {
          "internalType": "address",
          "name": "",
          "type": "address"
        }
      ],
      "name": "unlockBlock",
      "outputs": [
        {
          "internalType": "uint256",
          "name": "",
          "type": "uint256"
        }
      ],
      "stateMutability": "view",
      "type": "function"
    },
    {
      "inputs": [],
      "name": "unlockStake",
      "outputs": [],
      "stateMutability": "nonpayable",
      "type": "function"
    },
    {
      "inputs": [],
      "name": "unlockTokenDeposit",
      "outputs": [],
      "stateMutability": "nonpayable",
      "type": "function"
    },
    {
      "inputs": [
        {
          "components": [
            {
              "internalType": "address",
              "name": "sender",
              "type": "address"
            },
            {
              "internalType": "uint256",
              "name": "nonce",
              "type": "uint256"
            },
            {
              "internalType": "bytes",
              "name": "initCode",
              "type": "bytes"
            },
            {
              "internalType": "bytes",
              "name": "callData",
              "type": "bytes"
            },
            {
              "internalType": "uint256",
              "name": "callGasLimit",
              "type": "uint256"
            },
            {
              "internalType": "uint256",
              "name": "verificationGasLimit",
              "type": "uint256"
            },
            {
              "internalType": "uint256",
              "name": "preVerificationGas",
              "type": "uint256"
            },
            {
              "internalType": "uint256",
              "name": "maxFeePerGas",
              "type": "uint256"
            },
            {
              "internalType": "uint256",
              "name": "maxPriorityFeePerGas",
              "type": "uint256"
            },
            {
              "internalType": "bytes",
              "name": "paymasterAndData",
              "type": "bytes"
            },
            {
              "internalType": "bytes",
              "name": "signature",
              "type": "bytes"
            }
          ],
          "internalType": "struct UserOperation",
          "name": "userOp",
          "type": "tuple"
        },
        {
          "internalType": "bytes32",
          "name": "userOpHash",
          "type": "bytes32"
        },
        {
          "internalType": "uint256",
          "name": "maxCost",
          "type": "uint256"
        }
      ],
      "name": "validatePaymasterUserOp",
      "outputs": [
        {
          "internalType": "bytes",
          "name": "context",
          "type": "bytes"
        },
        {
          "internalType": "uint256",
          "name": "validationData",
          "type": "uint256"
        }
      ],
      "stateMutability": "nonpayable",
      "type": "function"
    },
    {
      "inputs": [
        {
          "internalType": "address payable",
          "name": "withdrawAddress",
          "type": "address"
        }
      ],
      "name": "withdrawStake",
      "outputs": [],
      "stateMutability": "nonpayable",
      "type": "function"
    },
    {
      "inputs": [
        {
          "internalType": "address payable",
          "name": "withdrawAddress",
          "type": "address"
        },
        {
          "internalType": "uint256",
          "name": "amount",
          "type": "uint256"
        }
      ],
      "name": "withdrawTo",
      "outputs": [],
      "stateMutability": "nonpayable",
      "type": "function"
    },
    {
      "inputs": [
        {
          "internalType": "contract ERC20",
          "name": "token",
          "type": "address"
        },
        {
          "internalType": "address",
          "name": "target",
          "type": "address"
        },
        {
          "internalType": "uint256",
          "name": "amount",
          "type": "uint256"
        }
      ],
      "name": "withdrawTokensTo",
      "outputs": [],
      "stateMutability": "nonpayable",
      "type": "function"
    },
    {
      "stateMutability": "payable",
      "type": "receive"
    }
  ],
  "bytecode": "0x6080604052614e206003553480156200001757600080fd5b5060405162002aab38038062002aab8339810160408190526200003a91620001d2565b816200004633620000c4565b600180546001600160a01b0319166001600160a01b03929092169190911790556200007181620000c4565b6200009060006200008a6000546001600160a01b031690565b62000114565b620000bc7f2aeb38be3df14d720aeb10a2de6df09b0fb3cd5c5ec256283a22d4593110ca408262000114565b505062000211565b600080546001600160a01b038381166001600160a01b0319831681178455604051919092169283917f8be0079c531659141344cd1fd0a4f28419497f9722a3daafe3b4186f6b6457e09190a35050565b60008281526002602090815260408083206001600160a01b038516845290915290205460ff16620001b55760008281526002602090815260408083206001600160a01b03851684529091529020805460ff19166001179055620001743390565b6001600160a01b0316816001600160a01b0316837f2f8788117e7eff1d82e926ec794901d17c78024a50270940304540a733656f0d60405160405180910390a45b5050565b6001600160a01b0381168114620001cf57600080fd5b50565b60008060408385031215620001e657600080fd5b8251620001f381620001b9565b60208401519092506200020681620001b9565b809150509250929050565b61288a80620002216000396000f3fe6080604052600436106101fd5760003560e01c806394d4ad601161010d578063c23f001f116100a0578063d0e30db01161006f578063d0e30db0146106a2578063d48bfca7146106aa578063d547741f146106ca578063f2fde38b146106ea578063f465c77e1461070a57600080fd5b8063c23f001f14610613578063c399ec881461064b578063cc9c837c14610660578063cd8f80c21461068057600080fd5b8063a9a23409116100dc578063a9a234091461059e578063b0d691fe146105be578063bb9fe6bf146105de578063c23a5cea146105f357600080fd5b806394d4ad601461050a5780639c90b443146105385780639ed0fb6814610565578063a217fddf1461058957600080fd5b80633c89c49011610190578063582abd121161015f578063582abd121461044f5780635fa7b58414610483578063715018a6146104a35780638da5cb5b146104b857806391d14854146104ea57600080fd5b80633c89c4901461036b578063493b01701461039b5780634a6f84cf146104025780634b02488f1461042f57600080fd5b80632bfe737d116101cc5780632bfe737d146102eb5780632f2ff15d1461030b57806336568abe1461032b578063382edd9e1461034b57600080fd5b806301ffc9a7146102435780630396cb6014610278578063205c28781461028d578063248a9ca3146102ad57600080fd5b3661023e5760405162461bcd60e51b815260206004820152600c60248201526b195d1a081c995a9958dd195960a21b60448201526064015b60405180910390fd5b600080fd5b34801561024f57600080fd5b5061026361025e366004612037565b610738565b60405190151581526020015b60405180910390f35b61028b610286366004612061565b61076f565b005b34801561029957600080fd5b5061028b6102a836600461209c565b6107de565b3480156102b957600080fd5b506102dd6102c83660046120c8565b60009081526002602052604090206001015490565b60405190815260200161026f565b3480156102f757600080fd5b506102dd6103063660046120fa565b610834565b34801561031757600080fd5b5061028b61032636600461213f565b61091d565b34801561033757600080fd5b5061028b61034636600461213f565b610947565b34801561035757600080fd5b5061028b61036636600461216f565b6109c5565b34801561037757600080fd5b506102636103863660046121b0565b60046020526000908152604090205460ff1681565b3480156103a757600080fd5b506103ed6103b63660046121cd565b6001600160a01b03918216600090815260056020908152604080832093909416825291825282812054600690925291909120549091565b6040805192835260208301919091520161026f565b34801561040e57600080fd5b506102dd61041d3660046121b0565b60066020526000908152604090205481565b34801561043b57600080fd5b5061028b61044a3660046121b0565b610a97565b34801561045b57600080fd5b506102dd7f2aeb38be3df14d720aeb10a2de6df09b0fb3cd5c5ec256283a22d4593110ca4081565b34801561048f57600080fd5b5061028b61049e3660046121b0565b610b83565b3480156104af57600080fd5b5061028b610c0b565b3480156104c457600080fd5b506000546001600160a01b03165b6040516001600160a01b03909116815260200161026f565b3480156104f657600080fd5b5061026361050536600461213f565b610c1f565b34801561051657600080fd5b5061052a61052536600461223d565b610c4a565b60405161026f9291906122cf565b34801561054457600080fd5b506102dd6105533660046121b0565b60076020526000908152604090205481565b34801561057157600080fd5b5061028b336000908152600660205260409020439055565b34801561059557600080fd5b506102dd600081565b3480156105aa57600080fd5b5061028b6105b936600461230d565b610cb2565b3480156105ca57600080fd5b506001546104d2906001600160a01b031681565b3480156105ea57600080fd5b5061028b610ccc565b3480156105ff57600080fd5b5061028b61060e3660046121b0565b610d38565b34801561061f57600080fd5b506102dd61062e3660046121cd565b600560209081526000928352604080842090915290825290205481565b34801561065757600080fd5b506102dd610da2565b34801561066c57600080fd5b5061028b61067b36600461216f565b610e14565b34801561068c57600080fd5b5061028b33600090815260066020526040812055565b61028b610eeb565b3480156106b657600080fd5b5061028b6106c53660046121b0565b610f31565b3480156106d657600080fd5b5061028b6106e536600461213f565b610fbb565b3480156106f657600080fd5b5061028b6107053660046121b0565b610fe0565b34801561071657600080fd5b5061072a61072536600461236d565b611059565b60405161026f9291906123bb565b60006001600160e01b03198216637965db0b60e01b148061076957506301ffc9a760e01b6001600160e01b03198316145b92915050565b61077761107d565b600154604051621cb65b60e51b815263ffffffff831660048201526001600160a01b0390911690630396cb609034906024016000604051808303818588803b1580156107c257600080fd5b505af11580156107d6573d6000803e3d6000fd5b505050505050565b6107e661107d565b60015460405163040b850f60e31b81526001600160a01b038481166004830152602482018490529091169063205c287890604401600060405180830381600087803b1580156107c257600080fd5b60008235602084013561084a60408601866123dd565b604051610858929190612424565b60405190819003902061086e60608701876123dd565b60405161087c929190612424565b604080519182900382206001600160a01b03909516602083015281019290925260608201526080808201929092529084013560a08083019190915284013560c08083019190915284013560e08083019190915284013561010080830191909152840135610120820152466101408201523061016082015261018081018390526101a00160405160208183030381529060405280519060200120905092915050565b600082815260026020526040902060010154610938816110d7565b61094283836110e1565b505050565b6001600160a01b03811633146109b75760405162461bcd60e51b815260206004820152602f60248201527f416363657373436f6e74726f6c3a2063616e206f6e6c792072656e6f756e636560448201526e103937b632b9903337b91039b2b63360891b6064820152608401610235565b6109c18282611167565b5050565b6109da6001600160a01b0384163330846111ce565b6001600160a01b03831660009081526004602052604090205460ff16610a365760405162461bcd60e51b81526020600482015260116024820152703ab739bab83837b93a32b2103a37b5b2b760791b6044820152606401610235565b6001600160a01b03808416600090815260056020908152604080832093861683529290529081208054839290610a6d90849061244a565b90915550506001600160a01b03821633036109425761094233600090815260066020526040812055565b610a9f61107d565b6001600160a01b038116610aea5760405162461bcd60e51b8152602060048201526012602482015271125395905312510811539514965413d2539560721b6044820152606401610235565b6001546001600160a01b03808316911603610b395760405162461bcd60e51b815260206004820152600f60248201526e14d053514811539514965413d25395608a1b6044820152606401610235565b600180546001600160a01b0319166001600160a01b0383169081179091556040517f94fe20369eda1036391e68ebc6af4965f710ae7bc0cb1c315895c028149582d290600090a250565b610b8b61107d565b6001600160a01b03811660009081526004602052604090205460ff16610bea5760405162461bcd60e51b8152602060048201526014602482015273756e7265676973746572656420616c726561647960601b6044820152606401610235565b6001600160a01b03166000908152600460205260409020805460ff19169055565b610c1361107d565b610c1d6000611239565b565b60009182526002602090815260408084206001600160a01b0393909316845291905290205460ff1690565b60408051606081018252600080825260208201819052918101919091526060610c76836014818761245d565b810190610c83919061249d565b604086019190915265ffffffffffff90911660208501526001600160a01b039091168352919491935090915050565b610cba611289565b610cc6848484846112db565b50505050565b610cd461107d565b600160009054906101000a90046001600160a01b03166001600160a01b031663bb9fe6bf6040518163ffffffff1660e01b8152600401600060405180830381600087803b158015610d2457600080fd5b505af1158015610cc6573d6000803e3d6000fd5b610d4061107d565b60015460405163611d2e7560e11b81526001600160a01b0383811660048301529091169063c23a5cea90602401600060405180830381600087803b158015610d8757600080fd5b505af1158015610d9b573d6000803e3d6000fd5b5050505050565b6001546040516370a0823160e01b81523060048201526000916001600160a01b0316906370a0823190602401602060405180830381865afa158015610deb573d6000803e3d6000fd5b505050506040513d601f19601f82011682018060405250810190610e0f9190612588565b905090565b3360009081526006602052604090205415801590610e4057503360009081526006602052604090205443115b610e9e5760405162461bcd60e51b815260206004820152602960248201527f4465706f7369745061796d61737465723a206d75737420756e6c6f636b546f6b604482015268195b91195c1bdcda5d60ba1b6064820152608401610235565b6001600160a01b038316600090815260056020908152604080832033845290915281208054839290610ed19084906125a1565b9091555061094290506001600160a01b038416838361146b565b60015460405163b760faf960e01b81523060048201526001600160a01b039091169063b760faf99034906024016000604051808303818588803b158015610d8757600080fd5b610f3961107d565b6001600160a01b03811660009081526004602052604090205460ff1615610f975760405162461bcd60e51b81526020600482015260126024820152717265676973746572656420616c726561647960701b6044820152606401610235565b6001600160a01b03166000908152600460205260409020805460ff19166001179055565b600082815260026020526040902060010154610fd6816110d7565b6109428383611167565b610fe861107d565b6001600160a01b03811661104d5760405162461bcd60e51b815260206004820152602660248201527f4f776e61626c653a206e6577206f776e657220697320746865207a65726f206160448201526564647265737360d01b6064820152608401610235565b61105681611239565b50565b60606000611065611289565b61107085858561149b565b915091505b935093915050565b6000546001600160a01b03163314610c1d5760405162461bcd60e51b815260206004820181905260248201527f4f776e61626c653a2063616c6c6572206973206e6f7420746865206f776e65726044820152606401610235565b6110568133611957565b6110eb8282610c1f565b6109c15760008281526002602090815260408083206001600160a01b03851684529091529020805460ff191660011790556111233390565b6001600160a01b0316816001600160a01b0316837f2f8788117e7eff1d82e926ec794901d17c78024a50270940304540a733656f0d60405160405180910390a45050565b6111718282610c1f565b156109c15760008281526002602090815260408083206001600160a01b0385168085529252808320805460ff1916905551339285917ff6391f5c32d9c69d2a47ea670b442974b53935d1edc7fd64eb21e047a839171b9190a45050565b6040516001600160a01b0380851660248301528316604482015260648101829052610cc69085906323b872dd60e01b906084015b60408051601f198184030181529190526020810180516001600160e01b03166001600160e01b0319909316929092179091526119b0565b600080546001600160a01b038381166001600160a01b0319831681178455604051919092169283917f8be0079c531659141344cd1fd0a4f28419497f9722a3daafe3b4186f6b6457e09190a35050565b6001546001600160a01b03163314610c1d5760405162461bcd60e51b815260206004820152601560248201527414d95b99195c881b9bdd08115b9d1c9e541bda5b9d605a1b6044820152606401610235565b6000808080806112ed878901896125b4565b94509450945094509450600080821115611413578161130e6008600a6126ea565b611318858a61244a565b61132291906126f9565b61132c9190612710565b6001600160a01b038086166000908152600560209081526040808320938a1683529290522054909150811161139d576001600160a01b038085166000908152600560209081526040808320938916835292905290812080548392906113929084906125a1565b909155506113b29050565b6113b26001600160a01b0385168630846111ce565b6001600160a01b038416600090815260056020526040812082916113de6000546001600160a01b031690565b6001600160a01b03166001600160a01b03168152602001908152602001600020600082825461140d919061244a565b90915550505b604080516001600160a01b03861681526020810184905290810182905286907f652bee3205998d1f8c65b6c88839605bed2748c59d2b6e17bcfbc901b36a14fb9060600160405180910390a250505050505050505050565b6040516001600160a01b03831660248201526044810182905261094290849063a9059cbb60e01b90606401611202565b60606000843581806114b46105256101208a018a6123dd565b6001600160a01b03851660009081526006602052604090205491935091501561152b5760405162461bcd60e51b8152602060048201526024808201527f4465706f7369745061796d61737465723a206465706f736974206e6f74206c6f60448201526318dad95960e21b6064820152608401610235565b80516040148061153c575080516041145b6115b0576040805162461bcd60e51b81526020600482015260248101919091527f566572696679696e675061796d61737465723a20696e76616c6964207369676e60448201527f6174757265206c656e67746820696e207061796d6173746572416e64446174616064820152608401610235565b60006003546115be8a611a82565b6115c891906126f9565b60408401519091501561178e5760408301516000906115e96008600a6126ea565b6115f3848b61244a565b6115fd91906126f9565b6116079190612710565b84516001600160a01b039081166000908152600560209081526040808320938a16835292905220549091508111158061172757508351604051636eb1769f60e11b81526001600160a01b0387811660048301523060248301528392169063dd62ed3e90604401602060405180830381865afa15801561168a573d6000803e3d6000fd5b505050506040513d601f19601f820116820180604052508101906116ae9190612588565b10158015611727575083516040516370a0823160e01b81526001600160a01b038781166004830152839216906370a0823190602401602060405180830381865afa158015611700573d6000803e3d6000fd5b505050506040513d601f19601f820116820180604052508101906117249190612588565b10155b61178c5760405162461bcd60e51b815260206004820152603060248201527f5061796d61737465723a206e6f20656e6f75676820616c6c6f77616e6365206f60448201526f7220746f6b656e2062616c616e63657360801b6064820152608401610235565b505b60006118586118058b8660000151876020015188604001516040516020016117ea9392919060609390931b6bffffffffffffffffffffffff1916835260d09190911b6001600160d01b0319166014830152601a820152603a0190565b60405160208183030381529060405280519060200120610834565b6040517f19457468657265756d205369676e6564204d6573736167653a0a3332000000006020820152603c8101829052600090605c01604051602081830303815290604052805190602001209050919050565b6001600160a01b038b3516600090815260076020526040812080549293509061188083612732565b909155506118b490507f2aeb38be3df14d720aeb10a2de6df09b0fb3cd5c5ec256283a22d4593110ca406105058386611ab1565b6118e8576118c9600185602001516000611ad5565b6040518060200160405280600081525090965096505050505050611075565b83516040808601518151602081018d90526001600160a01b03808a16938201939093529190921660608201526080810184905260a081019190915260c001604051602081830303815290604052611946600086602001516000611ad5565b965096505050505050935093915050565b6119618282610c1f565b6109c15761196e81611b0f565b611979836020611b21565b60405160200161198a92919061274b565b60408051601f198184030181529082905262461bcd60e51b8252610235916004016127c0565b6000611a05826040518060400160405280602081526020017f5361666545524332303a206c6f772d6c6576656c2063616c6c206661696c6564815250856001600160a01b0316611cbd9092919063ffffffff16565b8051909150156109425780806020019051810190611a2391906127d3565b6109425760405162461bcd60e51b815260206004820152602a60248201527f5361666545524332303a204552433230206f7065726174696f6e20646964206e6044820152691bdd081cdd58d8d9595960b21b6064820152608401610235565b600060e0820135610100830135808203611a9d575092915050565b611aa982488301611ccc565b949350505050565b6000806000611ac08585611ce2565b91509150611acd81611d27565b509392505050565b600060d08265ffffffffffff16901b60a08465ffffffffffff16901b85611afd576000611b00565b60015b60ff16171790505b9392505050565b60606107696001600160a01b03831660145b60606000611b308360026126f9565b611b3b90600261244a565b67ffffffffffffffff811115611b5357611b53612487565b6040519080825280601f01601f191660200182016040528015611b7d576020820181803683370190505b509050600360fc1b81600081518110611b9857611b986127f5565b60200101906001600160f81b031916908160001a905350600f60fb1b81600181518110611bc757611bc76127f5565b60200101906001600160f81b031916908160001a9053506000611beb8460026126f9565b611bf690600161244a565b90505b6001811115611c6e576f181899199a1a9b1b9c1cb0b131b232b360811b85600f1660108110611c2a57611c2a6127f5565b1a60f81b828281518110611c4057611c406127f5565b60200101906001600160f81b031916908160001a90535060049490941c93611c678161280b565b9050611bf9565b508315611b085760405162461bcd60e51b815260206004820181905260248201527f537472696e67733a20686578206c656e67746820696e73756666696369656e746044820152606401610235565b6060611aa98484600085611e71565b6000818310611cdb5781611b08565b5090919050565b6000808251604103611d185760208301516040840151606085015160001a611d0c87828585611f3a565b94509450505050611d20565b506000905060025b9250929050565b6000816004811115611d3b57611d3b612822565b03611d435750565b6001816004811115611d5757611d57612822565b03611da45760405162461bcd60e51b815260206004820152601860248201527f45434453413a20696e76616c6964207369676e617475726500000000000000006044820152606401610235565b6002816004811115611db857611db8612822565b03611e055760405162461bcd60e51b815260206004820152601f60248201527f45434453413a20696e76616c6964207369676e6174757265206c656e677468006044820152606401610235565b6003816004811115611e1957611e19612822565b036110565760405162461bcd60e51b815260206004820152602260248201527f45434453413a20696e76616c6964207369676e6174757265202773272076616c604482015261756560f01b6064820152608401610235565b6060843b611ec15760405162461bcd60e51b815260206004820152601d60248201527f416464726573733a2063616c6c20746f206e6f6e2d636f6e74726163740000006044820152606401610235565b600080866001600160a01b03168587604051611edd9190612838565b60006040518083038185875af1925050503d8060008114611f1a576040519150601f19603f3d011682016040523d82523d6000602084013e611f1f565b606091505b5091509150611f2f828286611ffe565b979650505050505050565b6000807f7fffffffffffffffffffffffffffffff5d576e7357a4501ddfe92f46681b20a0831115611f715750600090506003611ff5565b6040805160008082526020820180845289905260ff881692820192909252606081018690526080810185905260019060a0016020604051602081039080840390855afa158015611fc5573d6000803e3d6000fd5b5050604051601f1901519150506001600160a01b038116611fee57600060019250925050611ff5565b9150600090505b94509492505050565b6060831561200d575081611b08565b82511561201d5782518084602001fd5b8160405162461bcd60e51b815260040161023591906127c0565b60006020828403121561204957600080fd5b81356001600160e01b031981168114611b0857600080fd5b60006020828403121561207357600080fd5b813563ffffffff81168114611b0857600080fd5b6001600160a01b038116811461105657600080fd5b600080604083850312156120af57600080fd5b82356120ba81612087565b946020939093013593505050565b6000602082840312156120da57600080fd5b5035919050565b600061016082840312156120f457600080fd5b50919050565b6000806040838503121561210d57600080fd5b823567ffffffffffffffff81111561212457600080fd5b612130858286016120e1565b95602094909401359450505050565b6000806040838503121561215257600080fd5b82359150602083013561216481612087565b809150509250929050565b60008060006060848603121561218457600080fd5b833561218f81612087565b9250602084013561219f81612087565b929592945050506040919091013590565b6000602082840312156121c257600080fd5b8135611b0881612087565b600080604083850312156121e057600080fd5b82356121eb81612087565b9150602083013561216481612087565b60008083601f84011261220d57600080fd5b50813567ffffffffffffffff81111561222557600080fd5b602083019150836020828501011115611d2057600080fd5b6000806020838503121561225057600080fd5b823567ffffffffffffffff81111561226757600080fd5b612273858286016121fb565b90969095509350505050565b60005b8381101561229a578181015183820152602001612282565b50506000910152565b600081518084526122bb81602086016020860161227f565b601f01601f19169290920160200192915050565b60018060a01b03835116815265ffffffffffff602084015116602082015260408301516040820152608060608201526000611aa960808301846122a3565b6000806000806060858703121561232357600080fd5b84356003811061233257600080fd5b9350602085013567ffffffffffffffff81111561234e57600080fd5b61235a878288016121fb565b9598909750949560400135949350505050565b60008060006060848603121561238257600080fd5b833567ffffffffffffffff81111561239957600080fd5b6123a5868287016120e1565b9660208601359650604090950135949350505050565b6040815260006123ce60408301856122a3565b90508260208301529392505050565b6000808335601e198436030181126123f457600080fd5b83018035915067ffffffffffffffff82111561240f57600080fd5b602001915036819003821315611d2057600080fd5b8183823760009101908152919050565b634e487b7160e01b600052601160045260246000fd5b8082018082111561076957610769612434565b6000808585111561246d57600080fd5b8386111561247a57600080fd5b5050820193919092039150565b634e487b7160e01b600052604160045260246000fd5b600080600080608085870312156124b357600080fd5b84356124be81612087565b9350602085013565ffffffffffff811681146124d957600080fd5b925060408501359150606085013567ffffffffffffffff808211156124fd57600080fd5b818701915087601f83011261251157600080fd5b81358181111561252357612523612487565b604051601f8201601f19908116603f0116810190838211818310171561254b5761254b612487565b816040528281528a602084870101111561256457600080fd5b82602086016020830137600060208483010152809550505050505092959194509250565b60006020828403121561259a57600080fd5b5051919050565b8181038181111561076957610769612434565b600080600080600060a086880312156125cc57600080fd5b8535945060208601356125de81612087565b935060408601356125ee81612087565b94979396509394606081013594506080013592915050565b600181815b8085111561264157816000190482111561262757612627612434565b8085161561263457918102915b93841c939080029061260b565b509250929050565b60008261265857506001610769565b8161266557506000610769565b816001811461267b5760028114612685576126a1565b6001915050610769565b60ff84111561269657612696612434565b50506001821b610769565b5060208310610133831016604e8410600b84101617156126c4575081810a610769565b6126ce8383612606565b80600019048211156126e2576126e2612434565b029392505050565b6000611b0860ff841683612649565b808202811582820484141761076957610769612434565b60008261272d57634e487b7160e01b600052601260045260246000fd5b500490565b60006001820161274457612744612434565b5060010190565b7f416363657373436f6e74726f6c3a206163636f756e742000000000000000000081526000835161278381601785016020880161227f565b7001034b99036b4b9b9b4b733903937b6329607d1b60179184019182015283516127b481602884016020880161227f565b01602801949350505050565b602081526000611b0860208301846122a3565b6000602082840312156127e557600080fd5b81518015158114611b0857600080fd5b634e487b7160e01b600052603260045260246000fd5b60008161281a5761281a612434565b506000190190565b634e487b7160e01b600052602160045260246000fd5b6000825161284a81846020870161227f565b919091019291505056fea2646970667358221220e7357572b41a7beff71101f659a559a0158b7aa1d0dfcaa103236d9481e9e91e64736f6c63430008110033",
  "linkReferences": {},
  "deployedLinkReferences": {}
}