{
  "_format": "hh-sol-artifact-1",
  "contractName": "LoopringPaymaster",
  "sourceName": "contracts/base/LoopringPaymaster.sol",
  "abi": [
    {
      "inputs": [
        {
          "internalType": "contract IEntryPoint",
          "name": "_entryPoint",
          "type": "address"
        },
        {
          "internalType": "address",
          "name": "paymasterOwner",
          "type": "address"
        }
      ],
      "stateMutability": "nonpayable",
      "type": "constructor"
    },
    {
      "anonymous": false,
      "inputs": [
        {
          "indexed": true,
          "internalType": "address",
          "name": "previousOwner",
          "type": "address"
        },
        {
          "indexed": true,
          "internalType": "address",
          "name": "newOwner",
          "type": "address"
        }
      ],
      "name": "OwnershipTransferred",
      "type": "event"
    },
    {
      "anonymous": false,
      "inputs": [
        {
          "indexed": true,
          "internalType": "bytes32",
          "name": "userOpHash",
          "type": "bytes32"
        },
        {
          "indexed": false,
          "internalType": "address",
          "name": "token",
          "type": "address"
        },
        {
          "indexed": false,
          "internalType": "uint256",
          "name": "valueOfEth",
          "type": "uint256"
        },
        {
          "indexed": false,
          "internalType": "uint256",
          "name": "actualTokenCost",
          "type": "uint256"
        }
      ],
      "name": "PaymasterEvent",
      "type": "event"
    },
    {
      "anonymous": false,
      "inputs": [
        {
          "indexed": true,
          "internalType": "bytes32",
          "name": "role",
          "type": "bytes32"
        },
        {
          "indexed": true,
          "internalType": "bytes32",
          "name": "previousAdminRole",
          "type": "bytes32"
        },
        {
          "indexed": true,
          "internalType": "bytes32",
          "name": "newAdminRole",
          "type": "bytes32"
        }
      ],
      "name": "RoleAdminChanged",
      "type": "event"
    },
    {
      "anonymous": false,
      "inputs": [
        {
          "indexed": true,
          "internalType": "bytes32",
          "name": "role",
          "type": "bytes32"
        },
        {
          "indexed": true,
          "internalType": "address",
          "name": "account",
          "type": "address"
        },
        {
          "indexed": true,
          "internalType": "address",
          "name": "sender",
          "type": "address"
        }
      ],
      "name": "RoleGranted",
      "type": "event"
    },
    {
      "anonymous": false,
      "inputs": [
        {
          "indexed": true,
          "internalType": "bytes32",
          "name": "role",
          "type": "bytes32"
        },
        {
          "indexed": true,
          "internalType": "address",
          "name": "account",
          "type": "address"
        },
        {
          "indexed": true,
          "internalType": "address",
          "name": "sender",
          "type": "address"
        }
      ],
      "name": "RoleRevoked",
      "type": "event"
    },
    {
      "inputs": [],
      "name": "DEFAULT_ADMIN_ROLE",
      "outputs": [
        {
          "internalType": "bytes32",
          "name": "",
          "type": "bytes32"
        }
      ],
      "stateMutability": "view",
      "type": "function"
    },
    {
      "inputs": [],
      "name": "SIGNER",
      "outputs": [
        {
          "internalType": "bytes32",
          "name": "",
          "type": "bytes32"
        }
      ],
      "stateMutability": "view",
      "type": "function"
    },
    {
      "inputs": [
        {
          "internalType": "contract ERC20",
          "name": "token",
          "type": "address"
        },
        {
          "internalType": "address",
          "name": "account",
          "type": "address"
        },
        {
          "internalType": "uint256",
          "name": "amount",
          "type": "uint256"
        }
      ],
      "name": "addDepositFor",
      "outputs": [],
      "stateMutability": "nonpayable",
      "type": "function"
    },
    {
      "inputs": [
        {
          "internalType": "uint32",
          "name": "unstakeDelaySec",
          "type": "uint32"
        }
      ],
      "name": "addStake",
      "outputs": [],
      "stateMutability": "payable",
      "type": "function"
    },
    {
      "inputs": [
        {
          "internalType": "contract ERC20",
          "name": "token",
          "type": "address"
        }
      ],
      "name": "addToken",
      "outputs": [],
      "stateMutability": "nonpayable",
      "type": "function"
    },
    {
      "inputs": [
        {
          "internalType": "contract ERC20",
          "name": "",
          "type": "address"
        },
        {
          "internalType": "address",
          "name": "",
          "type": "address"
        }
      ],
      "name": "balances",
      "outputs": [
        {
          "internalType": "uint256",
          "name": "",
          "type": "uint256"
        }
      ],
      "stateMutability": "view",
      "type": "function"
    },
    {
      "inputs": [],
      "name": "deposit",
      "outputs": [],
      "stateMutability": "payable",
      "type": "function"
    },
    {
      "inputs": [
        {
          "internalType": "contract ERC20",
          "name": "token",
          "type": "address"
        },
        {
          "internalType": "address",
          "name": "account",
          "type": "address"
        }
      ],
      "name": "depositInfo",
      "outputs": [
        {
          "internalType": "uint256",
          "name": "amount",
          "type": "uint256"
        },
        {
          "internalType": "uint256",
          "name": "_unlockBlock",
          "type": "uint256"
        }
      ],
      "stateMutability": "view",
      "type": "function"
    },
    {
      "inputs": [],
      "name": "entryPoint",
      "outputs": [
        {
          "internalType": "contract IEntryPoint",
          "name": "",
          "type": "address"
        }
      ],
      "stateMutability": "view",
      "type": "function"
    },
    {
      "inputs": [],
      "name": "getDeposit",
      "outputs": [
        {
          "internalType": "uint256",
          "name": "",
          "type": "uint256"
        }
      ],
      "stateMutability": "view",
      "type": "function"
    },
    {
      "inputs": [
        {
          "components": [
            {
              "internalType": "address",
              "name": "sender",
              "type": "address"
            },
            {
              "internalType": "uint256",
              "name": "nonce",
              "type": "uint256"
            },
            {
              "internalType": "bytes",
              "name": "initCode",
              "type": "bytes"
            },
            {
              "internalType": "bytes",
              "name": "callData",
              "type": "bytes"
            },
            {
              "internalType": "uint256",
              "name": "callGasLimit",
              "type": "uint256"
            },
            {
              "internalType": "uint256",
              "name": "verificationGasLimit",
              "type": "uint256"
            },
            {
              "internalType": "uint256",
              "name": "preVerificationGas",
              "type": "uint256"
            },
            {
              "internalType": "uint256",
              "name": "maxFeePerGas",
              "type": "uint256"
            },
            {
              "internalType": "uint256",
              "name": "maxPriorityFeePerGas",
              "type": "uint256"
            },
            {
              "internalType": "bytes",
              "name": "paymasterAndData",
              "type": "bytes"
            },
            {
              "internalType": "bytes",
              "name": "signature",
              "type": "bytes"
            }
          ],
          "internalType": "struct UserOperation",
          "name": "userOp",
          "type": "tuple"
        },
        {
          "internalType": "bytes32",
          "name": "dataHash",
          "type": "bytes32"
        }
      ],
      "name": "getHash",
      "outputs": [
        {
          "internalType": "bytes32",
          "name": "",
          "type": "bytes32"
        }
      ],
      "stateMutability": "view",
      "type": "function"
    },
    {
      "inputs": [
        {
          "internalType": "bytes32",
          "name": "role",
          "type": "bytes32"
        }
      ],
      "name": "getRoleAdmin",
      "outputs": [
        {
          "internalType": "bytes32",
          "name": "",
          "type": "bytes32"
        }
      ],
      "stateMutability": "view",
      "type": "function"
    },
    {
      "inputs": [
        {
          "internalType": "bytes32",
          "name": "role",
          "type": "bytes32"
        },
        {
          "internalType": "address",
          "name": "account",
          "type": "address"
        }
      ],
      "name": "grantRole",
      "outputs": [],
      "stateMutability": "nonpayable",
      "type": "function"
    },
    {
      "inputs": [
        {
          "internalType": "bytes32",
          "name": "role",
          "type": "bytes32"
        },
        {
          "internalType": "address",
          "name": "account",
          "type": "address"
        }
      ],
      "name": "hasRole",
      "outputs": [
        {
          "internalType": "bool",
          "name": "",
          "type": "bool"
        }
      ],
      "stateMutability": "view",
      "type": "function"
    },
    {
      "inputs": [],
      "name": "lockTokenDeposit",
      "outputs": [],
      "stateMutability": "nonpayable",
      "type": "function"
    },
    {
      "inputs": [],
      "name": "owner",
      "outputs": [
        {
          "internalType": "address",
          "name": "",
          "type": "address"
        }
      ],
      "stateMutability": "view",
      "type": "function"
    },
    {
      "inputs": [
        {
          "internalType": "bytes",
          "name": "paymasterAndData",
          "type": "bytes"
        }
      ],
      "name": "parsePaymasterAndData",
      "outputs": [
        {
          "components": [
            {
              "internalType": "address",
              "name": "token",
              "type": "address"
            },
            {
              "internalType": "uint48",
              "name": "validUntil",
              "type": "uint48"
            },
            {
              "internalType": "uint256",
              "name": "valueOfEth",
              "type": "uint256"
            }
          ],
          "internalType": "struct LoopringPaymaster.DecodedData",
          "name": "decodedData",
          "type": "tuple"
        },
        {
          "internalType": "bytes",
          "name": "signature",
          "type": "bytes"
        }
      ],
      "stateMutability": "pure",
      "type": "function"
    },
    {
      "inputs": [
        {
          "internalType": "enum IPaymaster.PostOpMode",
          "name": "mode",
          "type": "uint8"
        },
        {
          "internalType": "bytes",
          "name": "context",
          "type": "bytes"
        },
        {
          "internalType": "uint256",
          "name": "actualGasCost",
          "type": "uint256"
        }
      ],
      "name": "postOp",
      "outputs": [],
      "stateMutability": "nonpayable",
      "type": "function"
    },
    {
      "inputs": [
        {
          "internalType": "contract ERC20",
          "name": "",
          "type": "address"
        }
      ],
      "name": "registeredToken",
      "outputs": [
        {
          "internalType": "bool",
          "name": "",
          "type": "bool"
        }
      ],
      "stateMutability": "view",
      "type": "function"
    },
    {
      "inputs": [],
      "name": "renounceOwnership",
      "outputs": [],
      "stateMutability": "nonpayable",
      "type": "function"
    },
    {
      "inputs": [
        {
          "internalType": "bytes32",
          "name": "role",
          "type": "bytes32"
        },
        {
          "internalType": "address",
          "name": "account",
          "type": "address"
        }
      ],
      "name": "renounceRole",
      "outputs": [],
      "stateMutability": "nonpayable",
      "type": "function"
    },
    {
      "inputs": [
        {
          "internalType": "bytes32",
          "name": "role",
          "type": "bytes32"
        },
        {
          "internalType": "address",
          "name": "account",
          "type": "address"
        }
      ],
      "name": "revokeRole",
      "outputs": [],
      "stateMutability": "nonpayable",
      "type": "function"
    },
    {
      "inputs": [
        {
          "internalType": "address",
          "name": "",
          "type": "address"
        }
      ],
      "name": "senderNonce",
      "outputs": [
        {
          "internalType": "uint256",
          "name": "",
          "type": "uint256"
        }
      ],
      "stateMutability": "view",
      "type": "function"
    },
    {
      "inputs": [
        {
          "internalType": "bytes4",
          "name": "interfaceId",
          "type": "bytes4"
        }
      ],
      "name": "supportsInterface",
      "outputs": [
        {
          "internalType": "bool",
          "name": "",
          "type": "bool"
        }
      ],
      "stateMutability": "view",
      "type": "function"
    },
    {
      "inputs": [
        {
          "internalType": "address",
          "name": "newOwner",
          "type": "address"
        }
      ],
      "name": "transferOwnership",
      "outputs": [],
      "stateMutability": "nonpayable",
      "type": "function"
    },
    {
      "inputs": [
        {
          "internalType": "address",
          "name": "",
          "type": "address"
        }
      ],
      "name": "unlockBlock",
      "outputs": [
        {
          "internalType": "uint256",
          "name": "",
          "type": "uint256"
        }
      ],
      "stateMutability": "view",
      "type": "function"
    },
    {
      "inputs": [],
      "name": "unlockStake",
      "outputs": [],
      "stateMutability": "nonpayable",
      "type": "function"
    },
    {
      "inputs": [],
      "name": "unlockTokenDeposit",
      "outputs": [],
      "stateMutability": "nonpayable",
      "type": "function"
    },
    {
      "inputs": [
        {
          "components": [
            {
              "internalType": "address",
              "name": "sender",
              "type": "address"
            },
            {
              "internalType": "uint256",
              "name": "nonce",
              "type": "uint256"
            },
            {
              "internalType": "bytes",
              "name": "initCode",
              "type": "bytes"
            },
            {
              "internalType": "bytes",
              "name": "callData",
              "type": "bytes"
            },
            {
              "internalType": "uint256",
              "name": "callGasLimit",
              "type": "uint256"
            },
            {
              "internalType": "uint256",
              "name": "verificationGasLimit",
              "type": "uint256"
            },
            {
              "internalType": "uint256",
              "name": "preVerificationGas",
              "type": "uint256"
            },
            {
              "internalType": "uint256",
              "name": "maxFeePerGas",
              "type": "uint256"
            },
            {
              "internalType": "uint256",
              "name": "maxPriorityFeePerGas",
              "type": "uint256"
            },
            {
              "internalType": "bytes",
              "name": "paymasterAndData",
              "type": "bytes"
            },
            {
              "internalType": "bytes",
              "name": "signature",
              "type": "bytes"
            }
          ],
          "internalType": "struct UserOperation",
          "name": "userOp",
          "type": "tuple"
        },
        {
          "internalType": "bytes32",
          "name": "userOpHash",
          "type": "bytes32"
        },
        {
          "internalType": "uint256",
          "name": "maxCost",
          "type": "uint256"
        }
      ],
      "name": "validatePaymasterUserOp",
      "outputs": [
        {
          "internalType": "bytes",
          "name": "context",
          "type": "bytes"
        },
        {
          "internalType": "uint256",
          "name": "validationData",
          "type": "uint256"
        }
      ],
      "stateMutability": "nonpayable",
      "type": "function"
    },
    {
      "inputs": [
        {
          "internalType": "address payable",
          "name": "withdrawAddress",
          "type": "address"
        }
      ],
      "name": "withdrawStake",
      "outputs": [],
      "stateMutability": "nonpayable",
      "type": "function"
    },
    {
      "inputs": [
        {
          "internalType": "address payable",
          "name": "withdrawAddress",
          "type": "address"
        },
        {
          "internalType": "uint256",
          "name": "amount",
          "type": "uint256"
        }
      ],
      "name": "withdrawTo",
      "outputs": [],
      "stateMutability": "nonpayable",
      "type": "function"
    },
    {
      "inputs": [
        {
          "internalType": "contract ERC20",
          "name": "token",
          "type": "address"
        },
        {
          "internalType": "address",
          "name": "target",
          "type": "address"
        },
        {
          "internalType": "uint256",
          "name": "amount",
          "type": "uint256"
        }
      ],
      "name": "withdrawTokensTo",
      "outputs": [],
      "stateMutability": "nonpayable",
      "type": "function"
    },
    {
      "stateMutability": "payable",
      "type": "receive"
    }
  ],
  "bytecode": "0x60a0604052614e206002553480156200001757600080fd5b50604051620028da380380620028da8339810160408190526200003a91620001a2565b816200004633620000b0565b6001600160a01b03166080526200005d81620000b0565b6200007c6000620000766000546001600160a01b031690565b62000100565b620000a87f2aeb38be3df14d720aeb10a2de6df09b0fb3cd5c5ec256283a22d4593110ca408262000100565b5050620001e1565b600080546001600160a01b038381166001600160a01b0319831681178455604051919092169283917f8be0079c531659141344cd1fd0a4f28419497f9722a3daafe3b4186f6b6457e09190a35050565b60008281526001602090815260408083206001600160a01b038516845290915290205460ff16620001855760008281526001602081815260408084206001600160a01b0386168086529252808420805460ff19169093179092559051339285917f2f8788117e7eff1d82e926ec794901d17c78024a50270940304540a733656f0d9190a45b5050565b6001600160a01b03811681146200019f57600080fd5b50565b60008060408385031215620001b657600080fd5b8251620001c38162000189565b6020840151909250620001d68162000189565b809150509250929050565b6080516126ac6200022e6000396000818161057b01528181610750015281816107e701528181610b5a01528181610bee01528181610c6501528181610dc9015261112701526126ac6000f3fe6080604052600436106101e75760003560e01c80639c90b44311610102578063c399ec8811610095578063d48bfca711610064578063d48bfca714610669578063d547741f14610689578063f2fde38b146106a9578063f465c77e146106c957600080fd5b8063c399ec881461060a578063cc9c837c1461061f578063cd8f80c21461063f578063d0e30db01461066157600080fd5b8063b0d691fe116100d1578063b0d691fe14610569578063bb9fe6bf1461059d578063c23a5cea146105b2578063c23f001f146105d257600080fd5b80639c90b443146104e35780639ed0fb6814610510578063a217fddf14610534578063a9a234091461054957600080fd5b80633c89c4901161017a578063715018a611610149578063715018a61461044e5780638da5cb5b1461046357806391d148541461049557806394d4ad60146104b557600080fd5b80633c89c49014610356578063493b0170146103865780634a6f84cf146103ed578063582abd121461041a57600080fd5b80632bfe737d116101b65780632bfe737d146102d65780632f2ff15d146102f657806336568abe14610316578063382edd9e1461033657600080fd5b806301ffc9a71461022d5780630396cb6014610262578063205c287814610277578063248a9ca31461029757600080fd5b366102285760405162461bcd60e51b815260206004820152600c60248201526b195d1a081c995a9958dd195960a21b60448201526064015b60405180910390fd5b600080fd5b34801561023957600080fd5b5061024d610248366004611e59565b6106f7565b60405190151581526020015b60405180910390f35b610275610270366004611e83565b61072e565b005b34801561028357600080fd5b50610275610292366004611ebe565b6107b9565b3480156102a357600080fd5b506102c86102b2366004611eea565b6000908152600160208190526040909120015490565b604051908152602001610259565b3480156102e257600080fd5b506102c86102f1366004611f1c565b61082b565b34801561030257600080fd5b50610275610311366004611f61565b610914565b34801561032257600080fd5b50610275610331366004611f61565b61093f565b34801561034257600080fd5b50610275610351366004611f91565b6109bd565b34801561036257600080fd5b5061024d610371366004611fd2565b60036020526000908152604090205460ff1681565b34801561039257600080fd5b506103d86103a1366004611fef565b6001600160a01b03918216600090815260046020908152604080832093909416825291825282812054600590925291909120549091565b60408051928352602083019190915201610259565b3480156103f957600080fd5b506102c8610408366004611fd2565b60056020526000908152604090205481565b34801561042657600080fd5b506102c87f2aeb38be3df14d720aeb10a2de6df09b0fb3cd5c5ec256283a22d4593110ca4081565b34801561045a57600080fd5b50610275610a8f565b34801561046f57600080fd5b506000546001600160a01b03165b6040516001600160a01b039091168152602001610259565b3480156104a157600080fd5b5061024d6104b0366004611f61565b610aa3565b3480156104c157600080fd5b506104d56104d036600461205f565b610ace565b6040516102599291906120f1565b3480156104ef57600080fd5b506102c86104fe366004611fd2565b60066020526000908152604090205481565b34801561051c57600080fd5b50610275336000908152600560205260409020439055565b34801561054057600080fd5b506102c8600081565b34801561055557600080fd5b5061027561056436600461212f565b610b36565b34801561057557600080fd5b5061047d7f000000000000000000000000000000000000000000000000000000000000000081565b3480156105a957600080fd5b50610275610b50565b3480156105be57600080fd5b506102756105cd366004611fd2565b610bc7565b3480156105de57600080fd5b506102c86105ed366004611fef565b600460209081526000928352604080842090915290825290205481565b34801561061657600080fd5b506102c8610c4d565b34801561062b57600080fd5b5061027561063a366004611f91565b610cdd565b34801561064b57600080fd5b5061027533600090815260056020526040812055565b610275610db4565b34801561067557600080fd5b50610275610684366004611fd2565b610e16565b34801561069557600080fd5b506102756106a4366004611f61565b610e68565b3480156106b557600080fd5b506102756106c4366004611fd2565b610e8e565b3480156106d557600080fd5b506106e96106e436600461218f565b610f07565b6040516102599291906121dd565b60006001600160e01b03198216637965db0b60e01b148061072857506301ffc9a760e01b6001600160e01b03198316145b92915050565b610736610f2b565b604051621cb65b60e51b815263ffffffff821660048201527f00000000000000000000000000000000000000000000000000000000000000006001600160a01b031690630396cb609034906024016000604051808303818588803b15801561079d57600080fd5b505af11580156107b1573d6000803e3d6000fd5b505050505050565b6107c1610f2b565b60405163040b850f60e31b81526001600160a01b038381166004830152602482018390527f0000000000000000000000000000000000000000000000000000000000000000169063205c287890604401600060405180830381600087803b15801561079d57600080fd5b60008235602084013561084160408601866121ff565b60405161084f929190612246565b60405190819003902061086560608701876121ff565b604051610873929190612246565b604080519182900382206001600160a01b03909516602083015281019290925260608201526080808201929092529084013560a08083019190915284013560c08083019190915284013560e08083019190915284013561010080830191909152840135610120820152466101408201523061016082015261018081018390526101a00160405160208183030381529060405280519060200120905092915050565b6000828152600160208190526040909120015461093081610f85565b61093a8383610f8f565b505050565b6001600160a01b03811633146109af5760405162461bcd60e51b815260206004820152602f60248201527f416363657373436f6e74726f6c3a2063616e206f6e6c792072656e6f756e636560448201526e103937b632b9903337b91039b2b63360891b606482015260840161021f565b6109b98282610ffa565b5050565b6109d26001600160a01b038416333084611061565b6001600160a01b03831660009081526003602052604090205460ff16610a2e5760405162461bcd60e51b81526020600482015260116024820152703ab739bab83837b93a32b2103a37b5b2b760791b604482015260640161021f565b6001600160a01b03808416600090815260046020908152604080832093861683529290529081208054839290610a6590849061226c565b90915550506001600160a01b038216330361093a5761093a33600090815260056020526040812055565b610a97610f2b565b610aa160006110cc565b565b60009182526001602090815260408084206001600160a01b0393909316845291905290205460ff1690565b60408051606081018252600080825260208201819052918101919091526060610afa836014818761227f565b810190610b0791906122bf565b604086019190915265ffffffffffff90911660208501526001600160a01b039091168352919491935090915050565b610b3e61111c565b610b4a8484848461118c565b50505050565b610b58610f2b565b7f00000000000000000000000000000000000000000000000000000000000000006001600160a01b031663bb9fe6bf6040518163ffffffff1660e01b8152600401600060405180830381600087803b158015610bb357600080fd5b505af1158015610b4a573d6000803e3d6000fd5b610bcf610f2b565b60405163611d2e7560e11b81526001600160a01b0382811660048301527f0000000000000000000000000000000000000000000000000000000000000000169063c23a5cea90602401600060405180830381600087803b158015610c3257600080fd5b505af1158015610c46573d6000803e3d6000fd5b5050505050565b6040516370a0823160e01b81523060048201526000907f00000000000000000000000000000000000000000000000000000000000000006001600160a01b0316906370a0823190602401602060405180830381865afa158015610cb4573d6000803e3d6000fd5b505050506040513d601f19601f82011682018060405250810190610cd891906123aa565b905090565b3360009081526005602052604090205415801590610d0957503360009081526005602052604090205443115b610d675760405162461bcd60e51b815260206004820152602960248201527f4465706f7369745061796d61737465723a206d75737420756e6c6f636b546f6b604482015268195b91195c1bdcda5d60ba1b606482015260840161021f565b6001600160a01b038316600090815260046020908152604080832033845290915281208054839290610d9a9084906123c3565b9091555061093a90506001600160a01b038416838361131c565b60405163b760faf960e01b81523060048201527f00000000000000000000000000000000000000000000000000000000000000006001600160a01b03169063b760faf99034906024016000604051808303818588803b158015610c3257600080fd5b610e1e610f2b565b6001600160a01b03811660009081526003602052604090205460ff1615610e4457600080fd5b6001600160a01b03166000908152600360205260409020805460ff19166001179055565b60008281526001602081905260409091200154610e8481610f85565b61093a8383610ffa565b610e96610f2b565b6001600160a01b038116610efb5760405162461bcd60e51b815260206004820152602660248201527f4f776e61626c653a206e6577206f776e657220697320746865207a65726f206160448201526564647265737360d01b606482015260840161021f565b610f04816110cc565b50565b60606000610f1361111c565b610f1e85858561134c565b915091505b935093915050565b6000546001600160a01b03163314610aa15760405162461bcd60e51b815260206004820181905260248201527f4f776e61626c653a2063616c6c6572206973206e6f7420746865206f776e6572604482015260640161021f565b610f048133611779565b610f998282610aa3565b6109b95760008281526001602081815260408084206001600160a01b0386168086529252808420805460ff19169093179092559051339285917f2f8788117e7eff1d82e926ec794901d17c78024a50270940304540a733656f0d9190a45050565b6110048282610aa3565b156109b95760008281526001602090815260408083206001600160a01b0385168085529252808320805460ff1916905551339285917ff6391f5c32d9c69d2a47ea670b442974b53935d1edc7fd64eb21e047a839171b9190a45050565b6040516001600160a01b0380851660248301528316604482015260648101829052610b4a9085906323b872dd60e01b906084015b60408051601f198184030181529190526020810180516001600160e01b03166001600160e01b0319909316929092179091526117d2565b600080546001600160a01b038381166001600160a01b0319831681178455604051919092169283917f8be0079c531659141344cd1fd0a4f28419497f9722a3daafe3b4186f6b6457e09190a35050565b336001600160a01b037f00000000000000000000000000000000000000000000000000000000000000001614610aa15760405162461bcd60e51b815260206004820152601560248201527414d95b99195c881b9bdd08115b9d1c9e541bda5b9d605a1b604482015260640161021f565b60008080808061119e878901896123d6565b945094509450945094506000808211156112c457816111bf6008600a61250c565b6111c9858a61226c565b6111d3919061251b565b6111dd9190612532565b6001600160a01b038086166000908152600460209081526040808320938a1683529290522054909150811161124e576001600160a01b038085166000908152600460209081526040808320938916835292905290812080548392906112439084906123c3565b909155506112639050565b6112636001600160a01b038516863084611061565b6001600160a01b0384166000908152600460205260408120829161128f6000546001600160a01b031690565b6001600160a01b03166001600160a01b0316815260200190815260200160002060008282546112be919061226c565b90915550505b604080516001600160a01b03861681526020810184905290810182905286907f652bee3205998d1f8c65b6c88839605bed2748c59d2b6e17bcfbc901b36a14fb9060600160405180910390a250505050505050505050565b6040516001600160a01b03831660248201526044810182905261093a90849063a9059cbb60e01b90606401611095565b60606000843581806113656104d06101208a018a6121ff565b6001600160a01b0385166000908152600560205260409020549193509150156113dc5760405162461bcd60e51b8152602060048201526024808201527f4465706f7369745061796d61737465723a206465706f736974206e6f74206c6f60448201526318dad95960e21b606482015260840161021f565b8051604014806113ed575080516041145b611461576040805162461bcd60e51b81526020600482015260248101919091527f566572696679696e675061796d61737465723a20696e76616c6964207369676e60448201527f6174757265206c656e67746820696e207061796d6173746572416e6444617461606482015260840161021f565b600060025461146f8a6118a4565b611479919061251b565b6040840151909150156115b057604083015160009061149a6008600a61250c565b6114a4848b61226c565b6114ae919061251b565b6114b89190612532565b84516001600160a01b039081166000908152600460209081526040808320938a16835292905220549091508111158061156257508351604051636eb1769f60e11b81526001600160a01b0387811660048301523060248301528392169063dd62ed3e90604401602060405180830381865afa15801561153b573d6000803e3d6000fd5b505050506040513d601f19601f8201168201806040525081019061155f91906123aa565b10155b6115ae5760405162461bcd60e51b815260206004820152601f60248201527f5061796d61737465723a206e6f7420656e6f75676820616c6c6f77616e636500604482015260640161021f565b505b600061167a6116278b86600001518760200151886040015160405160200161160c9392919060609390931b6bffffffffffffffffffffffff1916835260d09190911b6001600160d01b0319166014830152601a820152603a0190565b6040516020818303038152906040528051906020012061082b565b6040517f19457468657265756d205369676e6564204d6573736167653a0a3332000000006020820152603c8101829052600090605c01604051602081830303815290604052805190602001209050919050565b6001600160a01b038b351660009081526006602052604081208054929350906116a283612554565b909155506116d690507f2aeb38be3df14d720aeb10a2de6df09b0fb3cd5c5ec256283a22d4593110ca406104b083866118d3565b61170a576116eb6001856020015160006118f7565b6040518060200160405280600081525090965096505050505050610f23565b83516040808601518151602081018d90526001600160a01b03808a16938201939093529190921660608201526080810184905260a081019190915260c0016040516020818303038152906040526117686000866020015160006118f7565b965096505050505050935093915050565b6117838282610aa3565b6109b95761179081611931565b61179b836020611943565b6040516020016117ac92919061256d565b60408051601f198184030181529082905262461bcd60e51b825261021f916004016125e2565b6000611827826040518060400160405280602081526020017f5361666545524332303a206c6f772d6c6576656c2063616c6c206661696c6564815250856001600160a01b0316611adf9092919063ffffffff16565b80519091501561093a578080602001905181019061184591906125f5565b61093a5760405162461bcd60e51b815260206004820152602a60248201527f5361666545524332303a204552433230206f7065726174696f6e20646964206e6044820152691bdd081cdd58d8d9595960b21b606482015260840161021f565b600060e08201356101008301358082036118bf575092915050565b6118cb82488301611aee565b949350505050565b60008060006118e28585611b04565b915091506118ef81611b49565b509392505050565b600060d08265ffffffffffff16901b60a08465ffffffffffff16901b8561191f576000611922565b60015b60ff16171790505b9392505050565b60606107286001600160a01b03831660145b6060600061195283600261251b565b61195d90600261226c565b67ffffffffffffffff811115611975576119756122a9565b6040519080825280601f01601f19166020018201604052801561199f576020820181803683370190505b509050600360fc1b816000815181106119ba576119ba612617565b60200101906001600160f81b031916908160001a905350600f60fb1b816001815181106119e9576119e9612617565b60200101906001600160f81b031916908160001a9053506000611a0d84600261251b565b611a1890600161226c565b90505b6001811115611a90576f181899199a1a9b1b9c1cb0b131b232b360811b85600f1660108110611a4c57611a4c612617565b1a60f81b828281518110611a6257611a62612617565b60200101906001600160f81b031916908160001a90535060049490941c93611a898161262d565b9050611a1b565b50831561192a5760405162461bcd60e51b815260206004820181905260248201527f537472696e67733a20686578206c656e67746820696e73756666696369656e74604482015260640161021f565b60606118cb8484600085611c93565b6000818310611afd578161192a565b5090919050565b6000808251604103611b3a5760208301516040840151606085015160001a611b2e87828585611d5c565b94509450505050611b42565b506000905060025b9250929050565b6000816004811115611b5d57611b5d612644565b03611b655750565b6001816004811115611b7957611b79612644565b03611bc65760405162461bcd60e51b815260206004820152601860248201527f45434453413a20696e76616c6964207369676e61747572650000000000000000604482015260640161021f565b6002816004811115611bda57611bda612644565b03611c275760405162461bcd60e51b815260206004820152601f60248201527f45434453413a20696e76616c6964207369676e6174757265206c656e67746800604482015260640161021f565b6003816004811115611c3b57611c3b612644565b03610f045760405162461bcd60e51b815260206004820152602260248201527f45434453413a20696e76616c6964207369676e6174757265202773272076616c604482015261756560f01b606482015260840161021f565b6060843b611ce35760405162461bcd60e51b815260206004820152601d60248201527f416464726573733a2063616c6c20746f206e6f6e2d636f6e7472616374000000604482015260640161021f565b600080866001600160a01b03168587604051611cff919061265a565b60006040518083038185875af1925050503d8060008114611d3c576040519150601f19603f3d011682016040523d82523d6000602084013e611d41565b606091505b5091509150611d51828286611e20565b979650505050505050565b6000807f7fffffffffffffffffffffffffffffff5d576e7357a4501ddfe92f46681b20a0831115611d935750600090506003611e17565b6040805160008082526020820180845289905260ff881692820192909252606081018690526080810185905260019060a0016020604051602081039080840390855afa158015611de7573d6000803e3d6000fd5b5050604051601f1901519150506001600160a01b038116611e1057600060019250925050611e17565b9150600090505b94509492505050565b60608315611e2f57508161192a565b825115611e3f5782518084602001fd5b8160405162461bcd60e51b815260040161021f91906125e2565b600060208284031215611e6b57600080fd5b81356001600160e01b03198116811461192a57600080fd5b600060208284031215611e9557600080fd5b813563ffffffff8116811461192a57600080fd5b6001600160a01b0381168114610f0457600080fd5b60008060408385031215611ed157600080fd5b8235611edc81611ea9565b946020939093013593505050565b600060208284031215611efc57600080fd5b5035919050565b60006101608284031215611f1657600080fd5b50919050565b60008060408385031215611f2f57600080fd5b823567ffffffffffffffff811115611f4657600080fd5b611f5285828601611f03565b95602094909401359450505050565b60008060408385031215611f7457600080fd5b823591506020830135611f8681611ea9565b809150509250929050565b600080600060608486031215611fa657600080fd5b8335611fb181611ea9565b92506020840135611fc181611ea9565b929592945050506040919091013590565b600060208284031215611fe457600080fd5b813561192a81611ea9565b6000806040838503121561200257600080fd5b823561200d81611ea9565b91506020830135611f8681611ea9565b60008083601f84011261202f57600080fd5b50813567ffffffffffffffff81111561204757600080fd5b602083019150836020828501011115611b4257600080fd5b6000806020838503121561207257600080fd5b823567ffffffffffffffff81111561208957600080fd5b6120958582860161201d565b90969095509350505050565b60005b838110156120bc5781810151838201526020016120a4565b50506000910152565b600081518084526120dd8160208601602086016120a1565b601f01601f19169290920160200192915050565b60018060a01b03835116815265ffffffffffff6020840151166020820152604083015160408201526080606082015260006118cb60808301846120c5565b6000806000806060858703121561214557600080fd5b84356003811061215457600080fd5b9350602085013567ffffffffffffffff81111561217057600080fd5b61217c8782880161201d565b9598909750949560400135949350505050565b6000806000606084860312156121a457600080fd5b833567ffffffffffffffff8111156121bb57600080fd5b6121c786828701611f03565b9660208601359650604090950135949350505050565b6040815260006121f060408301856120c5565b90508260208301529392505050565b6000808335601e1984360301811261221657600080fd5b83018035915067ffffffffffffffff82111561223157600080fd5b602001915036819003821315611b4257600080fd5b8183823760009101908152919050565b634e487b7160e01b600052601160045260246000fd5b8082018082111561072857610728612256565b6000808585111561228f57600080fd5b8386111561229c57600080fd5b5050820193919092039150565b634e487b7160e01b600052604160045260246000fd5b600080600080608085870312156122d557600080fd5b84356122e081611ea9565b9350602085013565ffffffffffff811681146122fb57600080fd5b925060408501359150606085013567ffffffffffffffff8082111561231f57600080fd5b818701915087601f83011261233357600080fd5b813581811115612345576123456122a9565b604051601f8201601f19908116603f0116810190838211818310171561236d5761236d6122a9565b816040528281528a602084870101111561238657600080fd5b82602086016020830137600060208483010152809550505050505092959194509250565b6000602082840312156123bc57600080fd5b5051919050565b8181038181111561072857610728612256565b600080600080600060a086880312156123ee57600080fd5b85359450602086013561240081611ea9565b9350604086013561241081611ea9565b94979396509394606081013594506080013592915050565b600181815b8085111561246357816000190482111561244957612449612256565b8085161561245657918102915b93841c939080029061242d565b509250929050565b60008261247a57506001610728565b8161248757506000610728565b816001811461249d57600281146124a7576124c3565b6001915050610728565b60ff8411156124b8576124b8612256565b50506001821b610728565b5060208310610133831016604e8410600b84101617156124e6575081810a610728565b6124f08383612428565b806000190482111561250457612504612256565b029392505050565b600061192a60ff84168361246b565b808202811582820484141761072857610728612256565b60008261254f57634e487b7160e01b600052601260045260246000fd5b500490565b60006001820161256657612566612256565b5060010190565b7f416363657373436f6e74726f6c3a206163636f756e74200000000000000000008152600083516125a58160178501602088016120a1565b7001034b99036b4b9b9b4b733903937b6329607d1b60179184019182015283516125d68160288401602088016120a1565b01602801949350505050565b60208152600061192a60208301846120c5565b60006020828403121561260757600080fd5b8151801515811461192a57600080fd5b634e487b7160e01b600052603260045260246000fd5b60008161263c5761263c612256565b506000190190565b634e487b7160e01b600052602160045260246000fd5b6000825161266c8184602087016120a1565b919091019291505056fea2646970667358221220dc0cde86dfdc69476c39fcf7d4dea71b20e2c2d2e559492721595c68fa8bbaec64736f6c63430008110033",
  "linkReferences": {},
  "deployedLinkReferences": {}
}