{
  "_format": "hh-sol-artifact-1",
  "contractName": "SmartWalletV3",
  "sourceName": "contracts/base/SmartWalletV3.sol",
  "abi": [
    {
      "inputs": [
        {
          "internalType": "contract PriceOracle",
          "name": "_priceOracle",
          "type": "address"
        },
        {
          "internalType": "address",
          "name": "_blankOwner",
          "type": "address"
        },
        {
          "internalType": "contract IEntryPoint",
          "name": "entryPointInput",
          "type": "address"
        },
        {
          "internalType": "address",
          "name": "connectorRegistry",
          "type": "address"
        }
      ],
      "stateMutability": "nonpayable",
      "type": "constructor"
    },
    {
      "inputs": [],
      "name": "addDeposit",
      "outputs": [],
      "stateMutability": "payable",
      "type": "function"
    },
    {
      "inputs": [
        {
          "internalType": "address",
          "name": "guardian",
          "type": "address"
        }
      ],
      "name": "addGuardian",
      "outputs": [],
      "stateMutability": "nonpayable",
      "type": "function"
    },
    {
      "inputs": [
        {
          "internalType": "address",
          "name": "guardian",
          "type": "address"
        }
      ],
      "name": "addGuardianWA",
      "outputs": [],
      "stateMutability": "nonpayable",
      "type": "function"
    },
    {
      "inputs": [
        {
          "internalType": "address",
          "name": "addr",
          "type": "address"
        }
      ],
      "name": "addToWhitelist",
      "outputs": [],
      "stateMutability": "nonpayable",
      "type": "function"
    },
    {
      "inputs": [
        {
          "internalType": "address",
          "name": "addr",
          "type": "address"
        }
      ],
      "name": "addToWhitelistWA",
      "outputs": [],
      "stateMutability": "nonpayable",
      "type": "function"
    },
    {
      "inputs": [
        {
          "internalType": "address",
          "name": "executor",
          "type": "address"
        },
        {
          "internalType": "uint256",
          "name": "validUntil",
          "type": "uint256"
        }
      ],
      "name": "approveExecutor",
      "outputs": [],
      "stateMutability": "nonpayable",
      "type": "function"
    },
    {
      "inputs": [
        {
          "internalType": "address",
          "name": "token",
          "type": "address"
        },
        {
          "internalType": "address",
          "name": "to",
          "type": "address"
        },
        {
          "internalType": "uint256",
          "name": "amount",
          "type": "uint256"
        },
        {
          "internalType": "uint256",
          "name": "value",
          "type": "uint256"
        },
        {
          "internalType": "bytes",
          "name": "data",
          "type": "bytes"
        },
        {
          "internalType": "bool",
          "name": "forceUseQuota",
          "type": "bool"
        }
      ],
      "name": "approveThenCallContract",
      "outputs": [
        {
          "internalType": "bytes",
          "name": "",
          "type": "bytes"
        }
      ],
      "stateMutability": "nonpayable",
      "type": "function"
    },
    {
      "inputs": [
        {
          "internalType": "address",
          "name": "token",
          "type": "address"
        },
        {
          "internalType": "address",
          "name": "to",
          "type": "address"
        },
        {
          "internalType": "uint256",
          "name": "amount",
          "type": "uint256"
        },
        {
          "internalType": "uint256",
          "name": "value",
          "type": "uint256"
        },
        {
          "internalType": "bytes",
          "name": "data",
          "type": "bytes"
        }
      ],
      "name": "approveThenCallContractWA",
      "outputs": [
        {
          "internalType": "bytes",
          "name": "returnData",
          "type": "bytes"
        }
      ],
      "stateMutability": "nonpayable",
      "type": "function"
    },
    {
      "inputs": [
        {
          "internalType": "address",
          "name": "token",
          "type": "address"
        },
        {
          "internalType": "address",
          "name": "to",
          "type": "address"
        },
        {
          "internalType": "uint256",
          "name": "amount",
          "type": "uint256"
        },
        {
          "internalType": "bool",
          "name": "forceUseQuota",
          "type": "bool"
        }
      ],
      "name": "approveToken",
      "outputs": [],
      "stateMutability": "nonpayable",
      "type": "function"
    },
    {
      "inputs": [
        {
          "internalType": "address",
          "name": "token",
          "type": "address"
        },
        {
          "internalType": "address",
          "name": "to",
          "type": "address"
        },
        {
          "internalType": "uint256",
          "name": "amount",
          "type": "uint256"
        }
      ],
      "name": "approveTokenWA",
      "outputs": [],
      "stateMutability": "nonpayable",
      "type": "function"
    },
    {
      "inputs": [],
      "name": "blankOwner",
      "outputs": [
        {
          "internalType": "address",
          "name": "",
          "type": "address"
        }
      ],
      "stateMutability": "view",
      "type": "function"
    },
    {
      "inputs": [
        {
          "internalType": "address",
          "name": "to",
          "type": "address"
        },
        {
          "internalType": "uint256",
          "name": "value",
          "type": "uint256"
        },
        {
          "internalType": "bytes",
          "name": "data",
          "type": "bytes"
        },
        {
          "internalType": "bool",
          "name": "forceUseQuota",
          "type": "bool"
        }
      ],
      "name": "callContract",
      "outputs": [
        {
          "internalType": "bytes",
          "name": "",
          "type": "bytes"
        }
      ],
      "stateMutability": "nonpayable",
      "type": "function"
    },
    {
      "inputs": [
        {
          "internalType": "address",
          "name": "to",
          "type": "address"
        },
        {
          "internalType": "uint256",
          "name": "value",
          "type": "uint256"
        },
        {
          "internalType": "bytes",
          "name": "data",
          "type": "bytes"
        }
      ],
      "name": "callContractWA",
      "outputs": [
        {
          "internalType": "bytes",
          "name": "returnData",
          "type": "bytes"
        }
      ],
      "stateMutability": "nonpayable",
      "type": "function"
    },
    {
      "inputs": [
        {
          "internalType": "address[]",
          "name": "targets",
          "type": "address[]"
        },
        {
          "internalType": "bytes[]",
          "name": "datas",
          "type": "bytes[]"
        }
      ],
      "name": "castFromEntryPoint",
      "outputs": [],
      "stateMutability": "nonpayable",
      "type": "function"
    },
    {
      "inputs": [
        {
          "internalType": "address[]",
          "name": "targets",
          "type": "address[]"
        },
        {
          "internalType": "bytes[]",
          "name": "datas",
          "type": "bytes[]"
        }
      ],
      "name": "castFromExecutor",
      "outputs": [],
      "stateMutability": "nonpayable",
      "type": "function"
    },
    {
      "inputs": [
        {
          "internalType": "uint256",
          "name": "newQuota",
          "type": "uint256"
        }
      ],
      "name": "changeDailyQuota",
      "outputs": [],
      "stateMutability": "nonpayable",
      "type": "function"
    },
    {
      "inputs": [
        {
          "internalType": "uint256",
          "name": "newQuota",
          "type": "uint256"
        }
      ],
      "name": "changeDailyQuotaWA",
      "outputs": [],
      "stateMutability": "nonpayable",
      "type": "function"
    },
    {
      "inputs": [
        {
          "internalType": "address",
          "name": "newEntryPoint",
          "type": "address"
        }
      ],
      "name": "changeEntryPoint",
      "outputs": [],
      "stateMutability": "nonpayable",
      "type": "function"
    },
    {
      "inputs": [
        {
          "internalType": "address",
          "name": "newMasterCopy",
          "type": "address"
        }
      ],
      "name": "changeMasterCopy",
      "outputs": [],
      "stateMutability": "nonpayable",
      "type": "function"
    },
    {
      "inputs": [],
      "name": "domainSeparator",
      "outputs": [
        {
          "internalType": "bytes32",
          "name": "",
          "type": "bytes32"
        }
      ],
      "stateMutability": "view",
      "type": "function"
    },
    {
      "inputs": [],
      "name": "entryPoint",
      "outputs": [
        {
          "internalType": "contract IEntryPoint",
          "name": "",
          "type": "address"
        }
      ],
      "stateMutability": "view",
      "type": "function"
    },
    {
      "inputs": [],
      "name": "getCreationTimestamp",
      "outputs": [
        {
          "internalType": "uint64",
          "name": "",
          "type": "uint64"
        }
      ],
      "stateMutability": "view",
      "type": "function"
    },
    {
      "inputs": [],
      "name": "getDeposit",
      "outputs": [
        {
          "internalType": "uint256",
          "name": "",
          "type": "uint256"
        }
      ],
      "stateMutability": "view",
      "type": "function"
    },
    {
      "inputs": [
        {
          "internalType": "bool",
          "name": "includePendingAddition",
          "type": "bool"
        }
      ],
      "name": "getGuardians",
      "outputs": [
        {
          "components": [
            {
              "internalType": "address",
              "name": "addr",
              "type": "address"
            },
            {
              "internalType": "uint8",
              "name": "status",
              "type": "uint8"
            },
            {
              "internalType": "uint64",
              "name": "timestamp",
              "type": "uint64"
            }
          ],
          "internalType": "struct Guardian[]",
          "name": "",
          "type": "tuple[]"
        }
      ],
      "stateMutability": "view",
      "type": "function"
    },
    {
      "inputs": [],
      "name": "getMasterCopy",
      "outputs": [
        {
          "internalType": "address",
          "name": "",
          "type": "address"
        }
      ],
      "stateMutability": "view",
      "type": "function"
    },
    {
      "inputs": [],
      "name": "getNonce",
      "outputs": [
        {
          "internalType": "uint256",
          "name": "",
          "type": "uint256"
        }
      ],
      "stateMutability": "view",
      "type": "function"
    },
    {
      "inputs": [],
      "name": "getOwner",
      "outputs": [
        {
          "internalType": "address",
          "name": "",
          "type": "address"
        }
      ],
      "stateMutability": "view",
      "type": "function"
    },
    {
      "inputs": [
        {
          "internalType": "address",
          "name": "addr",
          "type": "address"
        }
      ],
      "name": "getWhitelistEffectiveTime",
      "outputs": [
        {
          "internalType": "uint256",
          "name": "",
          "type": "uint256"
        }
      ],
      "stateMutability": "view",
      "type": "function"
    },
    {
      "inputs": [
        {
          "internalType": "address",
          "name": "newOwner",
          "type": "address"
        },
        {
          "internalType": "address[]",
          "name": "newGuardians",
          "type": "address[]"
        }
      ],
      "name": "inherit",
      "outputs": [],
      "stateMutability": "nonpayable",
      "type": "function"
    },
    {
      "inputs": [
        {
          "internalType": "address",
          "name": "owner",
          "type": "address"
        },
        {
          "internalType": "address[]",
          "name": "guardians",
          "type": "address[]"
        },
        {
          "internalType": "uint256",
          "name": "quota",
          "type": "uint256"
        },
        {
          "internalType": "address",
          "name": "inheritor",
          "type": "address"
        },
        {
          "internalType": "address",
          "name": "feeRecipient",
          "type": "address"
        },
        {
          "internalType": "address",
          "name": "feeToken",
          "type": "address"
        },
        {
          "internalType": "uint256",
          "name": "feeAmount",
          "type": "uint256"
        }
      ],
      "name": "initialize",
      "outputs": [],
      "stateMutability": "nonpayable",
      "type": "function"
    },
    {
      "inputs": [
        {
          "internalType": "address",
          "name": "executor",
          "type": "address"
        }
      ],
      "name": "isExecutorOrOwner",
      "outputs": [
        {
          "internalType": "bool",
          "name": "",
          "type": "bool"
        }
      ],
      "stateMutability": "view",
      "type": "function"
    },
    {
      "inputs": [
        {
          "internalType": "address",
          "name": "addr",
          "type": "address"
        },
        {
          "internalType": "bool",
          "name": "includePendingAddition",
          "type": "bool"
        }
      ],
      "name": "isGuardian",
      "outputs": [
        {
          "internalType": "bool",
          "name": "",
          "type": "bool"
        }
      ],
      "stateMutability": "view",
      "type": "function"
    },
    {
      "inputs": [
        {
          "internalType": "bytes32",
          "name": "signHash",
          "type": "bytes32"
        },
        {
          "internalType": "bytes",
          "name": "signature",
          "type": "bytes"
        }
      ],
      "name": "isValidSignature",
      "outputs": [
        {
          "internalType": "bytes4",
          "name": "magicValue",
          "type": "bytes4"
        }
      ],
      "stateMutability": "view",
      "type": "function"
    },
    {
      "inputs": [
        {
          "internalType": "address",
          "name": "addr",
          "type": "address"
        }
      ],
      "name": "isWhitelisted",
      "outputs": [
        {
          "internalType": "bool",
          "name": "",
          "type": "bool"
        }
      ],
      "stateMutability": "view",
      "type": "function"
    },
    {
      "inputs": [],
      "name": "lock",
      "outputs": [],
      "stateMutability": "nonpayable",
      "type": "function"
    },
    {
      "inputs": [
        {
          "internalType": "address",
          "name": "",
          "type": "address"
        },
        {
          "internalType": "address",
          "name": "",
          "type": "address"
        },
        {
          "internalType": "uint256[]",
          "name": "",
          "type": "uint256[]"
        },
        {
          "internalType": "uint256[]",
          "name": "",
          "type": "uint256[]"
        },
        {
          "internalType": "bytes",
          "name": "",
          "type": "bytes"
        }
      ],
      "name": "onERC1155BatchReceived",
      "outputs": [
        {
          "internalType": "bytes4",
          "name": "",
          "type": "bytes4"
        }
      ],
      "stateMutability": "pure",
      "type": "function"
    },
    {
      "inputs": [
        {
          "internalType": "address",
          "name": "",
          "type": "address"
        },
        {
          "internalType": "address",
          "name": "",
          "type": "address"
        },
        {
          "internalType": "uint256",
          "name": "",
          "type": "uint256"
        },
        {
          "internalType": "uint256",
          "name": "",
          "type": "uint256"
        },
        {
          "internalType": "bytes",
          "name": "",
          "type": "bytes"
        }
      ],
      "name": "onERC1155Received",
      "outputs": [
        {
          "internalType": "bytes4",
          "name": "",
          "type": "bytes4"
        }
      ],
      "stateMutability": "pure",
      "type": "function"
    },
    {
      "inputs": [
        {
          "internalType": "address",
          "name": "",
          "type": "address"
        },
        {
          "internalType": "address",
          "name": "",
          "type": "address"
        },
        {
          "internalType": "uint256",
          "name": "",
          "type": "uint256"
        },
        {
          "internalType": "bytes",
          "name": "",
          "type": "bytes"
        }
      ],
      "name": "onERC721Received",
      "outputs": [
        {
          "internalType": "bytes4",
          "name": "",
          "type": "bytes4"
        }
      ],
      "stateMutability": "pure",
      "type": "function"
    },
    {
      "inputs": [],
      "name": "priceOracle",
      "outputs": [
        {
          "internalType": "contract PriceOracle",
          "name": "",
          "type": "address"
        }
      ],
      "stateMutability": "view",
      "type": "function"
    },
    {
      "inputs": [
        {
          "internalType": "address",
          "name": "newOwner",
          "type": "address"
        },
        {
          "internalType": "address[]",
          "name": "newGuardians",
          "type": "address[]"
        }
      ],
      "name": "recover",
      "outputs": [],
      "stateMutability": "nonpayable",
      "type": "function"
    },
    {
      "inputs": [
        {
          "internalType": "address",
          "name": "addr",
          "type": "address"
        }
      ],
      "name": "removeFromWhitelist",
      "outputs": [],
      "stateMutability": "nonpayable",
      "type": "function"
    },
    {
      "inputs": [
        {
          "internalType": "address",
          "name": "guardian",
          "type": "address"
        }
      ],
      "name": "removeGuardian",
      "outputs": [],
      "stateMutability": "nonpayable",
      "type": "function"
    },
    {
      "inputs": [
        {
          "internalType": "address",
          "name": "guardian",
          "type": "address"
        }
      ],
      "name": "removeGuardianWA",
      "outputs": [],
      "stateMutability": "nonpayable",
      "type": "function"
    },
    {
      "inputs": [
        {
          "internalType": "address[]",
          "name": "newGuardians",
          "type": "address[]"
        }
      ],
      "name": "resetGuardians",
      "outputs": [],
      "stateMutability": "nonpayable",
      "type": "function"
    },
    {
      "inputs": [
        {
          "internalType": "address[]",
          "name": "newGuardians",
          "type": "address[]"
        }
      ],
      "name": "resetGuardiansWA",
      "outputs": [],
      "stateMutability": "nonpayable",
      "type": "function"
    },
    {
      "inputs": [
        {
          "internalType": "bytes[]",
          "name": "data",
          "type": "bytes[]"
        }
      ],
      "name": "selfBatchCall",
      "outputs": [],
      "stateMutability": "nonpayable",
      "type": "function"
    },
    {
      "inputs": [
        {
          "internalType": "address",
          "name": "inheritor",
          "type": "address"
        },
        {
          "internalType": "uint32",
          "name": "waitingPeriod",
          "type": "uint32"
        }
      ],
      "name": "setInheritor",
      "outputs": [],
      "stateMutability": "nonpayable",
      "type": "function"
    },
    {
      "inputs": [
        {
          "internalType": "bytes4",
          "name": "interfaceId",
          "type": "bytes4"
        }
      ],
      "name": "supportsInterface",
      "outputs": [
        {
          "internalType": "bool",
          "name": "",
          "type": "bool"
        }
      ],
      "stateMutability": "pure",
      "type": "function"
    },
    {
      "inputs": [
        {
          "internalType": "address",
          "name": "_owner",
          "type": "address"
        }
      ],
      "name": "transferOwnership",
      "outputs": [],
      "stateMutability": "nonpayable",
      "type": "function"
    },
    {
      "inputs": [
        {
          "internalType": "address",
          "name": "token",
          "type": "address"
        },
        {
          "internalType": "address",
          "name": "to",
          "type": "address"
        },
        {
          "internalType": "uint256",
          "name": "amount",
          "type": "uint256"
        },
        {
          "internalType": "bytes",
          "name": "logdata",
          "type": "bytes"
        },
        {
          "internalType": "bool",
          "name": "forceUseQuota",
          "type": "bool"
        }
      ],
      "name": "transferToken",
      "outputs": [],
      "stateMutability": "nonpayable",
      "type": "function"
    },
    {
      "inputs": [
        {
          "internalType": "address",
          "name": "token",
          "type": "address"
        },
        {
          "internalType": "address",
          "name": "to",
          "type": "address"
        },
        {
          "internalType": "uint256",
          "name": "amount",
          "type": "uint256"
        },
        {
          "internalType": "bytes",
          "name": "logdata",
          "type": "bytes"
        }
      ],
      "name": "transferTokenWA",
      "outputs": [],
      "stateMutability": "nonpayable",
      "type": "function"
    },
    {
      "inputs": [
        {
          "internalType": "address",
          "name": "executor",
          "type": "address"
        }
      ],
      "name": "unApproveExecutor",
      "outputs": [],
      "stateMutability": "nonpayable",
      "type": "function"
    },
    {
      "inputs": [],
      "name": "unlock",
      "outputs": [],
      "stateMutability": "nonpayable",
      "type": "function"
    },
    {
      "inputs": [
        {
          "components": [
            {
              "internalType": "address",
              "name": "sender",
              "type": "address"
            },
            {
              "internalType": "uint256",
              "name": "nonce",
              "type": "uint256"
            },
            {
              "internalType": "bytes",
              "name": "initCode",
              "type": "bytes"
            },
            {
              "internalType": "bytes",
              "name": "callData",
              "type": "bytes"
            },
            {
              "internalType": "uint256",
              "name": "callGasLimit",
              "type": "uint256"
            },
            {
              "internalType": "uint256",
              "name": "verificationGasLimit",
              "type": "uint256"
            },
            {
              "internalType": "uint256",
              "name": "preVerificationGas",
              "type": "uint256"
            },
            {
              "internalType": "uint256",
              "name": "maxFeePerGas",
              "type": "uint256"
            },
            {
              "internalType": "uint256",
              "name": "maxPriorityFeePerGas",
              "type": "uint256"
            },
            {
              "internalType": "bytes",
              "name": "paymasterAndData",
              "type": "bytes"
            },
            {
              "internalType": "bytes",
              "name": "signature",
              "type": "bytes"
            }
          ],
          "internalType": "struct UserOperation",
          "name": "userOp",
          "type": "tuple"
        },
        {
          "internalType": "bytes32",
          "name": "userOpHash",
          "type": "bytes32"
        },
        {
          "internalType": "uint256",
          "name": "missingAccountFunds",
          "type": "uint256"
        }
      ],
      "name": "validateUserOp",
      "outputs": [
        {
          "internalType": "uint256",
          "name": "validationData",
          "type": "uint256"
        }
      ],
      "stateMutability": "nonpayable",
      "type": "function"
    },
    {
      "inputs": [],
      "name": "wallet",
      "outputs": [
        {
          "internalType": "address",
          "name": "owner",
          "type": "address"
        },
        {
          "internalType": "uint64",
          "name": "creationTimestamp",
          "type": "uint64"
        },
        {
          "internalType": "uint256",
          "name": "nonce",
          "type": "uint256"
        },
        {
          "internalType": "bool",
          "name": "locked",
          "type": "bool"
        },
        {
          "internalType": "address",
          "name": "inheritor",
          "type": "address"
        },
        {
          "internalType": "uint32",
          "name": "inheritWaitingPeriod",
          "type": "uint32"
        },
        {
          "internalType": "uint64",
          "name": "lastActive",
          "type": "uint64"
        },
        {
          "components": [
            {
              "internalType": "uint128",
              "name": "currentQuota",
              "type": "uint128"
            },
            {
              "internalType": "uint128",
              "name": "pendingQuota",
              "type": "uint128"
            },
            {
              "internalType": "uint128",
              "name": "spentAmount",
              "type": "uint128"
            },
            {
              "internalType": "uint64",
              "name": "spentTimestamp",
              "type": "uint64"
            },
            {
              "internalType": "uint64",
              "name": "pendingUntil",
              "type": "uint64"
            }
          ],
          "internalType": "struct Quota",
          "name": "quota",
          "type": "tuple"
        },
        {
          "internalType": "address",
          "name": "entryPoint",
          "type": "address"
        }
      ],
      "stateMutability": "view",
      "type": "function"
    },
    {
      "inputs": [
        {
          "internalType": "address payable",
          "name": "withdrawAddress",
          "type": "address"
        },
        {
          "internalType": "uint256",
          "name": "amount",
          "type": "uint256"
        }
      ],
      "name": "withdrawDepositTo",
      "outputs": [],
      "stateMutability": "nonpayable",
      "type": "function"
    },
    {
      "stateMutability": "payable",
      "type": "receive"
    }
  ],
  "bytecode": "0x6101206040523480156200001257600080fd5b50604051620040d6380380620040d6833981016040819052620000359162000192565b6000805460ff60a01b1916600160a01b1790556001600160a01b0380831660e0528116610100526040805160a081018252600e606082019081526d131bdbdc1c9a5b99d5d85b1b195d60921b608083015281528151808301835260058152640322e302e360dc1b6020828101919091528083019190915230928201929092528591859185918591620000d0916200211d620000f2821b17901c565b60805250506001600160a01b0391821660a0521660c05250620001fa92505050565b805180516020918201208183015180519083012060408085015181517f8b73c3c69bb8fe3d512ecc4cf759cc79239f7b179b0ffacaa9a75d522b39400f958101959095529084019290925260608301524660808301526001600160a01b031660a082015260009060c001604051602081830303815290604052805190602001209050919050565b6001600160a01b03811681146200018f57600080fd5b50565b60008060008060808587031215620001a957600080fd5b8451620001b68162000179565b6020860151909450620001c98162000179565b6040860151909350620001dc8162000179565b6060860151909250620001ef8162000179565b939692955090935050565b60805160a05160c05160e05161010051613e66620002706000396000611247015260006119350152600081816109a301528181611f600152611f8d0152600081816104a701528181610e780152818161171f015281816119a7015261208e015260008181610b6e01526122bf0152613e666000f3fe60806040526004361061036f5760003560e01c80638fdbd176116101c6578063d6bb65c2116100f7578063effbc49a11610095578063f2fde38b1161006f578063f2fde38b14610b3c578063f698da2514610b5c578063f83d08ba14610b90578063ff06ff5614610ba557600080fd5b8063effbc49a14610ad0578063f1b43ae414610af0578063f23a6e6114610b1057600080fd5b8063e4c98287116100d1578063e4c9828714610a3a578063e4fe570514610a5a578063e913d27814610a7a578063ecab718414610ab057600080fd5b8063d6bb65c2146109da578063e43252d7146109fa578063e4c3d6b214610a1a57600080fd5b8063b9806d9911610164578063c274298f1161013e578063c274298f14610944578063c399ec881461097c578063c948bb8a14610991578063d087d288146109c557600080fd5b8063b9806d99146108d8578063ba324ac6146108f8578063bc197c811461091857600080fd5b8063a526d83b116101a0578063a526d83b1461086e578063a69df4b51461088e578063ab0b90f8146108a3578063b0d691fe146108c357600080fd5b80638fdbd1761461080e5780639f4d88c61461082e578063a1d7876f1461084e57600080fd5b80634d44560d116102a05780637e45076f1161023e578063893d20e811610218578063893d20e8146107905780638962d66c146107ae5780638ab1d681146107ce5780638f22edf3146107ee57600080fd5b80637e45076f146107305780637e804c2b14610750578063851f388f1461077057600080fd5b8063714041561161027a57806371404156146106b057806371f16486146106d057806376ff3cd5146106f05780637de7edef1461071057600080fd5b80634d44560d146105ac57806350703cbc146105cc578063521eb273146105ec57600080fd5b80632e9feb791161030d5780633af32abf116102e75780633af32abf146105445780634a307f5e146105645780634a58db19146105845780634b02488f1461058c57600080fd5b80632e9feb79146104c957806335dfcdbd146104f65780633a871cdd1461051657600080fd5b806304e80e901161034957806304e80e90146103ff578063150b7a02146104315780631626ba7e146104755780632630c12f1461049557600080fd5b8063016f91b31461037b57806301ffc9a71461039d5780630206b440146103d257600080fd5b3661037657005b600080fd5b34801561038757600080fd5b5061039b610396366004612bfc565b610bc5565b005b3480156103a957600080fd5b506103bd6103b8366004612c53565b610c66565b60405190151581526020015b60405180910390f35b3480156103de57600080fd5b506103f26103ed366004612c7e565b610cd3565b6040516103c99190612c9b565b34801561040b57600080fd5b506000546001600160a01b03165b6040516001600160a01b0390911681526020016103c9565b34801561043d57600080fd5b5061045c61044c366004612e19565b630a85bd0160e11b949350505050565b6040516001600160e01b031990911681526020016103c9565b34801561048157600080fd5b5061045c610490366004612e84565b610d56565b3480156104a157600080fd5b506104197f000000000000000000000000000000000000000000000000000000000000000081565b3480156104d557600080fd5b506104e96104e4366004612f0b565b610de6565b6040516103c99190612fce565b34801561050257600080fd5b5061039b610511366004612fe1565b610ef9565b34801561052257600080fd5b50610536610531366004613035565b610f81565b6040519081526020016103c9565b34801561055057600080fd5b506103bd61055f366004613088565b610fa0565b34801561057057600080fd5b5061039b61057f366004613088565b610fad565b61039b610fd9565b34801561059857600080fd5b5061039b6105a7366004613088565b611040565b3480156105b857600080fd5b5061039b6105c73660046130a5565b6110be565b3480156105d857600080fd5b5061039b6105e7366004613088565b611144565b3480156105f857600080fd5b506001546002546004546007546040805160a0810182526008546001600160801b038082168352600160801b9182900481166020840152600954908116938301939093526001600160401b0390830481166060830152600160c01b9283900481166080830152600b5461069b976001600160a01b0380821698600160a01b92839004851698909760ff909116968282169693820463ffffffff1695910416921689565b6040516103c9999897969594939291906130d1565b3480156106bc57600080fd5b5061039b6106cb366004613088565b6111c8565b3480156106dc57600080fd5b5061039b6106eb36600461318d565b61122d565b3480156106fc57600080fd5b5061039b61070b3660046131f8565b611275565b34801561071c57600080fd5b5061039b61072b366004613088565b6112d9565b34801561073c57600080fd5b506104e961074b366004613239565b61137c565b34801561075c57600080fd5b506103bd61076b366004613088565b61141e565b34801561077c57600080fd5b5061039b61078b366004613288565b61142b565b34801561079c57600080fd5b506001546001600160a01b0316610419565b3480156107ba57600080fd5b5061039b6107c9366004613088565b61147f565b3480156107da57600080fd5b5061039b6107e9366004613088565b6114db565b3480156107fa57600080fd5b5061039b610809366004612bfc565b611540565b34801561081a57600080fd5b5061039b6108293660046132a1565b61159a565b34801561083a57600080fd5b506104e9610849366004613313565b611625565b34801561085a57600080fd5b506104e961086936600461338e565b6116cd565b34801561087a57600080fd5b5061039b610889366004613088565b6117a6565b34801561089a57600080fd5b5061039b61180b565b3480156108af57600080fd5b506103bd6108be36600461341d565b611880565b3480156108cf57600080fd5b5061041961190e565b3480156108e457600080fd5b5061039b6108f3366004613456565b611957565b34801561090457600080fd5b5061039b6109133660046134da565b611a13565b34801561092457600080fd5b5061045c61093336600461359a565b63bc197c8160e01b95945050505050565b34801561095057600080fd5b50600154600160a01b90046001600160401b03166040516001600160401b0390911681526020016103c9565b34801561098857600080fd5b50610536611a41565b34801561099d57600080fd5b506104197f000000000000000000000000000000000000000000000000000000000000000081565b3480156109d157600080fd5b50610536611abb565b3480156109e657600080fd5b5061039b6109f5366004613647565b611afa565b348015610a0657600080fd5b5061039b610a15366004613088565b611cb2565b348015610a2657600080fd5b5061039b610a35366004612bfc565b611d17565b348015610a4657600080fd5b5061039b610a553660046130a5565b611ddf565b348015610a6657600080fd5b5061039b610a7536600461318d565b611e09565b348015610a8657600080fd5b50610536610a95366004613088565b6001600160a01b03166000908152600a602052604090205490565b348015610abc57600080fd5b5061039b610acb366004613088565b611e1f565b348015610adc57600080fd5b5061039b610aeb366004612fe1565b611e7b565b348015610afc57600080fd5b5061039b610b0b366004613288565b611ef5565b348015610b1c57600080fd5b5061045c610b2b3660046136e8565b63f23a6e6160e01b95945050505050565b348015610b4857600080fd5b5061039b610b57366004613088565b611f52565b348015610b6857600080fd5b506105367f000000000000000000000000000000000000000000000000000000000000000081565b348015610b9c57600080fd5b5061039b611ffc565b348015610bb157600080fd5b5061039b610bc0366004613750565b612052565b610bec610bd061190e565b6001600160a01b0316336001600160a01b03161461012f6121a4565b610bf660016121b2565b60405163c6bff82f60e01b815273__$f2b404c7a7921a817074d8ac6ceaeaa10f$__9063c6bff82f90610c3290600190869086906004016137ec565b60006040518083038186803b158015610c4a57600080fd5b505af4158015610c5e573d6000803e3d6000fd5b505050505050565b60006001600160e01b03198216630b135d3f60e11b1480610c9757506001600160e01b031982166301ffc9a760e01b145b80610cb257506001600160e01b03198216630a85bd0160e11b145b80610ccd57506001600160e01b03198216630271189760e51b145b92915050565b6040516318d9ad7160e01b815260016004820152811515602482015260609073__$f2b404c7a7921a817074d8ac6ceaeaa10f$__906318d9ad7190604401600060405180830381865af4158015610d2e573d6000803e3d6000fd5b505050506040513d6000823e601f3d908101601f19168201604052610ccd9190810190613806565b604051637d631ea160e01b815260009073__$10eec49550acd1772927999070d00f4110$__90637d631ea190610d9e90600190630b135d3f60e11b90889088906004016138f0565b602060405180830381865af4158015610dbb573d6000803e3d6000fd5b505050506040513d601f19601f82011682018060405250810190610ddf919061391e565b9392505050565b6060610e3c33301480610e345750610dfc61190e565b6001600160a01b0316336001600160a01b03161480610e2557506001546001600160a01b031633145b8015610e34575060045460ff16155b6101306121a4565b610e4660016121b2565b60405163fc55b67960e01b815273__$3bae378ac7918f3ebcf5b9fa7c88dbf4c5$__9063fc55b67990610eaa906001907f0000000000000000000000000000000000000000000000000000000000000000908b908b908b908b908b90600401613964565b600060405180830381865af4158015610ec7573d6000803e3d6000fd5b505050506040513d6000823e601f3d908101601f19168201604052610eef91908101906139b4565b9695505050505050565b610f04610bd061190e565b610f0e60016121b2565b604051631b6b583560e21b815273__$763384fc16808d25871424ae9bfda46eaf$__90636dad60d490610f4c90600190879087908790600401613a21565b60006040518083038186803b158015610f6457600080fd5b505af4158015610f78573d6000803e3d6000fd5b50505050505050565b6000610f8b612217565b610f958484612286565b9050610ddf82612328565b6000610ccd600183612375565b610fc133301480610e345750610dfc61190e565b610fcb60016121b2565b610fd66001826123a7565b50565b610fe161190e565b60405163b760faf960e01b81523060048201526001600160a01b03919091169063b760faf99034906024016000604051808303818588803b15801561102557600080fd5b505af1158015611039573d6000803e3d6000fd5b5050505050565b61105433301480610e345750610dfc61190e565b61105e60016121b2565b6110746001600160a01b038216151560686121a4565b61109c816001600160a01b031661108961190e565b6001600160a01b031614156101336121a4565b600b80546001600160a01b0319166001600160a01b0392909216919091179055565b6110d233301480610e345750610dfc61190e565b6110dc60016121b2565b6110e461190e565b60405163040b850f60e31b81526001600160a01b03848116600483015260248201849052919091169063205c287890604401600060405180830381600087803b15801561113057600080fd5b505af1158015610c5e573d6000803e3d6000fd5b61114f610bd061190e565b61115960016121b2565b604051639b33693760e01b8152600160048201526001600160a01b038216602482015273__$006aea4b504c5b07945b39dcf137360784$__90639b336937906044015b60006040518083038186803b1580156111b457600080fd5b505af4158015611039573d6000803e3d6000fd5b6111dc33301480610e345750610dfc61190e565b6111e660016121b2565b60405163ee3da3e360e01b8152600160048201526001600160a01b038216602482015273__$f2b404c7a7921a817074d8ac6ceaeaa10f$__9063ee3da3e39060440161119c565b611238610bd061190e565b61124260016121b2565b61126f7f00000000000000000000000000000000000000000000000000000000000000008585858561241e565b50505050565b611280610bd061190e565b61128a60016121b2565b6040516376ff3cd560e01b81526001600160a01b038085166004830152831660248201526044810182905273__$3bae378ac7918f3ebcf5b9fa7c88dbf4c5$__906376ff3cd590606401610f4c565b6112e4610bd061190e565b6112ee60016121b2565b604051637de7edef60e01b81526001600160a01b038216600482015273__$ce61dfc130c455683cabe9b2f155077d2b$__90637de7edef9060240160006040518083038186803b15801561134157600080fd5b505af4158015611355573d6000803e3d6000fd5b5050600080546001600160a01b0319166001600160a01b0394909416939093179092555050565b6060611389610bd061190e565b61139360016121b2565b604051637e45076f60e01b815273__$3bae378ac7918f3ebcf5b9fa7c88dbf4c5$__90637e45076f906113d0908890889088908890600401613a4c565b600060405180830381865af41580156113ed573d6000803e3d6000fd5b505050506040513d6000823e601f3d908101601f1916820160405261141591908101906139b4565b95945050505050565b6000610ccd60018361260a565b611436610bd061190e565b61144060016121b2565b6040516399154f6360e01b8152600160048201526024810182905273__$01401a13a855a3a8506d84ffec976eac8a$__906399154f639060440161119c565b61148a610bd061190e565b61149460016121b2565b60405163064896d560e01b8152600160048201526001600160a01b038216602482015273__$f2b404c7a7921a817074d8ac6ceaeaa10f$__9063064896d59060440161119c565b6114ef33301480610e345750610dfc61190e565b6114f960016121b2565b604051639509eea560e01b8152600160048201526001600160a01b038216602482015273__$006aea4b504c5b07945b39dcf137360784$__90639509eea59060440161119c565b61155433301480610e345750610dfc61190e565b61155e60016121b2565b6040516328c8093560e01b815273__$f2b404c7a7921a817074d8ac6ceaeaa10f$__906328c8093590610c3290600190869086906004016137ec565b6115a5610bd061190e565b6115af60016121b2565b6040516347ede8bb60e11b815273__$3bae378ac7918f3ebcf5b9fa7c88dbf4c5$__90638fdbd176906115ee9088908890889088908890600401613a74565b60006040518083038186803b15801561160657600080fd5b505af415801561161a573d6000803e3d6000fd5b505050505050505050565b6060611632610bd061190e565b61163c60016121b2565b604051634fa6c46360e11b815273__$3bae378ac7918f3ebcf5b9fa7c88dbf4c5$__90639f4d88c69061167d908a908a908a908a908a908a90600401613aa8565b600060405180830381865af415801561169a573d6000803e3d6000fd5b505050506040513d6000823e601f3d908101601f191682016040526116c291908101906139b4565b979650505050505050565b60606116e333301480610e345750610dfc61190e565b6116ed60016121b2565b6040516315c2776760e11b815273__$3bae378ac7918f3ebcf5b9fa7c88dbf4c5$__90632b84eece90611755906001907f0000000000000000000000000000000000000000000000000000000000000000908d908d908d908d908d908d908d90600401613ae3565b600060405180830381865af4158015611772573d6000803e3d6000fd5b505050506040513d6000823e601f3d908101601f1916820160405261179a91908101906139b4565b98975050505050505050565b6117ba33301480610e345750610dfc61190e565b6117c460016121b2565b604051632e7637c560e21b8152600160048201526001600160a01b038216602482015273__$f2b404c7a7921a817074d8ac6ceaeaa10f$__9063b9d8df149060440161119c565b611816610bd061190e565b61182060016121b2565b6040516370bd420b60e11b81526001600482015273__$9cdd2bb4eb8fc7640330c31d87b546fc51$__9063e17a8416906024015b60006040518083038186803b15801561186c57600080fd5b505af415801561126f573d6000803e3d6000fd5b60405163a643b10760e01b8152600160048201526001600160a01b0383166024820152811515604482015260009073__$f2b404c7a7921a817074d8ac6ceaeaa10f$__9063a643b10790606401602060405180830381865af41580156118ea573d6000803e3d6000fd5b505050506040513d601f19601f82011682018060405250810190610ddf9190613b46565b600b546000906001600160a01b0316156119325750600b546001600160a01b031690565b507f000000000000000000000000000000000000000000000000000000000000000090565b61196b33301480610e345750610dfc61190e565b61197560016121b2565b60405163c5354f8b60e01b815273__$3bae378ac7918f3ebcf5b9fa7c88dbf4c5$__9063c5354f8b906119db906001907f0000000000000000000000000000000000000000000000000000000000000000908b908b908b908b908b908b90600401613b63565b60006040518083038186803b1580156119f357600080fd5b505af4158015611a07573d6000803e3d6000fd5b50505050505050505050565b611a2733301480610e345750610dfc61190e565b611a3160016121b2565b611a3d60018383612642565b5050565b6000611a4b61190e565b6040516370a0823160e01b81523060048201526001600160a01b0391909116906370a08231906024015b602060405180830381865afa158015611a92573d6000803e3d6000fd5b505050506040513d601f19601f82011682018060405250810190611ab69190613bbc565b905090565b6000611ac561190e565b604051631aab3f0d60e11b8152306004820152600060248201526001600160a01b0391909116906335567e1a90604401611a75565b600054611b1490600160a01b900460ff161561012d6121a4565b600154611b2d906001600160a01b0316156101326121a4565b611b446001600160a01b03891615156101316121a4565b600180546001600160401b034216600160a01b026001600160e01b03199091166001600160a01b038b1617178155604051635a79097d60e11b815273__$f2b404c7a7921a817074d8ac6ceaeaa10f$__9163b4f212fa91611bac91908b908b906004016137ec565b60006040518083038186803b158015611bc457600080fd5b505af4158015611bd8573d6000803e3d6000fd5b5050505084600014611bf157611bf1600186600061278d565b6001600160a01b03841615611c1057611c106001856301e13380612642565b6001600160a01b03831615801590611c285750600081115b15611ca8576040516317d5759960e31b81526001600160a01b038084166004830152841660248201526044810182905273__$3bae378ac7918f3ebcf5b9fa7c88dbf4c5$__9063beabacc89060640160006040518083038186803b158015611c8f57600080fd5b505af4158015611ca3573d6000803e3d6000fd5b505050505b5050505050505050565b611cc633301480610e345750610dfc61190e565b611cd060016121b2565b60405163f42a9d4160e01b8152600160048201526001600160a01b038216602482015273__$006aea4b504c5b07945b39dcf137360784$__9063f42a9d419060440161119c565b611d2b33301480610e345750610dfc61190e565b611d3560016121b2565b60005b81811015611dda57600030848484818110611d5557611d55613bd5565b9050602002810190611d679190613beb565b604051611d75929190613c31565b6000604051808303816000865af19150503d8060008114611db2576040519150601f19603f3d011682016040523d82523d6000602084013e611db7565b606091505b50509050611dc78161012c6121a4565b5080611dd281613c57565b915050611d38565b505050565b611df333301480610e345750610dfc61190e565b611dfd60016121b2565b611a3d600183836128c0565b611242611e1760013361260a565b6101356121a4565b611e2a610bd061190e565b611e3460016121b2565b60405163a786083960e01b8152600160048201526001600160a01b038216602482015273__$f2b404c7a7921a817074d8ac6ceaeaa10f$__9063a78608399060440161119c565b611eb7611e8661190e565b6001600160a01b0316336001600160a01b03161480611eaf57506007546001600160a01b031633145b6101346121a4565b60405163f7c204d760e01b815273__$d195895a99a0141cdef7bd4487c9956530$__9063f7c204d790610f4c90600190879087908790600401613a21565b611f0933301480610e345750610dfc61190e565b611f1360016121b2565b604051631ca45e2d60e31b8152600160048201526024810182905273__$01401a13a855a3a8506d84ffec976eac8a$__9063e522f1689060440161119c565b611fc3336001600160a01b037f000000000000000000000000000000000000000000000000000000000000000016148015611fbb57506001547f00000000000000000000000000000000000000000000000000000000000000006001600160a01b039081169116145b61012e6121a4565b611fda6001600160a01b03821615156101316121a4565b600180546001600160a01b0319166001600160a01b0392909216919091179055565b73__$9cdd2bb4eb8fc7640330c31d87b546fc51$__6377948593600161202061190e565b6040516001600160e01b031960e085901b16815260048101929092526001600160a01b03166024820152604401611854565b61206633301480610e345750610dfc61190e565b61207060016121b2565b604051633b39d10d60e01b8152600160048201526001600160a01b037f0000000000000000000000000000000000000000000000000000000000000000811660248301528086166044830152841660648201526084810183905281151560a482015273__$3bae378ac7918f3ebcf5b9fa7c88dbf4c5$__90633b39d10d9060c40160006040518083038186803b15801561210957600080fd5b505af4158015611ca8573d6000803e3d6000fd5b805180516020918201208183015180519083012060408085015181517f8b73c3c69bb8fe3d512ecc4cf759cc79239f7b179b0ffacaa9a75d522b39400f958101959095529084019290925260608301524660808301526001600160a01b031660a082015260009060c001604051602081830303815290604052805190602001209050919050565b81611a3d57611a3d8161293a565b60068101546001600160a01b0316158015906121ef575060068101546121ec9062278d0090600160c01b90046001600160401b0316613c70565b42115b15610fd65760060180546001600160c01b0316600160c01b426001600160401b031602179055565b61221f61190e565b6001600160a01b0316336001600160a01b0316146122845760405162461bcd60e51b815260206004820152601c60248201527f6163636f756e743a206e6f742066726f6d20456e747279506f696e740000000060448201526064015b60405180910390fd5b565b6040516332758eaf60e01b815260009073__$d0e4ddaec21cb00b77bf085277ea53b0c2$__906332758eaf906122e790600190879087907f000000000000000000000000000000000000000000000000000000000000000090600401613cc8565b602060405180830381865af4158015612304573d6000803e3d6000fd5b505050506040513d601f19601f82011682018060405250810190610ddf9190613bbc565b8015610fd657604051600090339060001990849084818181858888f193505050503d8060008114611039576040519150601f19603f3d011682016040523d82523d6000602084013e611039565b6001600160a01b0381166000908152600983016020526040812054801580159061239f5750428111155b949350505050565b6001600160a01b0381166000908152600b830160205260409020546124015760405162461bcd60e51b815260206004820152601060248201526f1d5b985c1c1c9bdd994819985a5b195960821b604482015260640161227b565b6001600160a01b03166000908152600b9091016020526040812055565b6001600160a01b0385166124745760405162461bcd60e51b815260206004820152601b60248201527f64697361626c656420636f6e6e6563746f722072656769737472790000000000604482015260640161227b565b828181146124b75760405162461bcd60e51b815260206004820152601060248201526f0c8d2cccccae4cadce840d8cadccee8d60831b604482015260640161227b565b6040516348fd3b9f60e11b81526001600160a01b038716906391fa773e906124e59088908890600401613ded565b602060405180830381865afa158015612502573d6000803e3d6000fd5b505050506040513d601f19601f820116820180604052508101906125269190613b46565b6125645760405162461bcd60e51b815260206004820152600f60248201526e3b30b634b21031b7b73732b1ba37b960891b604482015260640161227b565b60005b81811015610f78576125f786868381811061258457612584613bd5565b90506020020160208101906125999190613088565b8585848181106125ab576125ab613bd5565b90506020028101906125bd9190613beb565b8080601f01602080910402602001604051908101604052809392919081815260200183838082843760009201919091525061294a92505050565b508061260281613c57565b915050612567565b81546001600160a01b038281166000818152600b86016020526040812054909392909216149042108080611415575090949350505050565b6001600160a01b0382166126a25763ffffffff81161561269d5760405162461bcd60e51b81526020600482015260166024820152751253959053125117d5d05255125391d7d411549253d160521b604482015260640161227b565b6126f4565b62278d008163ffffffff1610156126f45760405162461bcd60e51b81526020600482015260166024820152751253959053125117d5d05255125391d7d411549253d160521b604482015260640161227b565b306001600160a01b0383160361273b5760405162461bcd60e51b815260206004820152600c60248201526b494e56414c49445f4152475360a01b604482015260640161227b565b600690920180546001600160401b034216600160c01b026001600160c01b0363ffffffff909516600160a01b026001600160c01b03199092166001600160a01b03909416939093171792909216179055565b6127a36001600160801b0383111561019a6121a4565b6ffffffffffffffffffffffffffffffffe1982016127c057600091505b60006127cb846129dd565b90508281101580156127dc57508215155b806127e5575080155b156127ef57600091505b600784016127fc82612a46565b81546fffffffffffffffffffffffffffffffff19166001600160801b039190911617815561282984612a46565b81546001600160801b03918216600160801b02911617815561284a83612ab3565b6001820180546001600160c01b0316600160c01b6001600160401b0393841681029190911791829055604080513081526020810189905291909204909216908201527ff4109b774ae6f56e72fe6cb9396e75bc9017595ac0797f852334dbd0db2fa5b69060600160405180910390a15050505050565b6001600160a01b0382166000908152600b84016020526040902054811161291a5760405162461bcd60e51b815260206004820152600e60248201526d185c1c1c9bdd994819985a5b195960921b604482015260640161227b565b6001600160a01b039091166000908152600b909201602052604090912055565b610fd681624c524360e81b612b1b565b60606001600160a01b0383166129935760405162461bcd60e51b815260206004820152600e60248201526d1d185c99d95d0b5a5b9d985b1a5960921b604482015260640161227b565b600080835160208501865af43d6040519250601f19601f6020830101168301604052808352806000602085013e8115600181036129d457816000803e816000fd5b50505092915050565b6040805160a08101825260078301546001600160801b038082168352600160801b91829004811660208401526008850154908116938301939093526001600160401b0390830481166060830152600160c01b9092049091166080820152600090610ccd90612b7e565b60006001600160801b03821115612aaf5760405162461bcd60e51b815260206004820152602760248201527f53616665436173743a2076616c756520646f65736e27742066697420696e20316044820152663238206269747360c81b606482015260840161227b565b5090565b60006001600160401b03821115612aaf5760405162461bcd60e51b815260206004820152602660248201527f53616665436173743a2076616c756520646f65736e27742066697420696e203660448201526534206269747360d01b606482015260840161227b565b62461bcd60e51b600090815260206004526007602452600a808404818106603090810160081b958390069590950190829004918206850160101b01602363ffffff0060e086901c160160181b0190930160c81b604481905260e883901c91606490fd5b60004282608001516001600160401b03161115612b9c578151612ba2565b81602001515b6001600160801b031692915050565b60008083601f840112612bc357600080fd5b5081356001600160401b03811115612bda57600080fd5b6020830191508360208260051b8501011115612bf557600080fd5b9250929050565b60008060208385031215612c0f57600080fd5b82356001600160401b03811115612c2557600080fd5b612c3185828601612bb1565b90969095509350505050565b6001600160e01b031981168114610fd657600080fd5b600060208284031215612c6557600080fd5b8135610ddf81612c3d565b8015158114610fd657600080fd5b600060208284031215612c9057600080fd5b8135610ddf81612c70565b602080825282518282018190526000919060409081850190868401855b82811015612cfc57815180516001600160a01b031685528681015160ff16878601528501516001600160401b03168585015260609093019290850190600101612cb8565b5091979650505050505050565b6001600160a01b0381168114610fd657600080fd5b8035612d2981612d09565b919050565b634e487b7160e01b600052604160045260246000fd5b604051606081016001600160401b0381118282101715612d6657612d66612d2e565b60405290565b604051601f8201601f191681016001600160401b0381118282101715612d9457612d94612d2e565b604052919050565b60006001600160401b03821115612db557612db5612d2e565b50601f01601f191660200190565b600082601f830112612dd457600080fd5b8135612de7612de282612d9c565b612d6c565b818152846020838601011115612dfc57600080fd5b816020850160208301376000918101602001919091529392505050565b60008060008060808587031215612e2f57600080fd5b8435612e3a81612d09565b93506020850135612e4a81612d09565b92506040850135915060608501356001600160401b03811115612e6c57600080fd5b612e7887828801612dc3565b91505092959194509250565b60008060408385031215612e9757600080fd5b8235915060208301356001600160401b03811115612eb457600080fd5b612ec085828601612dc3565b9150509250929050565b60008083601f840112612edc57600080fd5b5081356001600160401b03811115612ef357600080fd5b602083019150836020828501011115612bf557600080fd5b600080600080600060808688031215612f2357600080fd5b8535612f2e81612d09565b94506020860135935060408601356001600160401b03811115612f5057600080fd5b612f5c88828901612eca565b9094509250506060860135612f7081612c70565b809150509295509295909350565b60005b83811015612f99578181015183820152602001612f81565b50506000910152565b60008151808452612fba816020860160208601612f7e565b601f01601f19169290920160200192915050565b602081526000610ddf6020830184612fa2565b600080600060408486031215612ff657600080fd5b833561300181612d09565b925060208401356001600160401b0381111561301c57600080fd5b61302886828701612bb1565b9497909650939450505050565b60008060006060848603121561304a57600080fd5b83356001600160401b0381111561306057600080fd5b8401610160818703121561307357600080fd5b95602085013595506040909401359392505050565b60006020828403121561309a57600080fd5b8135610ddf81612d09565b600080604083850312156130b857600080fd5b82356130c381612d09565b946020939093013593505050565b60006101a08201905060018060a01b03808c1683526001600160401b03808c1660208501528a60408501528915156060850152818916608085015263ffffffff881660a085015280871660c08501526001600160801b0391508186511660e085015281602087015116610100850152816040870151166101208501528060608701511661014085015280608087015116610160850152505061317f6101808301846001600160a01b03169052565b9a9950505050505050505050565b600080600080604085870312156131a357600080fd5b84356001600160401b03808211156131ba57600080fd5b6131c688838901612bb1565b909650945060208701359150808211156131df57600080fd5b506131ec87828801612bb1565b95989497509550505050565b60008060006060848603121561320d57600080fd5b833561321881612d09565b9250602084013561322881612d09565b929592945050506040919091013590565b6000806000806060858703121561324f57600080fd5b843561325a81612d09565b93506020850135925060408501356001600160401b0381111561327c57600080fd5b6131ec87828801612eca565b60006020828403121561329a57600080fd5b5035919050565b6000806000806000608086880312156132b957600080fd5b85356132c481612d09565b945060208601356132d481612d09565b93506040860135925060608601356001600160401b038111156132f657600080fd5b61330288828901612eca565b969995985093965092949392505050565b60008060008060008060a0878903121561332c57600080fd5b863561333781612d09565b9550602087013561334781612d09565b9450604087013593506060870135925060808701356001600160401b0381111561337057600080fd5b61337c89828a01612eca565b979a9699509497509295939492505050565b600080600080600080600060c0888a0312156133a957600080fd5b87356133b481612d09565b965060208801356133c481612d09565b9550604088013594506060880135935060808801356001600160401b038111156133ed57600080fd5b6133f98a828b01612eca565b90945092505060a088013561340d81612c70565b8091505092959891949750929550565b6000806040838503121561343057600080fd5b823561343b81612d09565b9150602083013561344b81612c70565b809150509250929050565b60008060008060008060a0878903121561346f57600080fd5b863561347a81612d09565b9550602087013561348a81612d09565b94506040870135935060608701356001600160401b038111156134ac57600080fd5b6134b889828a01612eca565b90945092505060808701356134cc81612c70565b809150509295509295509295565b600080604083850312156134ed57600080fd5b82356134f881612d09565b9150602083013563ffffffff8116811461344b57600080fd5b60006001600160401b0382111561352a5761352a612d2e565b5060051b60200190565b600082601f83011261354557600080fd5b81356020613555612de283613511565b82815260059290921b8401810191818101908684111561357457600080fd5b8286015b8481101561358f5780358352918301918301613578565b509695505050505050565b600080600080600060a086880312156135b257600080fd5b85356135bd81612d09565b945060208601356135cd81612d09565b935060408601356001600160401b03808211156135e957600080fd5b6135f589838a01613534565b9450606088013591508082111561360b57600080fd5b61361789838a01613534565b9350608088013591508082111561362d57600080fd5b5061363a88828901612dc3565b9150509295509295909350565b60008060008060008060008060e0898b03121561366357600080fd5b883561366e81612d09565b975060208901356001600160401b0381111561368957600080fd5b6136958b828c01612bb1565b9098509650506040890135945060608901356136b081612d09565b935060808901356136c081612d09565b925060a08901356136d081612d09565b8092505060c089013590509295985092959890939650565b600080600080600060a0868803121561370057600080fd5b853561370b81612d09565b9450602086013561371b81612d09565b9350604086013592506060860135915060808601356001600160401b0381111561374457600080fd5b61363a88828901612dc3565b6000806000806080858703121561376657600080fd5b843561377181612d09565b9350602085013561378181612d09565b925060408501359150606085013561379881612c70565b939692955090935050565b8183526000602080850194508260005b858110156137e15781356137c681612d09565b6001600160a01b0316875295820195908201906001016137b3565b509495945050505050565b8381526040602082015260006114156040830184866137a3565b6000602080838503121561381957600080fd5b82516001600160401b038082111561383057600080fd5b818501915085601f83011261384457600080fd5b8151613852612de282613511565b8181526060918202840185019185820191908984111561387157600080fd5b948601945b838610156138e35780868b03121561388e5760008081fd5b613896612d44565b86516138a181612d09565b81528688015160ff811681146138b75760008081fd5b8189015260408781015187811681146138d05760008081fd5b9082015283529485019491860191613876565b5098975050505050505050565b84815263ffffffff60e01b84166020820152826040820152608060608201526000610eef6080830184612fa2565b60006020828403121561393057600080fd5b8151610ddf81612c3d565b81835281816020850137506000828201602090810191909152601f909101601f19169091010190565b8781526001600160a01b038781166020830152861660408201526060810185905260c06080820181905260009061399e908301858761393b565b905082151560a083015298975050505050505050565b6000602082840312156139c657600080fd5b81516001600160401b038111156139dc57600080fd5b8201601f810184136139ed57600080fd5b80516139fb612de282612d9c565b818152856020838501011115613a1057600080fd5b611415826020830160208601612f7e565b8481526001600160a01b0384166020820152606060408201819052600090610eef90830184866137a3565b60018060a01b0385168152836020820152606060408201526000610eef60608301848661393b565b6001600160a01b03868116825285166020820152604081018490526080606082018190526000906116c2908301848661393b565b6001600160a01b03878116825286166020820152604081018590526060810184905260a06080820181905260009061179a908301848661393b565b8981526001600160a01b0389811660208301528881166040830152871660608201526080810186905260a0810185905261010060c08201819052600090613b2d838201868861393b565b91505082151560e08301529a9950505050505050505050565b600060208284031215613b5857600080fd5b8151610ddf81612c70565b8881526001600160a01b0388811660208301528781166040830152861660608201526080810185905260e060a08201819052600090613ba5908301858761393b565b905082151560c08301529998505050505050505050565b600060208284031215613bce57600080fd5b5051919050565b634e487b7160e01b600052603260045260246000fd5b6000808335601e19843603018112613c0257600080fd5b8301803591506001600160401b03821115613c1c57600080fd5b602001915036819003821315612bf557600080fd5b8183823760009101908152919050565b634e487b7160e01b600052601160045260246000fd5b600060018201613c6957613c69613c41565b5060010190565b80820180821115610ccd57610ccd613c41565b6000808335601e19843603018112613c9a57600080fd5b83016020810192503590506001600160401b03811115613cb957600080fd5b803603821315612bf557600080fd5b84815260806020820152613cef60808201613ce286612d1e565b6001600160a01b03169052565b602084013560a08201526000613d086040860186613c83565b6101608060c0860152613d206101e08601838561393b565b9250613d2f6060890189613c83565b9250607f19808786030160e0880152613d4985858461393b565b9450610100935060808a013584880152610120915060a08a01358288015261014060c08b01358189015260e08b013584890152848b0135610180890152613d92838c018c613c83565b9550935081888703016101a0890152613dac86868661393b565b9550613dba818c018c613c83565b955093505080878603016101c08801525050613dd783838361393b565b6040860197909752505050506060015292915050565b60208082528181018390526000908460408401835b8681101561358f578235613e1581612d09565b6001600160a01b031682529183019190830190600101613e0256fea2646970667358221220dfaa3feb6ad18d124285c83925914e9a7cb7c5ecdcb94e9e59f7aefe62967a7264736f6c63430008110033",
  "linkReferences": {
    "contracts/base/libwallet/ApprovalLib.sol": {
      "ApprovalLib": [
        {
          "length": 20,
          "start": 9480
        }
      ]
    },
    "contracts/base/libwallet/ERC1271Lib.sol": {
      "ERC1271Lib": [
        {
          "length": 20,
          "start": 4056
        }
      ]
    },
    "contracts/base/libwallet/ERC20Lib.sol": {
      "ERC20Lib": [
        {
          "length": 20,
          "start": 4293
        },
        {
          "length": 20,
          "start": 5415
        },
        {
          "length": 20,
          "start": 5650
        },
        {
          "length": 20,
          "start": 6190
        },
        {
          "length": 20,
          "start": 6331
        },
        {
          "length": 20,
          "start": 6508
        },
        {
          "length": 20,
          "start": 7156
        },
        {
          "length": 20,
          "start": 7882
        },
        {
          "length": 20,
          "start": 9028
        }
      ]
    },
    "contracts/base/libwallet/GuardianLib.sol": {
      "GuardianLib": [
        {
          "length": 20,
          "start": 3701
        },
        {
          "length": 20,
          "start": 3940
        },
        {
          "length": 20,
          "start": 5243
        },
        {
          "length": 20,
          "start": 5929
        },
        {
          "length": 20,
          "start": 6109
        },
        {
          "length": 20,
          "start": 6745
        },
        {
          "length": 20,
          "start": 6944
        },
        {
          "length": 20,
          "start": 7665
        },
        {
          "length": 20,
          "start": 8393
        }
      ]
    },
    "contracts/base/libwallet/InheritanceLib.sol": {
      "InheritanceLib": [
        {
          "length": 20,
          "start": 8502
        }
      ]
    },
    "contracts/base/libwallet/LockLib.sol": {
      "LockLib": [
        {
          "length": 20,
          "start": 6822
        },
        {
          "length": 20,
          "start": 8814
        }
      ]
    },
    "contracts/base/libwallet/QuotaLib.sol": {
      "QuotaLib": [
        {
          "length": 20,
          "start": 5837
        },
        {
          "length": 20,
          "start": 8608
        }
      ]
    },
    "contracts/base/libwallet/RecoverLib.sol": {
      "RecoverLib": [
        {
          "length": 20,
          "start": 4493
        }
      ]
    },
    "contracts/base/libwallet/UpgradeLib.sol": {
      "UpgradeLib": [
        {
          "length": 20,
          "start": 5500
        }
      ]
    },
    "contracts/base/libwallet/WhitelistLib.sol": {
      "WhitelistLib": [
        {
          "length": 20,
          "start": 5102
        },
        {
          "length": 20,
          "start": 6030
        },
        {
          "length": 20,
          "start": 8037
        }
      ]
    }
  },
  "deployedLinkReferences": {
    "contracts/base/libwallet/ApprovalLib.sol": {
      "ApprovalLib": [
        {
          "length": 20,
          "start": 8856
        }
      ]
    },
    "contracts/base/libwallet/ERC1271Lib.sol": {
      "ERC1271Lib": [
        {
          "length": 20,
          "start": 3432
        }
      ]
    },
    "contracts/base/libwallet/ERC20Lib.sol": {
      "ERC20Lib": [
        {
          "length": 20,
          "start": 3669
        },
        {
          "length": 20,
          "start": 4791
        },
        {
          "length": 20,
          "start": 5026
        },
        {
          "length": 20,
          "start": 5566
        },
        {
          "length": 20,
          "start": 5707
        },
        {
          "length": 20,
          "start": 5884
        },
        {
          "length": 20,
          "start": 6532
        },
        {
          "length": 20,
          "start": 7258
        },
        {
          "length": 20,
          "start": 8404
        }
      ]
    },
    "contracts/base/libwallet/GuardianLib.sol": {
      "GuardianLib": [
        {
          "length": 20,
          "start": 3077
        },
        {
          "length": 20,
          "start": 3316
        },
        {
          "length": 20,
          "start": 4619
        },
        {
          "length": 20,
          "start": 5305
        },
        {
          "length": 20,
          "start": 5485
        },
        {
          "length": 20,
          "start": 6121
        },
        {
          "length": 20,
          "start": 6320
        },
        {
          "length": 20,
          "start": 7041
        },
        {
          "length": 20,
          "start": 7769
        }
      ]
    },
    "contracts/base/libwallet/InheritanceLib.sol": {
      "InheritanceLib": [
        {
          "length": 20,
          "start": 7878
        }
      ]
    },
    "contracts/base/libwallet/LockLib.sol": {
      "LockLib": [
        {
          "length": 20,
          "start": 6198
        },
        {
          "length": 20,
          "start": 8190
        }
      ]
    },
    "contracts/base/libwallet/QuotaLib.sol": {
      "QuotaLib": [
        {
          "length": 20,
          "start": 5213
        },
        {
          "length": 20,
          "start": 7984
        }
      ]
    },
    "contracts/base/libwallet/RecoverLib.sol": {
      "RecoverLib": [
        {
          "length": 20,
          "start": 3869
        }
      ]
    },
    "contracts/base/libwallet/UpgradeLib.sol": {
      "UpgradeLib": [
        {
          "length": 20,
          "start": 4876
        }
      ]
    },
    "contracts/base/libwallet/WhitelistLib.sol": {
      "WhitelistLib": [
        {
          "length": 20,
          "start": 4478
        },
        {
          "length": 20,
          "start": 5406
        },
        {
          "length": 20,
          "start": 7413
        }
      ]
    }
  }
}