{
  "_format": "hh-sol-artifact-1",
  "contractName": "SmartWalletV3",
  "sourceName": "contracts/base/SmartWalletV3.sol",
  "abi": [
    {
      "inputs": [
        {
          "internalType": "contract PriceOracle",
          "name": "_priceOracle",
          "type": "address"
        },
        {
          "internalType": "address",
          "name": "_blankOwner",
          "type": "address"
        },
        {
          "internalType": "contract IEntryPoint",
          "name": "entryPointInput",
          "type": "address"
        }
      ],
      "stateMutability": "nonpayable",
      "type": "constructor"
    },
    {
      "inputs": [],
      "name": "DOMAIN_SEPARATOR",
      "outputs": [
        {
          "internalType": "bytes32",
          "name": "",
          "type": "bytes32"
        }
      ],
      "stateMutability": "view",
      "type": "function"
    },
    {
      "inputs": [],
      "name": "addDeposit",
      "outputs": [],
      "stateMutability": "payable",
      "type": "function"
    },
    {
      "inputs": [
        {
          "internalType": "address",
          "name": "guardian",
          "type": "address"
        }
      ],
      "name": "addGuardian",
      "outputs": [],
      "stateMutability": "nonpayable",
      "type": "function"
    },
    {
      "inputs": [
        {
          "internalType": "address",
          "name": "guardian",
          "type": "address"
        }
      ],
      "name": "addGuardianWA",
      "outputs": [],
      "stateMutability": "nonpayable",
      "type": "function"
    },
    {
      "inputs": [
        {
          "internalType": "address",
          "name": "addr",
          "type": "address"
        }
      ],
      "name": "addToWhitelist",
      "outputs": [],
      "stateMutability": "nonpayable",
      "type": "function"
    },
    {
      "inputs": [
        {
          "internalType": "address",
          "name": "addr",
          "type": "address"
        }
      ],
      "name": "addToWhitelistWA",
      "outputs": [],
      "stateMutability": "nonpayable",
      "type": "function"
    },
    {
      "inputs": [
        {
          "internalType": "address",
          "name": "token",
          "type": "address"
        },
        {
          "internalType": "address",
          "name": "to",
          "type": "address"
        },
        {
          "internalType": "uint256",
          "name": "amount",
          "type": "uint256"
        },
        {
          "internalType": "uint256",
          "name": "value",
          "type": "uint256"
        },
        {
          "internalType": "bytes",
          "name": "data",
          "type": "bytes"
        },
        {
          "internalType": "bool",
          "name": "forceUseQuota",
          "type": "bool"
        }
      ],
      "name": "approveThenCallContract",
      "outputs": [
        {
          "internalType": "bytes",
          "name": "",
          "type": "bytes"
        }
      ],
      "stateMutability": "nonpayable",
      "type": "function"
    },
    {
      "inputs": [
        {
          "internalType": "address",
          "name": "token",
          "type": "address"
        },
        {
          "internalType": "address",
          "name": "to",
          "type": "address"
        },
        {
          "internalType": "uint256",
          "name": "amount",
          "type": "uint256"
        },
        {
          "internalType": "uint256",
          "name": "value",
          "type": "uint256"
        },
        {
          "internalType": "bytes",
          "name": "data",
          "type": "bytes"
        }
      ],
      "name": "approveThenCallContractWA",
      "outputs": [
        {
          "internalType": "bytes",
          "name": "returnData",
          "type": "bytes"
        }
      ],
      "stateMutability": "nonpayable",
      "type": "function"
    },
    {
      "inputs": [
        {
          "internalType": "address",
          "name": "token",
          "type": "address"
        },
        {
          "internalType": "address",
          "name": "to",
          "type": "address"
        },
        {
          "internalType": "uint256",
          "name": "amount",
          "type": "uint256"
        },
        {
          "internalType": "bool",
          "name": "forceUseQuota",
          "type": "bool"
        }
      ],
      "name": "approveToken",
      "outputs": [],
      "stateMutability": "nonpayable",
      "type": "function"
    },
    {
      "inputs": [
        {
          "internalType": "address",
          "name": "token",
          "type": "address"
        },
        {
          "internalType": "address",
          "name": "to",
          "type": "address"
        },
        {
          "internalType": "uint256",
          "name": "amount",
          "type": "uint256"
        }
      ],
      "name": "approveTokenWA",
      "outputs": [],
      "stateMutability": "nonpayable",
      "type": "function"
    },
    {
      "inputs": [],
      "name": "blankOwner",
      "outputs": [
        {
          "internalType": "address",
          "name": "",
          "type": "address"
        }
      ],
      "stateMutability": "view",
      "type": "function"
    },
    {
      "inputs": [
        {
          "internalType": "address",
          "name": "to",
          "type": "address"
        },
        {
          "internalType": "uint256",
          "name": "value",
          "type": "uint256"
        },
        {
          "internalType": "bytes",
          "name": "data",
          "type": "bytes"
        },
        {
          "internalType": "bool",
          "name": "forceUseQuota",
          "type": "bool"
        }
      ],
      "name": "callContract",
      "outputs": [
        {
          "internalType": "bytes",
          "name": "",
          "type": "bytes"
        }
      ],
      "stateMutability": "nonpayable",
      "type": "function"
    },
    {
      "inputs": [
        {
          "internalType": "address",
          "name": "to",
          "type": "address"
        },
        {
          "internalType": "uint256",
          "name": "value",
          "type": "uint256"
        },
        {
          "internalType": "bytes",
          "name": "data",
          "type": "bytes"
        }
      ],
      "name": "callContractWA",
      "outputs": [
        {
          "internalType": "bytes",
          "name": "returnData",
          "type": "bytes"
        }
      ],
      "stateMutability": "nonpayable",
      "type": "function"
    },
    {
      "inputs": [
        {
          "internalType": "uint256",
          "name": "newQuota",
          "type": "uint256"
        }
      ],
      "name": "changeDailyQuota",
      "outputs": [],
      "stateMutability": "nonpayable",
      "type": "function"
    },
    {
      "inputs": [
        {
          "internalType": "uint256",
          "name": "newQuota",
          "type": "uint256"
        }
      ],
      "name": "changeDailyQuotaWA",
      "outputs": [],
      "stateMutability": "nonpayable",
      "type": "function"
    },
    {
      "inputs": [
        {
          "internalType": "address",
          "name": "newEntryPoint",
          "type": "address"
        }
      ],
      "name": "changeEntryPoint",
      "outputs": [],
      "stateMutability": "nonpayable",
      "type": "function"
    },
    {
      "inputs": [
        {
          "internalType": "address",
          "name": "newMasterCopy",
          "type": "address"
        }
      ],
      "name": "changeMasterCopy",
      "outputs": [],
      "stateMutability": "nonpayable",
      "type": "function"
    },
    {
      "inputs": [],
      "name": "entryPoint",
      "outputs": [
        {
          "internalType": "contract IEntryPoint",
          "name": "",
          "type": "address"
        }
      ],
      "stateMutability": "view",
      "type": "function"
    },
    {
      "inputs": [],
      "name": "getCreationTimestamp",
      "outputs": [
        {
          "internalType": "uint64",
          "name": "",
          "type": "uint64"
        }
      ],
      "stateMutability": "view",
      "type": "function"
    },
    {
      "inputs": [],
      "name": "getDeposit",
      "outputs": [
        {
          "internalType": "uint256",
          "name": "",
          "type": "uint256"
        }
      ],
      "stateMutability": "view",
      "type": "function"
    },
    {
      "inputs": [
        {
          "internalType": "bool",
          "name": "includePendingAddition",
          "type": "bool"
        }
      ],
      "name": "getGuardians",
      "outputs": [
        {
          "components": [
            {
              "internalType": "address",
              "name": "addr",
              "type": "address"
            },
            {
              "internalType": "uint8",
              "name": "status",
              "type": "uint8"
            },
            {
              "internalType": "uint64",
              "name": "timestamp",
              "type": "uint64"
            }
          ],
          "internalType": "struct Guardian[]",
          "name": "",
          "type": "tuple[]"
        }
      ],
      "stateMutability": "view",
      "type": "function"
    },
    {
      "inputs": [],
      "name": "getMasterCopy",
      "outputs": [
        {
          "internalType": "address",
          "name": "",
          "type": "address"
        }
      ],
      "stateMutability": "view",
      "type": "function"
    },
    {
      "inputs": [],
      "name": "getNonce",
      "outputs": [
        {
          "internalType": "uint256",
          "name": "",
          "type": "uint256"
        }
      ],
      "stateMutability": "view",
      "type": "function"
    },
    {
      "inputs": [],
      "name": "getOwner",
      "outputs": [
        {
          "internalType": "address",
          "name": "",
          "type": "address"
        }
      ],
      "stateMutability": "view",
      "type": "function"
    },
    {
      "inputs": [
        {
          "internalType": "address",
          "name": "addr",
          "type": "address"
        }
      ],
      "name": "getWhitelistEffectiveTime",
      "outputs": [
        {
          "internalType": "uint256",
          "name": "",
          "type": "uint256"
        }
      ],
      "stateMutability": "view",
      "type": "function"
    },
    {
      "inputs": [
        {
          "internalType": "address",
          "name": "newOwner",
          "type": "address"
        },
        {
          "internalType": "address[]",
          "name": "newGuardians",
          "type": "address[]"
        }
      ],
      "name": "inherit",
      "outputs": [],
      "stateMutability": "nonpayable",
      "type": "function"
    },
    {
      "inputs": [
        {
          "internalType": "address",
          "name": "owner",
          "type": "address"
        },
        {
          "internalType": "address[]",
          "name": "guardians",
          "type": "address[]"
        },
        {
          "internalType": "uint256",
          "name": "quota",
          "type": "uint256"
        },
        {
          "internalType": "address",
          "name": "inheritor",
          "type": "address"
        },
        {
          "internalType": "address",
          "name": "feeRecipient",
          "type": "address"
        },
        {
          "internalType": "address",
          "name": "feeToken",
          "type": "address"
        },
        {
          "internalType": "uint256",
          "name": "feeAmount",
          "type": "uint256"
        }
      ],
      "name": "initialize",
      "outputs": [],
      "stateMutability": "nonpayable",
      "type": "function"
    },
    {
      "inputs": [
        {
          "internalType": "address",
          "name": "addr",
          "type": "address"
        },
        {
          "internalType": "bool",
          "name": "includePendingAddition",
          "type": "bool"
        }
      ],
      "name": "isGuardian",
      "outputs": [
        {
          "internalType": "bool",
          "name": "",
          "type": "bool"
        }
      ],
      "stateMutability": "view",
      "type": "function"
    },
    {
      "inputs": [
        {
          "internalType": "bytes32",
          "name": "signHash",
          "type": "bytes32"
        },
        {
          "internalType": "bytes",
          "name": "signature",
          "type": "bytes"
        }
      ],
      "name": "isValidSignature",
      "outputs": [
        {
          "internalType": "bytes4",
          "name": "magicValue",
          "type": "bytes4"
        }
      ],
      "stateMutability": "view",
      "type": "function"
    },
    {
      "inputs": [
        {
          "internalType": "address",
          "name": "addr",
          "type": "address"
        }
      ],
      "name": "isWhitelisted",
      "outputs": [
        {
          "internalType": "bool",
          "name": "",
          "type": "bool"
        }
      ],
      "stateMutability": "view",
      "type": "function"
    },
    {
      "inputs": [],
      "name": "lock",
      "outputs": [],
      "stateMutability": "nonpayable",
      "type": "function"
    },
    {
      "inputs": [
        {
          "internalType": "address",
          "name": "",
          "type": "address"
        },
        {
          "internalType": "address",
          "name": "",
          "type": "address"
        },
        {
          "internalType": "uint256[]",
          "name": "",
          "type": "uint256[]"
        },
        {
          "internalType": "uint256[]",
          "name": "",
          "type": "uint256[]"
        },
        {
          "internalType": "bytes",
          "name": "",
          "type": "bytes"
        }
      ],
      "name": "onERC1155BatchReceived",
      "outputs": [
        {
          "internalType": "bytes4",
          "name": "",
          "type": "bytes4"
        }
      ],
      "stateMutability": "pure",
      "type": "function"
    },
    {
      "inputs": [
        {
          "internalType": "address",
          "name": "",
          "type": "address"
        },
        {
          "internalType": "address",
          "name": "",
          "type": "address"
        },
        {
          "internalType": "uint256",
          "name": "",
          "type": "uint256"
        },
        {
          "internalType": "uint256",
          "name": "",
          "type": "uint256"
        },
        {
          "internalType": "bytes",
          "name": "",
          "type": "bytes"
        }
      ],
      "name": "onERC1155Received",
      "outputs": [
        {
          "internalType": "bytes4",
          "name": "",
          "type": "bytes4"
        }
      ],
      "stateMutability": "pure",
      "type": "function"
    },
    {
      "inputs": [
        {
          "internalType": "address",
          "name": "",
          "type": "address"
        },
        {
          "internalType": "address",
          "name": "",
          "type": "address"
        },
        {
          "internalType": "uint256",
          "name": "",
          "type": "uint256"
        },
        {
          "internalType": "bytes",
          "name": "",
          "type": "bytes"
        }
      ],
      "name": "onERC721Received",
      "outputs": [
        {
          "internalType": "bytes4",
          "name": "",
          "type": "bytes4"
        }
      ],
      "stateMutability": "pure",
      "type": "function"
    },
    {
      "inputs": [],
      "name": "priceOracle",
      "outputs": [
        {
          "internalType": "contract PriceOracle",
          "name": "",
          "type": "address"
        }
      ],
      "stateMutability": "view",
      "type": "function"
    },
    {
      "inputs": [
        {
          "internalType": "address",
          "name": "newOwner",
          "type": "address"
        },
        {
          "internalType": "address[]",
          "name": "newGuardians",
          "type": "address[]"
        }
      ],
      "name": "recover",
      "outputs": [],
      "stateMutability": "nonpayable",
      "type": "function"
    },
    {
      "inputs": [
        {
          "internalType": "address",
          "name": "addr",
          "type": "address"
        }
      ],
      "name": "removeFromWhitelist",
      "outputs": [],
      "stateMutability": "nonpayable",
      "type": "function"
    },
    {
      "inputs": [
        {
          "internalType": "address",
          "name": "guardian",
          "type": "address"
        }
      ],
      "name": "removeGuardian",
      "outputs": [],
      "stateMutability": "nonpayable",
      "type": "function"
    },
    {
      "inputs": [
        {
          "internalType": "address",
          "name": "guardian",
          "type": "address"
        }
      ],
      "name": "removeGuardianWA",
      "outputs": [],
      "stateMutability": "nonpayable",
      "type": "function"
    },
    {
      "inputs": [
        {
          "internalType": "address[]",
          "name": "newGuardians",
          "type": "address[]"
        }
      ],
      "name": "resetGuardians",
      "outputs": [],
      "stateMutability": "nonpayable",
      "type": "function"
    },
    {
      "inputs": [
        {
          "internalType": "address[]",
          "name": "newGuardians",
          "type": "address[]"
        }
      ],
      "name": "resetGuardiansWA",
      "outputs": [],
      "stateMutability": "nonpayable",
      "type": "function"
    },
    {
      "inputs": [
        {
          "internalType": "bytes[]",
          "name": "data",
          "type": "bytes[]"
        }
      ],
      "name": "selfBatchCall",
      "outputs": [],
      "stateMutability": "nonpayable",
      "type": "function"
    },
    {
      "inputs": [
        {
          "internalType": "address",
          "name": "inheritor",
          "type": "address"
        },
        {
          "internalType": "uint32",
          "name": "waitingPeriod",
          "type": "uint32"
        }
      ],
      "name": "setInheritor",
      "outputs": [],
      "stateMutability": "nonpayable",
      "type": "function"
    },
    {
      "inputs": [
        {
          "internalType": "bytes4",
          "name": "interfaceId",
          "type": "bytes4"
        }
      ],
      "name": "supportsInterface",
      "outputs": [
        {
          "internalType": "bool",
          "name": "",
          "type": "bool"
        }
      ],
      "stateMutability": "pure",
      "type": "function"
    },
    {
      "inputs": [
        {
          "internalType": "address",
          "name": "_owner",
          "type": "address"
        }
      ],
      "name": "transferOwnership",
      "outputs": [],
      "stateMutability": "nonpayable",
      "type": "function"
    },
    {
      "inputs": [
        {
          "internalType": "address",
          "name": "token",
          "type": "address"
        },
        {
          "internalType": "address",
          "name": "to",
          "type": "address"
        },
        {
          "internalType": "uint256",
          "name": "amount",
          "type": "uint256"
        },
        {
          "internalType": "bytes",
          "name": "logdata",
          "type": "bytes"
        },
        {
          "internalType": "bool",
          "name": "forceUseQuota",
          "type": "bool"
        }
      ],
      "name": "transferToken",
      "outputs": [],
      "stateMutability": "nonpayable",
      "type": "function"
    },
    {
      "inputs": [
        {
          "internalType": "address",
          "name": "token",
          "type": "address"
        },
        {
          "internalType": "address",
          "name": "to",
          "type": "address"
        },
        {
          "internalType": "uint256",
          "name": "amount",
          "type": "uint256"
        },
        {
          "internalType": "bytes",
          "name": "logdata",
          "type": "bytes"
        }
      ],
      "name": "transferTokenWA",
      "outputs": [],
      "stateMutability": "nonpayable",
      "type": "function"
    },
    {
      "inputs": [],
      "name": "unlock",
      "outputs": [],
      "stateMutability": "nonpayable",
      "type": "function"
    },
    {
      "inputs": [
        {
          "components": [
            {
              "internalType": "address",
              "name": "sender",
              "type": "address"
            },
            {
              "internalType": "uint256",
              "name": "nonce",
              "type": "uint256"
            },
            {
              "internalType": "bytes",
              "name": "initCode",
              "type": "bytes"
            },
            {
              "internalType": "bytes",
              "name": "callData",
              "type": "bytes"
            },
            {
              "internalType": "uint256",
              "name": "callGasLimit",
              "type": "uint256"
            },
            {
              "internalType": "uint256",
              "name": "verificationGasLimit",
              "type": "uint256"
            },
            {
              "internalType": "uint256",
              "name": "preVerificationGas",
              "type": "uint256"
            },
            {
              "internalType": "uint256",
              "name": "maxFeePerGas",
              "type": "uint256"
            },
            {
              "internalType": "uint256",
              "name": "maxPriorityFeePerGas",
              "type": "uint256"
            },
            {
              "internalType": "bytes",
              "name": "paymasterAndData",
              "type": "bytes"
            },
            {
              "internalType": "bytes",
              "name": "signature",
              "type": "bytes"
            }
          ],
          "internalType": "struct UserOperation",
          "name": "userOp",
          "type": "tuple"
        },
        {
          "internalType": "bytes32",
          "name": "userOpHash",
          "type": "bytes32"
        },
        {
          "internalType": "uint256",
          "name": "missingAccountFunds",
          "type": "uint256"
        }
      ],
      "name": "validateUserOp",
      "outputs": [
        {
          "internalType": "uint256",
          "name": "validationData",
          "type": "uint256"
        }
      ],
      "stateMutability": "nonpayable",
      "type": "function"
    },
    {
      "inputs": [],
      "name": "wallet",
      "outputs": [
        {
          "internalType": "address",
          "name": "owner",
          "type": "address"
        },
        {
          "internalType": "uint64",
          "name": "creationTimestamp",
          "type": "uint64"
        },
        {
          "internalType": "uint256",
          "name": "nonce",
          "type": "uint256"
        },
        {
          "internalType": "bool",
          "name": "locked",
          "type": "bool"
        },
        {
          "internalType": "address",
          "name": "inheritor",
          "type": "address"
        },
        {
          "internalType": "uint32",
          "name": "inheritWaitingPeriod",
          "type": "uint32"
        },
        {
          "internalType": "uint64",
          "name": "lastActive",
          "type": "uint64"
        },
        {
          "components": [
            {
              "internalType": "uint128",
              "name": "currentQuota",
              "type": "uint128"
            },
            {
              "internalType": "uint128",
              "name": "pendingQuota",
              "type": "uint128"
            },
            {
              "internalType": "uint128",
              "name": "spentAmount",
              "type": "uint128"
            },
            {
              "internalType": "uint64",
              "name": "spentTimestamp",
              "type": "uint64"
            },
            {
              "internalType": "uint64",
              "name": "pendingUntil",
              "type": "uint64"
            }
          ],
          "internalType": "struct Quota",
          "name": "quota",
          "type": "tuple"
        },
        {
          "internalType": "address",
          "name": "entryPoint",
          "type": "address"
        }
      ],
      "stateMutability": "view",
      "type": "function"
    },
    {
      "inputs": [
        {
          "internalType": "address payable",
          "name": "withdrawAddress",
          "type": "address"
        },
        {
          "internalType": "uint256",
          "name": "amount",
          "type": "uint256"
        }
      ],
      "name": "withdrawDepositTo",
      "outputs": [],
      "stateMutability": "nonpayable",
      "type": "function"
    },
    {
      "stateMutability": "payable",
      "type": "receive"
    }
  ],
  "bytecode": "0x6101006040523480156200001257600080fd5b5060405162005f9138038062005f91833981016040819052620000359162000183565b6000805460ff60a01b1916600160a01b1790556001600160a01b03811660e0526040805160a081018252600e606082019081526d131bdbdc1c9a5b99d5d85b1b195d60921b608083015281528151808301835260058152640322e302e360dc1b602082810191909152808301919091523092820192909252849184918491620000c8919062002786620000e8821b17901c565b608052506001600160a01b0391821660a0521660c05250620001d7915050565b805180516020918201208183015180519083012060409384015184517f8b73c3c69bb8fe3d512ecc4cf759cc79239f7b179b0ffacaa9a75d522b39400f818601528086019390935260608301919091524660808301526001600160a01b031660a0808301919091528351808303909101815260c0909101909252815191012090565b6001600160a01b03811681146200018057600080fd5b50565b6000806000606084860312156200019957600080fd5b8351620001a6816200016a565b6020850151909350620001b9816200016a565b6040850151909250620001cc816200016a565b809150509250925092565b60805160a05160c05160e051615d026200028f6000396000611c240152600081816108e501528181612505015261253201526000818161041501528181610d820152818161198a01528181611ce701526126f701526000818161049601528181612a5901528181612b2d01528181612c0101528181612cbe01528181612d3f01528181612e1301528181612ee701528181612fbb0152818161308f015281816131630152818161323701526133270152615d026000f3fe6080604052600436106102e85760003560e01c80638f22edf311610190578063c948bb8a116100dc578063ecab718411610095578063f23a6e611161006f578063f23a6e6114610a12578063f2fde38b14610a3e578063f83d08ba14610a5e578063ff06ff5614610a7357600080fd5b8063ecab7184146109b2578063effbc49a146109d2578063f1b43ae4146109f257600080fd5b8063c948bb8a146108d3578063d087d28814610907578063d6bb65c21461091c578063e43252d71461093c578063e4c3d6b21461095c578063e913d2781461097c57600080fd5b8063ab0b90f811610149578063ba324ac611610123578063ba324ac61461083a578063bc197c811461085a578063c274298f14610886578063c399ec88146108be57600080fd5b8063ab0b90f8146107e5578063b0d691fe14610805578063b9806d991461081a57600080fd5b80638f22edf3146107305780638fdbd176146107505780639f4d88c614610770578063a1d7876f14610790578063a526d83b146107b0578063a69df4b5146107d057600080fd5b80634a58db191161024f57806376ff3cd511610208578063851f388f116101e2578063851f388f146106b2578063893d20e8146106d25780638962d66c146106f05780638ab1d6811461071057600080fd5b806376ff3cd5146106525780637de7edef146106725780637e45076f1461069257600080fd5b80634a58db19146105065780634b02488f1461050e5780634d44560d1461052e57806350703cbc1461054e578063521eb2731461056e578063714041561461063257600080fd5b80632630c12f116102a15780632630c12f146104035780632e9feb791461043757806335dfcdbd146104645780633644e515146104845780633a871cdd146104c65780633af32abf146104e657600080fd5b8063016f91b3146102f457806301ffc9a7146103165780630206b4401461034b57806304e80e9014610378578063150b7a02146103aa5780631626ba7e146103e357600080fd5b366102ef57005b600080fd5b34801561030057600080fd5b5061031461030f36600461480a565b610a93565b005b34801561032257600080fd5b50610336610331366004614861565b610b4e565b60405190151581526020015b60405180910390f35b34801561035757600080fd5b5061036b61036636600461488c565b610bbb565b60405161034291906148a9565b34801561038457600080fd5b506000546001600160a01b03165b6040516001600160a01b039091168152602001610342565b3480156103b657600080fd5b506103ca6103c5366004614a39565b610c3e565b6040516001600160e01b03199091168152602001610342565b3480156103ef57600080fd5b506103ca6103fe366004614aa4565b610c4f565b34801561040f57600080fd5b506103927f000000000000000000000000000000000000000000000000000000000000000081565b34801561044357600080fd5b50610457610452366004614b2b565b610cdf565b6040516103429190614bee565b34801561047057600080fd5b5061031461047f366004614c01565b610e03565b34801561049057600080fd5b506104b87f000000000000000000000000000000000000000000000000000000000000000081565b604051908152602001610342565b3480156104d257600080fd5b506104b86104e1366004614c55565b610eb8565b3480156104f257600080fd5b50610336610501366004614ca8565b610ed7565b610314610ee4565b34801561051a57600080fd5b50610314610529366004614ca8565b610f4b565b34801561053a57600080fd5b50610314610549366004614cc5565b611081565b34801561055a57600080fd5b50610314610569366004614ca8565b611158565b34801561057a57600080fd5b506001546002546004546007546040805160a0810182526008546001600160801b038082168352600160801b9182900481166020840152600954908116938301939093526001600160401b0390830481166060830152600160c01b9283900481166080830152600b5461061d976001600160a01b0380821698600160a01b92839004851698909760ff909116968282169693820463ffffffff1695910416921689565b60405161034299989796959493929190614cf1565b34801561063e57600080fd5b5061031461064d366004614ca8565b611209565b34801561065e57600080fd5b5061031461066d366004614dad565b6112bf565b34801561067e57600080fd5b5061031461068d366004614ca8565b611350565b34801561069e57600080fd5b506104576106ad366004614dee565b611420565b3480156106be57600080fd5b506103146106cd366004614e49565b6114ef565b3480156106de57600080fd5b506001546001600160a01b0316610392565b3480156106fc57600080fd5b5061031461070b366004614ca8565b611570565b34801561071c57600080fd5b5061031461072b366004614ca8565b6115f9565b34801561073c57600080fd5b5061031461074b36600461480a565b6116af565b34801561075c57600080fd5b5061031461076b366004614e62565b61175a565b34801561077c57600080fd5b5061045761078b366004614ed4565b611812565b34801561079c57600080fd5b506104576107ab366004614f4f565b6118e7565b3480156107bc57600080fd5b506103146107cb366004614ca8565b611a11565b3480156107dc57600080fd5b50610314611ac7565b3480156107f157600080fd5b50610336610800366004614fde565b611b6f565b34801561081157600080fd5b50610392611bfd565b34801561082657600080fd5b50610314610835366004615017565b611c46565b34801561084657600080fd5b5061031461085536600461509b565b611d53565b34801561086657600080fd5b506103ca61087536600461515b565b63bc197c8160e01b95945050505050565b34801561089257600080fd5b50600154600160a01b90046001600160401b03166040516001600160401b039091168152602001610342565b3480156108ca57600080fd5b506104b8611dd2565b3480156108df57600080fd5b506103927f000000000000000000000000000000000000000000000000000000000000000081565b34801561091357600080fd5b506104b8611e4c565b34801561092857600080fd5b50610314610937366004615208565b611e8b565b34801561094857600080fd5b50610314610957366004614ca8565b6120f6565b34801561096857600080fd5b5061031461097736600461480a565b6121ac565b34801561098857600080fd5b506104b8610997366004614ca8565b6001600160a01b03166000908152600a602052604090205490565b3480156109be57600080fd5b506103146109cd366004614ca8565b6122fc565b3480156109de57600080fd5b506103146109ed366004614c01565b612385565b3480156109fe57600080fd5b50610314610a0d366004614e49565b61244c565b348015610a1e57600080fd5b506103ca610a2d3660046152a9565b63f23a6e6160e01b95945050505050565b348015610a4a57600080fd5b50610314610a59366004614ca8565b6124fa565b348015610a6a57600080fd5b50610314612614565b348015610a7f57600080fd5b50610314610a8e366004615311565b61266a565b610a9b611bfd565b6001600160a01b0316336001600160a01b031614610ad45760405162461bcd60e51b8152600401610acb90615364565b60405180910390fd5b610ade6001612808565b60405163c6bff82f60e01b815273__$f2b404c7a7921a817074d8ac6ceaeaa10f$__9063c6bff82f90610b1a90600190869086906004016153e4565b60006040518083038186803b158015610b3257600080fd5b505af4158015610b46573d6000803e3d6000fd5b505050505050565b60006001600160e01b03198216630b135d3f60e11b1480610b7f57506001600160e01b031982166301ffc9a760e01b145b80610b9a57506001600160e01b03198216630a85bd0160e11b145b80610bb557506001600160e01b03198216630271189760e51b145b92915050565b6040516318d9ad7160e01b815260016004820152811515602482015260609073__$f2b404c7a7921a817074d8ac6ceaeaa10f$__906318d9ad7190604401600060405180830381865af4158015610c16573d6000803e3d6000fd5b505050506040513d6000823e601f3d908101601f19168201604052610bb591908101906153fe565b630a85bd0160e11b5b949350505050565b604051637d631ea160e01b815260009073__$10eec49550acd1772927999070d00f4110$__90637d631ea190610c9790600190630b135d3f60e11b90889088906004016154e8565b602060405180830381865af4158015610cb4573d6000803e3d6000fd5b505050506040513d601f19601f82011682018060405250810190610cd89190615516565b9392505050565b606033301480610d2a5750610cf2611bfd565b6001600160a01b0316336001600160a01b03161480610d1b57506001546001600160a01b031633145b8015610d2a575060045460ff16155b610d465760405162461bcd60e51b8152600401610acb90615533565b610d506001612808565b60405163fc55b67960e01b815273__$3bae378ac7918f3ebcf5b9fa7c88dbf4c5$__9063fc55b67990610db4906001907f0000000000000000000000000000000000000000000000000000000000000000908b908b908b908b908b906004016155b2565b600060405180830381865af4158015610dd1573d6000803e3d6000fd5b505050506040513d6000823e601f3d908101601f19168201604052610df99190810190615602565b9695505050505050565b610e0b611bfd565b6001600160a01b0316336001600160a01b031614610e3b5760405162461bcd60e51b8152600401610acb90615364565b610e456001612808565b604051631b6b583560e21b815273__$763384fc16808d25871424ae9bfda46eaf$__90636dad60d490610e839060019087908790879060040161566f565b60006040518083038186803b158015610e9b57600080fd5b505af4158015610eaf573d6000803e3d6000fd5b50505050505050565b6000610ec2612870565b610ecc84846128da565b9050610cd882613585565b6000610bb56001836135d2565b610eec611bfd565b60405163b760faf960e01b81523060048201526001600160a01b03919091169063b760faf99034906024016000604051808303818588803b158015610f3057600080fd5b505af1158015610f44573d6000803e3d6000fd5b5050505050565b33301480610f945750610f5c611bfd565b6001600160a01b0316336001600160a01b03161480610f8557506001546001600160a01b031633145b8015610f94575060045460ff16155b610fb05760405162461bcd60e51b8152600401610acb90615533565b610fba6001612808565b6001600160a01b0381166110055760405162461bcd60e51b8152602060048201526012602482015271125395905312510811539514965413d2539560721b6044820152606401610acb565b806001600160a01b0316611017611bfd565b6001600160a01b03160361105f5760405162461bcd60e51b815260206004820152600f60248201526e14d053514811539514965413d25395608a1b6044820152606401610acb565b600b80546001600160a01b0319166001600160a01b0392909216919091179055565b333014806110ca5750611092611bfd565b6001600160a01b0316336001600160a01b031614806110bb57506001546001600160a01b031633145b80156110ca575060045460ff16155b6110e65760405162461bcd60e51b8152600401610acb90615533565b6110f06001612808565b6110f8611bfd565b60405163040b850f60e31b81526001600160a01b03848116600483015260248201849052919091169063205c287890604401600060405180830381600087803b15801561114457600080fd5b505af1158015610b46573d6000803e3d6000fd5b611160611bfd565b6001600160a01b0316336001600160a01b0316146111905760405162461bcd60e51b8152600401610acb90615364565b61119a6001612808565b604051639b33693760e01b8152600160048201526001600160a01b038216602482015273__$006aea4b504c5b07945b39dcf137360784$__90639b336937906044015b60006040518083038186803b1580156111f557600080fd5b505af4158015610f44573d6000803e3d6000fd5b33301480611252575061121a611bfd565b6001600160a01b0316336001600160a01b0316148061124357506001546001600160a01b031633145b8015611252575060045460ff16155b61126e5760405162461bcd60e51b8152600401610acb90615533565b6112786001612808565b60405163ee3da3e360e01b8152600160048201526001600160a01b038216602482015273__$f2b404c7a7921a817074d8ac6ceaeaa10f$__9063ee3da3e3906044016111dd565b6112c7611bfd565b6001600160a01b0316336001600160a01b0316146112f75760405162461bcd60e51b8152600401610acb90615364565b6113016001612808565b6040516376ff3cd560e01b81526001600160a01b038085166004830152831660248201526044810182905273__$3bae378ac7918f3ebcf5b9fa7c88dbf4c5$__906376ff3cd590606401610e83565b611358611bfd565b6001600160a01b0316336001600160a01b0316146113885760405162461bcd60e51b8152600401610acb90615364565b6113926001612808565b604051637de7edef60e01b81526001600160a01b038216600482015273__$ce61dfc130c455683cabe9b2f155077d2b$__90637de7edef9060240160006040518083038186803b1580156113e557600080fd5b505af41580156113f9573d6000803e3d6000fd5b5050600080546001600160a01b0319166001600160a01b0394909416939093179092555050565b606061142a611bfd565b6001600160a01b0316336001600160a01b03161461145a5760405162461bcd60e51b8152600401610acb90615364565b6114646001612808565b604051637e45076f60e01b815273__$3bae378ac7918f3ebcf5b9fa7c88dbf4c5$__90637e45076f906114a190889088908890889060040161569a565b600060405180830381865af41580156114be573d6000803e3d6000fd5b505050506040513d6000823e601f3d908101601f191682016040526114e69190810190615602565b95945050505050565b6114f7611bfd565b6001600160a01b0316336001600160a01b0316146115275760405162461bcd60e51b8152600401610acb90615364565b6115316001612808565b6040516399154f6360e01b8152600160048201526024810182905273__$01401a13a855a3a8506d84ffec976eac8a$__906399154f63906044016111dd565b611578611bfd565b6001600160a01b0316336001600160a01b0316146115a85760405162461bcd60e51b8152600401610acb90615364565b6115b26001612808565b60405163064896d560e01b8152600160048201526001600160a01b038216602482015273__$f2b404c7a7921a817074d8ac6ceaeaa10f$__9063064896d5906044016111dd565b33301480611642575061160a611bfd565b6001600160a01b0316336001600160a01b0316148061163357506001546001600160a01b031633145b8015611642575060045460ff16155b61165e5760405162461bcd60e51b8152600401610acb90615533565b6116686001612808565b604051639509eea560e01b8152600160048201526001600160a01b038216602482015273__$006aea4b504c5b07945b39dcf137360784$__90639509eea5906044016111dd565b333014806116f857506116c0611bfd565b6001600160a01b0316336001600160a01b031614806116e957506001546001600160a01b031633145b80156116f8575060045460ff16155b6117145760405162461bcd60e51b8152600401610acb90615533565b61171e6001612808565b6040516328c8093560e01b815273__$f2b404c7a7921a817074d8ac6ceaeaa10f$__906328c8093590610b1a90600190869086906004016153e4565b611762611bfd565b6001600160a01b0316336001600160a01b0316146117925760405162461bcd60e51b8152600401610acb90615364565b61179c6001612808565b6040516347ede8bb60e11b815273__$3bae378ac7918f3ebcf5b9fa7c88dbf4c5$__90638fdbd176906117db90889088908890889088906004016156c2565b60006040518083038186803b1580156117f357600080fd5b505af4158015611807573d6000803e3d6000fd5b505050505050505050565b606061181c611bfd565b6001600160a01b0316336001600160a01b03161461184c5760405162461bcd60e51b8152600401610acb90615364565b6118566001612808565b604051634fa6c46360e11b815273__$3bae378ac7918f3ebcf5b9fa7c88dbf4c5$__90639f4d88c690611897908a908a908a908a908a908a906004016156f6565b600060405180830381865af41580156118b4573d6000803e3d6000fd5b505050506040513d6000823e601f3d908101601f191682016040526118dc9190810190615602565b979650505050505050565b60603330148061193257506118fa611bfd565b6001600160a01b0316336001600160a01b0316148061192357506001546001600160a01b031633145b8015611932575060045460ff16155b61194e5760405162461bcd60e51b8152600401610acb90615533565b6119586001612808565b6040516315c2776760e11b815273__$3bae378ac7918f3ebcf5b9fa7c88dbf4c5$__90632b84eece906119c0906001907f0000000000000000000000000000000000000000000000000000000000000000908d908d908d908d908d908d908d90600401615731565b600060405180830381865af41580156119dd573d6000803e3d6000fd5b505050506040513d6000823e601f3d908101601f19168201604052611a059190810190615602565b98975050505050505050565b33301480611a5a5750611a22611bfd565b6001600160a01b0316336001600160a01b03161480611a4b57506001546001600160a01b031633145b8015611a5a575060045460ff16155b611a765760405162461bcd60e51b8152600401610acb90615533565b611a806001612808565b604051632e7637c560e21b8152600160048201526001600160a01b038216602482015273__$f2b404c7a7921a817074d8ac6ceaeaa10f$__9063b9d8df14906044016111dd565b611acf611bfd565b6001600160a01b0316336001600160a01b031614611aff5760405162461bcd60e51b8152600401610acb90615364565b611b096001612808565b6040516370bd420b60e11b81526001600482015273__$9cdd2bb4eb8fc7640330c31d87b546fc51$__9063e17a8416906024015b60006040518083038186803b158015611b5557600080fd5b505af4158015611b69573d6000803e3d6000fd5b50505050565b60405163a643b10760e01b8152600160048201526001600160a01b0383166024820152811515604482015260009073__$f2b404c7a7921a817074d8ac6ceaeaa10f$__9063a643b10790606401602060405180830381865af4158015611bd9573d6000803e3d6000fd5b505050506040513d601f19601f82011682018060405250810190610cd89190615794565b600b546000906001600160a01b031615611c215750600b546001600160a01b031690565b507f000000000000000000000000000000000000000000000000000000000000000090565b33301480611c8f5750611c57611bfd565b6001600160a01b0316336001600160a01b03161480611c8057506001546001600160a01b031633145b8015611c8f575060045460ff16155b611cab5760405162461bcd60e51b8152600401610acb90615533565b611cb56001612808565b60405163c5354f8b60e01b815273__$3bae378ac7918f3ebcf5b9fa7c88dbf4c5$__9063c5354f8b90611d1b906001907f0000000000000000000000000000000000000000000000000000000000000000908b908b908b908b908b908b906004016157b1565b60006040518083038186803b158015611d3357600080fd5b505af4158015611d47573d6000803e3d6000fd5b50505050505050505050565b33301480611d9c5750611d64611bfd565b6001600160a01b0316336001600160a01b03161480611d8d57506001546001600160a01b031633145b8015611d9c575060045460ff16155b611db85760405162461bcd60e51b8152600401610acb90615533565b611dc26001612808565b611dce60018383613601565b5050565b6000611ddc611bfd565b6040516370a0823160e01b81523060048201526001600160a01b0391909116906370a08231906024015b602060405180830381865afa158015611e23573d6000803e3d6000fd5b505050506040513d601f19601f82011682018060405250810190611e47919061580a565b905090565b6000611e56611bfd565b604051631aab3f0d60e11b8152306004820152600060248201526001600160a01b0391909116906335567e1a90604401611e06565b600054600160a01b900460ff1615611ef35760405162461bcd60e51b815260206004820152602560248201527f444953414c4c4f5745445f4f4e5f494d504c454d454e544154494f4e5f434f4e60448201526415149050d560da1b6064820152608401610acb565b6001546001600160a01b031615611f425760405162461bcd60e51b8152602060048201526013602482015272494e495449414c495a45445f414c524541445960681b6044820152606401610acb565b6001600160a01b038816611f885760405162461bcd60e51b815260206004820152600d60248201526c24a72b20a624a22fa7aba722a960991b6044820152606401610acb565b600180546001600160401b034216600160a01b026001600160e01b03199091166001600160a01b038b1617178155604051635a79097d60e11b815273__$f2b404c7a7921a817074d8ac6ceaeaa10f$__9163b4f212fa91611ff091908b908b906004016153e4565b60006040518083038186803b15801561200857600080fd5b505af415801561201c573d6000803e3d6000fd5b505050508460001461203557612035600186600061374c565b6001600160a01b03841615612054576120546001856301e13380613601565b6001600160a01b0383161580159061206c5750600081115b156120ec576040516317d5759960e31b81526001600160a01b038084166004830152841660248201526044810182905273__$3bae378ac7918f3ebcf5b9fa7c88dbf4c5$__9063beabacc89060640160006040518083038186803b1580156120d357600080fd5b505af41580156120e7573d6000803e3d6000fd5b505050505b5050505050505050565b3330148061213f5750612107611bfd565b6001600160a01b0316336001600160a01b0316148061213057506001546001600160a01b031633145b801561213f575060045460ff16155b61215b5760405162461bcd60e51b8152600401610acb90615533565b6121656001612808565b60405163f42a9d4160e01b8152600160048201526001600160a01b038216602482015273__$006aea4b504c5b07945b39dcf137360784$__9063f42a9d41906044016111dd565b333014806121f557506121bd611bfd565b6001600160a01b0316336001600160a01b031614806121e657506001546001600160a01b031633145b80156121f5575060045460ff16155b6122115760405162461bcd60e51b8152600401610acb90615533565b61221b6001612808565b60005b818110156122f75760003084848481811061223b5761223b615823565b905060200281019061224d9190615839565b60405161225b92919061587f565b6000604051808303816000865af19150503d8060008114612298576040519150601f19603f3d011682016040523d82523d6000602084013e61229d565b606091505b50509050806122e45760405162461bcd60e51b815260206004820152601360248201527210905510d2115117d0d0531317d19052531151606a1b6044820152606401610acb565b50806122ef816158a5565b91505061221e565b505050565b612304611bfd565b6001600160a01b0316336001600160a01b0316146123345760405162461bcd60e51b8152600401610acb90615364565b61233e6001612808565b60405163a786083960e01b8152600160048201526001600160a01b038216602482015273__$f2b404c7a7921a817074d8ac6ceaeaa10f$__9063a7860839906044016111dd565b61238d611bfd565b6001600160a01b0316336001600160a01b031614806123b657506007546001600160a01b031633145b61240e5760405162461bcd60e51b8152602060048201526024808201527f6163636f756e743a206e6f7420456e747279506f696e74206f7220696e68657260448201526334ba37b960e11b6064820152608401610acb565b60405163f7c204d760e01b815273__$d195895a99a0141cdef7bd4487c9956530$__9063f7c204d790610e839060019087908790879060040161566f565b33301480612495575061245d611bfd565b6001600160a01b0316336001600160a01b0316148061248657506001546001600160a01b031633145b8015612495575060045460ff16155b6124b15760405162461bcd60e51b8152600401610acb90615533565b6124bb6001612808565b604051631ca45e2d60e31b8152600160048201526024810182905273__$01401a13a855a3a8506d84ffec976eac8a$__9063e522f168906044016111dd565b336001600160a01b037f00000000000000000000000000000000000000000000000000000000000000001614801561256057506001547f00000000000000000000000000000000000000000000000000000000000000006001600160a01b039081169116145b6125ac5760405162461bcd60e51b815260206004820152601860248201527f4e4f545f414c4c4f5745445f544f5f5345545f4f574e455200000000000000006044820152606401610acb565b6001600160a01b0381166125f25760405162461bcd60e51b815260206004820152600d60248201526c24a72b20a624a22fa7aba722a960991b6044820152606401610acb565b600180546001600160a01b0319166001600160a01b0392909216919091179055565b73__$9cdd2bb4eb8fc7640330c31d87b546fc51$__63779485936001612638611bfd565b6040516001600160e01b031960e085901b16815260048101929092526001600160a01b03166024820152604401611b3d565b333014806126b3575061267b611bfd565b6001600160a01b0316336001600160a01b031614806126a457506001546001600160a01b031633145b80156126b3575060045460ff16155b6126cf5760405162461bcd60e51b8152600401610acb90615533565b6126d96001612808565b604051633b39d10d60e01b8152600160048201526001600160a01b037f0000000000000000000000000000000000000000000000000000000000000000811660248301528086166044830152841660648201526084810183905281151560a482015273__$3bae378ac7918f3ebcf5b9fa7c88dbf4c5$__90633b39d10d9060c40160006040518083038186803b15801561277257600080fd5b505af41580156120ec573d6000803e3d6000fd5b805180516020918201208183015180519083012060409384015184517f8b73c3c69bb8fe3d512ecc4cf759cc79239f7b179b0ffacaa9a75d522b39400f818601528086019390935260608301919091524660808301526001600160a01b031660a0808301919091528351808303909101815260c0909101909252815191012090565b60068101546001600160a01b031615801590612845575060068101546128429062278d0090600160c01b90046001600160401b03166158be565b42115b1561286d576006810180546001600160c01b0316600160c01b426001600160401b0316021790555b50565b612878611bfd565b6001600160a01b0316336001600160a01b0316146128d85760405162461bcd60e51b815260206004820152601c60248201527f6163636f756e743a206e6f742066726f6d20456e747279506f696e74000000006044820152606401610acb565b565b600080612934836040517f19457468657265756d205369676e6564204d6573736167653a0a3332000000006020820152603c8101829052600090605c01604051602081830303815290604052805190602001209050919050565b905060046129456060860186615839565b9050106134cb57600061299c8161295f6060880188615839565b8080601f01602080910402602001604051908101604052809392919081815260200183838082843760009201919091525092939250506138b09050565b90506129a7856138d3565b1561343a5760006129bb6060870187615839565b6129c99160049082906158d1565b8080601f0160208091040260200160405190810160405280939291908181526020018383808284376000920182905250939450839250612a10915050610140890189615839565b810190612a1d9190615995565b9092509050631da74a6560e21b6001600160e01b0319851601612af657600073__$f2b404c7a7921a817074d8ac6ceaeaa10f$__6397cc947c857f0000000000000000000000000000000000000000000000000000000000000000866040015187606001516040518563ffffffff1660e01b8152600401612aa19493929190615ab9565b602060405180830381865af4158015612abe573d6000803e3d6000fd5b505050506040513d601f19601f82011682018060405250810190612ae2919061580a565b9050612af2600182600286613a2c565b9650505b6304d5239f60e21b6001600160e01b0319851601612bca57600073__$f2b404c7a7921a817074d8ac6ceaeaa10f$__6354fd7759857f0000000000000000000000000000000000000000000000000000000000000000866040015187606001516040518563ffffffff1660e01b8152600401612b759493929190615ab9565b602060405180830381865af4158015612b92573d6000803e3d6000fd5b505050506040513d601f19601f82011682018060405250810190612bb6919061580a565b9050612bc6600182600286613a2c565b9650505b63fe906e4d60e01b6001600160e01b0319851601612c9e57600073__$f2b404c7a7921a817074d8ac6ceaeaa10f$__63092f2b64857f0000000000000000000000000000000000000000000000000000000000000000866040015187606001516040518563ffffffff1660e01b8152600401612c499493929190615ab9565b602060405180830381865af4158015612c66573d6000803e3d6000fd5b505050506040513d601f19601f82011682018060405250810190612c8a919061580a565b9050612c9a600182600286613a2c565b9650505b637ae0c77160e01b6001600160e01b0319851601612d08576000612cf4847f0000000000000000000000000000000000000000000000000000000000000000856040015165ffffffffffff168660600151613ae7565b9050612d04600182600286613a2c565b9650505b632be3f0d160e21b6001600160e01b0319851601612ddc57600073__$006aea4b504c5b07945b39dcf137360784$__63e8a8b781857f0000000000000000000000000000000000000000000000000000000000000000866040015187606001516040518563ffffffff1660e01b8152600401612d879493929190615ab9565b602060405180830381865af4158015612da4573d6000803e3d6000fd5b505050506040513d601f19601f82011682018060405250810190612dc8919061580a565b9050612dd8600182600286613a2c565b9650505b633812174560e11b6001600160e01b0319851601612eb057600073__$3bae378ac7918f3ebcf5b9fa7c88dbf4c5$__63372c7611857f0000000000000000000000000000000000000000000000000000000000000000866040015187606001516040518563ffffffff1660e01b8152600401612e5b9493929190615ab9565b602060405180830381865af4158015612e78573d6000803e3d6000fd5b505050506040513d601f19601f82011682018060405250810190612e9c919061580a565b9050612eac600182600286613a2c565b9650505b6381baf89160e01b6001600160e01b0319851601612f8457600073__$3bae378ac7918f3ebcf5b9fa7c88dbf4c5$__6320a2c843857f0000000000000000000000000000000000000000000000000000000000000000866040015187606001516040518563ffffffff1660e01b8152600401612f2f9493929190615ab9565b602060405180830381865af4158015612f4c573d6000803e3d6000fd5b505050506040513d601f19601f82011682018060405250810190612f70919061580a565b9050612f80600182600286613a2c565b9650505b638900c32b60e01b6001600160e01b031985160161305857600073__$3bae378ac7918f3ebcf5b9fa7c88dbf4c5$__631750aa53857f0000000000000000000000000000000000000000000000000000000000000000866040015187606001516040518563ffffffff1660e01b81526004016130039493929190615ab9565b602060405180830381865af4158015613020573d6000803e3d6000fd5b505050506040513d601f19601f82011682018060405250810190613044919061580a565b9050613054600182600286613a2c565b9650505b6330593b9d60e11b6001600160e01b031985160161312c57600073__$3bae378ac7918f3ebcf5b9fa7c88dbf4c5$__63f521e72f857f0000000000000000000000000000000000000000000000000000000000000000866040015187606001516040518563ffffffff1660e01b81526004016130d79493929190615ab9565b602060405180830381865af41580156130f4573d6000803e3d6000fd5b505050506040513d601f19601f82011682018060405250810190613118919061580a565b9050613128600182600286613a2c565b9650505b6359620b4b60e01b6001600160e01b031985160161320057600073__$9cdd2bb4eb8fc7640330c31d87b546fc51$__6328f7cb93857f0000000000000000000000000000000000000000000000000000000000000000866040015187606001516040518563ffffffff1660e01b81526004016131ab9493929190615ab9565b602060405180830381865af41580156131c8573d6000803e3d6000fd5b505050506040513d601f19601f820116820180604052508101906131ec919061580a565b90506131fc600182600286613a2c565b9650505b638218121160e01b6001600160e01b03198516016132d457600073__$ce61dfc130c455683cabe9b2f155077d2b$__6397f3ebd4857f0000000000000000000000000000000000000000000000000000000000000000866040015187606001516040518563ffffffff1660e01b815260040161327f9493929190615ab9565b602060405180830381865af415801561329c573d6000803e3d6000fd5b505050506040513d601f19601f820116820180604052508101906132c0919061580a565b90506132d0600182600286613a2c565b9650505b63ca20324360e01b6001600160e01b03198516016133e757600080848060200190518101906133039190615af0565b91509150600073__$763384fc16808d25871424ae9bfda46eaf$__63a0927da384847f000000000000000000000000000000000000000000000000000000000000000089604001518a606001516040518663ffffffff1660e01b8152600401613370959493929190615ba0565b602060405180830381865af415801561338d573d6000803e3d6000fd5b505050506040513d601f19601f820116820180604052508101906133b1919061580a565b90506133c1600182600088613a2c565b98506133ce888486613b6f565b6133e357600198505050505050505050610bb5565b5050505b6001600160e01b031984166335dfcdbd60e01b1480159061341d575060015461341b9086906001600160a01b031683613b6f565b155b1561343057600195505050505050610bb5565b5050505050610bb5565b6308021db360e11b6001600160e01b03198216016134c9576007546134ae906001600160a01b0316613470610140880188615839565b8080601f016020809104026020016040519081016040528093929190818152602001838380828437600092019190915250879493925050613b6f9050565b156134be57600092505050610bb5565b600192505050610bb5565b505b60045460ff16156135115760405162461bcd60e51b815260206004820152601060248201526f1dd85b1b195d081a5cc81b1bd8dad95960821b6044820152606401610acb565b60015461356d906001600160a01b031661352f610140870187615839565b8080601f016020809104026020016040519081016040528093929190818152602001838380828437600092019190915250869493925050613b6f9050565b61357b576001915050610bb5565b5060009392505050565b801561286d57604051600090339060001990849084818181858888f193505050503d8060008114610f44576040519150601f19603f3d011682016040523d82523d6000602084013e610f44565b6001600160a01b03811660009081526009830160205260408120548015801590610c4757504210159392505050565b6001600160a01b0382166136615763ffffffff81161561365c5760405162461bcd60e51b81526020600482015260166024820152751253959053125117d5d05255125391d7d411549253d160521b6044820152606401610acb565b6136b3565b62278d008163ffffffff1610156136b35760405162461bcd60e51b81526020600482015260166024820152751253959053125117d5d05255125391d7d411549253d160521b6044820152606401610acb565b306001600160a01b038316036136fa5760405162461bcd60e51b815260206004820152600c60248201526b494e56414c49445f4152475360a01b6044820152606401610acb565b600690920180546001600160401b034216600160c01b026001600160c01b0363ffffffff909516600160a01b026001600160c01b03199092166001600160a01b03909416939093171792909216179055565b6001600160801b038211156137935760405162461bcd60e51b815260206004820152600d60248201526c494e56414c49445f56414c554560981b6044820152606401610acb565b6ffffffffffffffffffffffffffffffffe1982016137b057600091505b60006137bb84613bb8565b90508281101580156137cc57508215155b806137d5575080155b156137df57600091505b600784016137ec82613c21565b81546fffffffffffffffffffffffffffffffff19166001600160801b039190911617815561381984613c21565b81546001600160801b03918216600160801b02911617815561383a83613c8a565b6001820180546001600160c01b0316600160c01b6001600160401b0393841681029190911791829055604080513081526020810189905291909204909216908201527ff4109b774ae6f56e72fe6cb9396e75bc9017595ac0797f852334dbd0db2fa5b69060600160405180910390a15050505050565b60006138bd8260046158be565b835110156138ca57600080fd5b50016020015190565b6000806138e78161295f6060860186615839565b90506001600160e01b03198116637de7edef60e01b148061391857506001600160e01b03198116632258b59b60e21b145b8061393357506001600160e01b03198116633b2adc6160e21b145b8061394e57506001600160e01b0319811663016f91b360e01b145b8061396957506001600160e01b0319811663a69df4b560e01b145b8061398457506001600160e01b0319811663851f388f60e01b145b8061399f57506001600160e01b031981166335dfcdbd60e01b145b806139ba57506001600160e01b0319811663141c0f2f60e21b145b806139d557506001600160e01b031981166347ede8bb60e11b145b806139f057506001600160e01b03198116637e45076f60e01b145b80613a0b57506001600160e01b031981166376ff3cd560e01b145b80610cd857506001600160e01b03198116634fa6c46360e11b149392505050565b600083815260028501602052604081205460ff1615613a7a5760405162461bcd60e51b815260206004820152600a602482015269121054d217d1561254d560b21b6044820152606401610acb565b60008481526002860160209081526040909120805460ff19166001179055825190830151613aa9918691613cf3565b8015613abf5750613abf85836000015185613e40565b15613adc57613ad56000836040015160006141ee565b9050610c47565b506001949350505050565b60008085806020019051810190613afe919061580a565b604080517fff99feda8287ff7feff51d2f36282cbc5d9739c7d9fead63df896bb48a28917660208201523091810191909152606081018690526080810182905260a081018590529091506000906118dc90879060c00160405160208183030381529060405280519060200120614226565b60006001600160a01b038316613b8757506000610cd8565b613b99836001600160a01b0316614275565b613bad57613ba88484846142ac565b610c47565b610c478484846143dc565b6040805160a08101825260078301546001600160801b038082168352600160801b91829004811660208401526008850154908116938301939093526001600160401b0390830481166060830152600160c01b9092049091166080820152600090610bb5906144cd565b6000600160801b8210613c865760405162461bcd60e51b815260206004820152602760248201527f53616665436173743a2076616c756520646f65736e27742066697420696e20316044820152663238206269747360c81b6064820152608401610acb565b5090565b6000680100000000000000008210613c865760405162461bcd60e51b815260206004820152602660248201527f53616665436173743a2076616c756520646f65736e27742066697420696e203660448201526534206269747360d01b6064820152608401610acb565b60008151835114613d3b5760405162461bcd60e51b81526020600482015260126024820152714241445f5349474e41545552455f4441544160701b6044820152606401610acb565b6000805b8451811015613e3457816001600160a01b0316858281518110613d6457613d64615823565b60200260200101516001600160a01b031611613dba5760405162461bcd60e51b815260206004820152601560248201527424a72b20a624a22fa9a4a3a722a929afa7a92222a960591b6044820152606401610acb565b848181518110613dcc57613dcc615823565b60200260200101519150613e1386868381518110613dec57613dec615823565b6020026020010151868481518110613e0657613e06615823565b6020026020010151613b6f565b613e2257600092505050610cd8565b80613e2c816158a5565b915050613d3f565b50600195945050505050565b60008251600003613e5357506000610cd8565b6000613e60856000614500565b90506000815111613ea25760405162461bcd60e51b815260206004820152600c60248201526b4e4f5f475541524449414e5360a01b6044820152606401610acb565b845460009081906001600160a01b0316815b875181101561405557836001600160a01b0316888281518110613ed957613ed9615823565b60200260200101516001600160a01b031611613f2f5760405162461bcd60e51b815260206004820152601560248201527424a72b20a624a22fa9a4a3a722a929afa7a92222a960591b6044820152606401610acb565b878181518110613f4157613f41615823565b60200260200101519350816001600160a01b0316888281518110613f6757613f67615823565b60200260200101516001600160a01b031603613f865760019250614043565b6000805b8651811015613ffd57898381518110613fa557613fa5615823565b60200260200101516001600160a01b0316878281518110613fc857613fc8615823565b6020026020010151600001516001600160a01b031603613feb5760019150613ffd565b80613ff5816158a5565b915050613f8a565b50806140415760405162461bcd60e51b815260206004820152601360248201527229a4a3a722a92fa727aa2fa3aaa0a92224a0a760691b6044820152606401610acb565b505b8061404d816158a5565b915050613eb4565b50600386600481111561406a5761406a615c18565b0361407f578651600114945050505050610cd8565b600486600481111561409357614093615c18565b036140c65781156140b65760405162461bcd60e51b8152600401610acb90615c2e565b8651600114945050505050610cd8565b60028660048111156140da576140da615c18565b03614131578161412c5760405162461bcd60e51b815260206004820152601f60248201527f57414c4c45545f4f574e45525f5349474e41545552455f5245515549524544006044820152606401610acb565b614168565b600086600481111561414557614145615c18565b036141685781156141685760405162461bcd60e51b8152600401610acb90615c2e565b835182156141ce5761417b6001826158be565b905060018851116141ce5760405162461bcd60e51b815260206004820181905260248201527f4e4f5f475541524449414e5f5349474e45445f424553494445535f4f574e45526044820152606401610acb565b6141dc600182811c906158be565b88511015955050505050509392505050565b600060d08265ffffffffffff16901b60a08465ffffffffffff16901b85614216576000614219565b60015b60ff161717949350505050565b600060405180604001604052806002815260200161190160f01b815250838360405160200161425793929190615c70565b60405160208183030381529060405280519060200120905092915050565b6000813f8015801590610cd857507fc5d2460186f7233c927e7db2dcc703c0e500b653ca82273b7bfad8045d85a470141592915050565b60006001600160a01b0383166142c457506000610cd8565b8151604114806142d5575081516042145b6143215760405162461bcd60e51b815260206004820152601860248201527f494e56414c49445f5349474e41545552455f4c454e47544800000000000000006044820152606401610acb565b6000825160420361433457506041825260015b61433e858461463d565b6001600160a01b0316846001600160a01b0316149150816143c9576040517f19457468657265756d205369676e6564204d6573736167653a0a3332000000006020820152603c8101869052600090605c016040516020818303038152906040528051906020012090506143b1818561463d565b6001600160a01b0316856001600160a01b0316149250505b80156143d457604283525b509392505050565b600080631626ba7e60e01b85846040516024016143fa929190615c97565b604051602081830303815290604052906001600160e01b0319166020820180516001600160e01b0383818316178352505050509050600080856001600160a01b03168360405161444a9190615cb0565b600060405180830381855afa9150503d8060008114614485576040519150601f19603f3d011682016040523d82523d6000602084013e61448a565b606091505b509150915081801561449d575080516020145b80156118dc5750630b135d3f60e11b6144b78260006138b0565b6001600160e01b03191614979650505050505050565b60004282608001516001600160401b031611156144eb5781516144f1565b81602001515b6001600160801b031692915050565b60048201546060906001600160401b0381111561451f5761451f61492c565b60405190808252806020026020018201604052801561456a57816020015b604080516060810182526000808252602080830182905292820152825260001990920191018161453d5790505b5090506000805b600485015481101561463457600085600401828154811061459457614594615823565b60009182526020918290206040805160608101825291909201546001600160a01b038116825260ff600160a01b820416938201939093526001600160401b03600160a81b909304929092169082015290506145ef8186614723565b15614621578084848151811061460757614607615823565b6020026020010181905250828061461d906158a5565b9350505b508061462c816158a5565b915050614571565b50815292915050565b6000815160411461465057506000610bb5565b60208201516040830151604184015160ff167f7fffffffffffffffffffffffffffffff5d576e7357a4501ddfe92f46681b20a08211156146965760009350505050610bb5565b8060ff16601b14806146ab57508060ff16601c145b156147175760408051600081526020810180835288905260ff831691810191909152606081018490526080810183905260019060a0016020604051602081039080840390855afa158015614703573d6000803e3d6000fd5b505050602060405103519350505050610bb5565b60009350505050610bb5565b600061472e83614745565b80610cd85750818015610cd85750610cd88361475f565b60006147508261478c565b80610bb55750610bb5826147b7565b600060015b60ff16826020015160ff16148015610bb557505060400151426001600160401b039091161190565b602081015160009060ff166001148015610bb557505060400151426001600160401b03909116111590565b600080614764565b60008083601f8401126147d157600080fd5b5081356001600160401b038111156147e857600080fd5b6020830191508360208260051b850101111561480357600080fd5b9250929050565b6000806020838503121561481d57600080fd5b82356001600160401b0381111561483357600080fd5b61483f858286016147bf565b90969095509350505050565b6001600160e01b03198116811461286d57600080fd5b60006020828403121561487357600080fd5b8135610cd88161484b565b801515811461286d57600080fd5b60006020828403121561489e57600080fd5b8135610cd88161487e565b602080825282518282018190526000919060409081850190868401855b8281101561490a57815180516001600160a01b031685528681015160ff16878601528501516001600160401b031685850152606090930192908501906001016148c6565b5091979650505050505050565b6001600160a01b038116811461286d57600080fd5b634e487b7160e01b600052604160045260246000fd5b604051606081016001600160401b03811182821017156149645761496461492c565b60405290565b604051608081016001600160401b03811182821017156149645761496461492c565b604051601f8201601f191681016001600160401b03811182821017156149b4576149b461492c565b604052919050565b60006001600160401b038211156149d5576149d561492c565b50601f01601f191660200190565b600082601f8301126149f457600080fd5b8135614a07614a02826149bc565b61498c565b818152846020838601011115614a1c57600080fd5b816020850160208301376000918101602001919091529392505050565b60008060008060808587031215614a4f57600080fd5b8435614a5a81614917565b93506020850135614a6a81614917565b92506040850135915060608501356001600160401b03811115614a8c57600080fd5b614a98878288016149e3565b91505092959194509250565b60008060408385031215614ab757600080fd5b8235915060208301356001600160401b03811115614ad457600080fd5b614ae0858286016149e3565b9150509250929050565b60008083601f840112614afc57600080fd5b5081356001600160401b03811115614b1357600080fd5b60208301915083602082850101111561480357600080fd5b600080600080600060808688031215614b4357600080fd5b8535614b4e81614917565b94506020860135935060408601356001600160401b03811115614b7057600080fd5b614b7c88828901614aea565b9094509250506060860135614b908161487e565b809150509295509295909350565b60005b83811015614bb9578181015183820152602001614ba1565b50506000910152565b60008151808452614bda816020860160208601614b9e565b601f01601f19169290920160200192915050565b602081526000610cd86020830184614bc2565b600080600060408486031215614c1657600080fd5b8335614c2181614917565b925060208401356001600160401b03811115614c3c57600080fd5b614c48868287016147bf565b9497909650939450505050565b600080600060608486031215614c6a57600080fd5b83356001600160401b03811115614c8057600080fd5b84016101608187031215614c9357600080fd5b95602085013595506040909401359392505050565b600060208284031215614cba57600080fd5b8135610cd881614917565b60008060408385031215614cd857600080fd5b8235614ce381614917565b946020939093013593505050565b60006101a08201905060018060a01b03808c1683526001600160401b03808c1660208501528a60408501528915156060850152818916608085015263ffffffff881660a085015280871660c08501526001600160801b0391508186511660e0850152816020870151166101008501528160408701511661012085015280606087015116610140850152806080870151166101608501525050614d9f6101808301846001600160a01b03169052565b9a9950505050505050505050565b600080600060608486031215614dc257600080fd5b8335614dcd81614917565b92506020840135614ddd81614917565b929592945050506040919091013590565b60008060008060608587031215614e0457600080fd5b8435614e0f81614917565b93506020850135925060408501356001600160401b03811115614e3157600080fd5b614e3d87828801614aea565b95989497509550505050565b600060208284031215614e5b57600080fd5b5035919050565b600080600080600060808688031215614e7a57600080fd5b8535614e8581614917565b94506020860135614e9581614917565b93506040860135925060608601356001600160401b03811115614eb757600080fd5b614ec388828901614aea565b969995985093965092949392505050565b60008060008060008060a08789031215614eed57600080fd5b8635614ef881614917565b95506020870135614f0881614917565b9450604087013593506060870135925060808701356001600160401b03811115614f3157600080fd5b614f3d89828a01614aea565b979a9699509497509295939492505050565b600080600080600080600060c0888a031215614f6a57600080fd5b8735614f7581614917565b96506020880135614f8581614917565b9550604088013594506060880135935060808801356001600160401b03811115614fae57600080fd5b614fba8a828b01614aea565b90945092505060a0880135614fce8161487e565b8091505092959891949750929550565b60008060408385031215614ff157600080fd5b8235614ffc81614917565b9150602083013561500c8161487e565b809150509250929050565b60008060008060008060a0878903121561503057600080fd5b863561503b81614917565b9550602087013561504b81614917565b94506040870135935060608701356001600160401b0381111561506d57600080fd5b61507989828a01614aea565b909450925050608087013561508d8161487e565b809150509295509295509295565b600080604083850312156150ae57600080fd5b82356150b981614917565b9150602083013563ffffffff8116811461500c57600080fd5b60006001600160401b038211156150eb576150eb61492c565b5060051b60200190565b600082601f83011261510657600080fd5b81356020615116614a02836150d2565b82815260059290921b8401810191818101908684111561513557600080fd5b8286015b848110156151505780358352918301918301615139565b509695505050505050565b600080600080600060a0868803121561517357600080fd5b853561517e81614917565b9450602086013561518e81614917565b935060408601356001600160401b03808211156151aa57600080fd5b6151b689838a016150f5565b945060608801359150808211156151cc57600080fd5b6151d889838a016150f5565b935060808801359150808211156151ee57600080fd5b506151fb888289016149e3565b9150509295509295909350565b60008060008060008060008060e0898b03121561522457600080fd5b883561522f81614917565b975060208901356001600160401b0381111561524a57600080fd5b6152568b828c016147bf565b90985096505060408901359450606089013561527181614917565b9350608089013561528181614917565b925060a089013561529181614917565b8092505060c089013590509295985092959890939650565b600080600080600060a086880312156152c157600080fd5b85356152cc81614917565b945060208601356152dc81614917565b9350604086013592506060860135915060808601356001600160401b0381111561530557600080fd5b6151fb888289016149e3565b6000806000806080858703121561532757600080fd5b843561533281614917565b9350602085013561534281614917565b92506040850135915060608501356153598161487e565b939692955090935050565b60208082526017908201527f6163636f756e743a206e6f7420456e747279506f696e74000000000000000000604082015260600190565b8183526000602080850194508260005b858110156153d95781356153be81614917565b6001600160a01b0316875295820195908201906001016153ab565b509495945050505050565b8381526040602082015260006114e660408301848661539b565b6000602080838503121561541157600080fd5b82516001600160401b038082111561542857600080fd5b818501915085601f83011261543c57600080fd5b815161544a614a02826150d2565b8181526060918202840185019185820191908984111561546957600080fd5b948601945b838610156154db5780868b0312156154865760008081fd5b61548e614942565b865161549981614917565b81528688015160ff811681146154af5760008081fd5b8189015260408781015187811681146154c85760008081fd5b908201528352948501949186019161546e565b5098975050505050505050565b84815263ffffffff60e01b84166020820152826040820152608060608201526000610df96080830184614bc2565b60006020828403121561552857600080fd5b8151610cd88161484b565b60208082526036908201527f6163636f756e743a206e6f74204f776e65722c2053656c66206f7220456e74726040820152751e541bda5b9d081bdc881a5d081a5cc81b1bd8dad95960521b606082015260800190565b81835281816020850137506000828201602090810191909152601f909101601f19169091010190565b8781526001600160a01b038781166020830152861660408201526060810185905260c0608082018190526000906155ec9083018587615589565b905082151560a083015298975050505050505050565b60006020828403121561561457600080fd5b81516001600160401b0381111561562a57600080fd5b8201601f8101841361563b57600080fd5b8051615649614a02826149bc565b81815285602083850101111561565e57600080fd5b6114e6826020830160208601614b9e565b8481526001600160a01b0384166020820152606060408201819052600090610df9908301848661539b565b60018060a01b0385168152836020820152606060408201526000610df9606083018486615589565b6001600160a01b03868116825285166020820152604081018490526080606082018190526000906118dc9083018486615589565b6001600160a01b03878116825286166020820152604081018590526060810184905260a060808201819052600090611a059083018486615589565b8981526001600160a01b0389811660208301528881166040830152871660608201526080810186905260a0810185905261010060c0820181905260009061577b8382018688615589565b91505082151560e08301529a9950505050505050505050565b6000602082840312156157a657600080fd5b8151610cd88161487e565b8881526001600160a01b0388811660208301528781166040830152861660608201526080810185905260e060a082018190526000906157f39083018587615589565b905082151560c08301529998505050505050505050565b60006020828403121561581c57600080fd5b5051919050565b634e487b7160e01b600052603260045260246000fd5b6000808335601e1984360301811261585057600080fd5b8301803591506001600160401b0382111561586a57600080fd5b60200191503681900382131561480357600080fd5b8183823760009101908152919050565b634e487b7160e01b600052601160045260246000fd5b6000600182016158b7576158b761588f565b5060010190565b80820180821115610bb557610bb561588f565b600080858511156158e157600080fd5b838611156158ee57600080fd5b5050820193919092039150565b600082601f83011261590c57600080fd5b8135602061591c614a02836150d2565b82815260059290921b8401810191818101908684111561593b57600080fd5b8286015b848110156151505780356001600160401b0381111561595e5760008081fd5b61596c8986838b01016149e3565b84525091830191830161593f565b803565ffffffffffff8116811461599057600080fd5b919050565b600080604083850312156159a857600080fd5b82356001600160401b03808211156159bf57600080fd5b90840190608082870312156159d357600080fd5b6159db61496a565b8235828111156159ea57600080fd5b8301601f810188136159fb57600080fd5b80356020615a0b614a02836150d2565b82815260059290921b8301810191818101908b841115615a2a57600080fd5b938201935b83851015615a51578435615a4281614917565b82529382019390820190615a2f565b85525085810135925084831115615a6757600080fd5b615a738a8488016158fb565b81850152615a836040870161597a565b6040850152606086013560608501528397508089013595505050505080821115615aac57600080fd5b50614ae0858286016149e3565b608081526000615acc6080830187614bc2565b60208301959095525065ffffffffffff929092166040830152606090910152919050565b60008060408385031215615b0357600080fd5b8251615b0e81614917565b809250506020808401516001600160401b03811115615b2c57600080fd5b8401601f81018613615b3d57600080fd5b8051615b4b614a02826150d2565b81815260059190911b82018301908381019088831115615b6a57600080fd5b928401925b82841015615b91578351615b8281614917565b82529284019290840190615b6f565b80955050505050509250929050565b6001600160a01b03868116825260a0602080840182905287519184018290526000928882019290919060c0860190855b81811015615bee578551851683529483019491830191600101615bd0565b505060408601989098525050505065ffffffffffff92909216606083015260809091015292915050565b634e487b7160e01b600052602160045260246000fd5b60208082526022908201527f57414c4c45545f4f574e45525f5349474e41545552455f4e4f545f414c4c4f57604082015261115160f21b606082015260800190565b60008451615c82818460208901614b9e565b91909101928352506020820152604001919050565b828152604060208201526000610c476040830184614bc2565b60008251615cc2818460208701614b9e565b919091019291505056fea2646970667358221220f73a10543596774743ea237088091583e3ed815de1df701639dd562bca3598af64736f6c63430008110033",
  "linkReferences": {
    "contracts/base/libwallet/ERC1271Lib.sol": {
      "ERC1271Lib": [
        {
          "length": 20,
          "start": 3824
        }
      ]
    },
    "contracts/base/libwallet/ERC20Lib.sol": {
      "ERC20Lib": [
        {
          "length": 20,
          "start": 4078
        },
        {
          "length": 20,
          "start": 5565
        },
        {
          "length": 20,
          "start": 5890
        },
        {
          "length": 20,
          "start": 6714
        },
        {
          "length": 20,
          "start": 6900
        },
        {
          "length": 20,
          "start": 7158
        },
        {
          "length": 20,
          "start": 8019
        },
        {
          "length": 20,
          "start": 9005
        },
        {
          "length": 20,
          "start": 10700
        },
        {
          "length": 20,
          "start": 12423
        },
        {
          "length": 20,
          "start": 12635
        },
        {
          "length": 20,
          "start": 12847
        },
        {
          "length": 20,
          "start": 13059
        }
      ]
    },
    "contracts/base/libwallet/GuardianLib.sol": {
      "GuardianLib": [
        {
          "length": 20,
          "start": 3452
        },
        {
          "length": 20,
          "start": 3691
        },
        {
          "length": 20,
          "start": 5420
        },
        {
          "length": 20,
          "start": 6246
        },
        {
          "length": 20,
          "start": 6588
        },
        {
          "length": 20,
          "start": 7476
        },
        {
          "length": 20,
          "start": 7726
        },
        {
          "length": 20,
          "start": 8788
        },
        {
          "length": 20,
          "start": 9714
        },
        {
          "length": 20,
          "start": 11469
        },
        {
          "length": 20,
          "start": 11681
        },
        {
          "length": 20,
          "start": 11893
        }
      ]
    },
    "contracts/base/libwallet/InheritanceLib.sol": {
      "InheritanceLib": [
        {
          "length": 20,
          "start": 9900
        }
      ]
    },
    "contracts/base/libwallet/LockLib.sol": {
      "LockLib": [
        {
          "length": 20,
          "start": 7598
        },
        {
          "length": 20,
          "start": 10405
        },
        {
          "length": 20,
          "start": 13271
        }
      ]
    },
    "contracts/base/libwallet/QuotaLib.sol": {
      "QuotaLib": [
        {
          "length": 20,
          "start": 6109
        },
        {
          "length": 20,
          "start": 10087
        }
      ]
    },
    "contracts/base/libwallet/RecoverLib.sol": {
      "RecoverLib": [
        {
          "length": 20,
          "start": 4323
        },
        {
          "length": 20,
          "start": 13722
        }
      ]
    },
    "contracts/base/libwallet/UpgradeLib.sol": {
      "UpgradeLib": [
        {
          "length": 20,
          "start": 5695
        },
        {
          "length": 20,
          "start": 13483
        }
      ]
    },
    "contracts/base/libwallet/WhitelistLib.sol": {
      "WhitelistLib": [
        {
          "length": 20,
          "start": 5198
        },
        {
          "length": 20,
          "start": 6428
        },
        {
          "length": 20,
          "start": 9241
        },
        {
          "length": 20,
          "start": 12211
        }
      ]
    }
  },
  "deployedLinkReferences": {
    "contracts/base/libwallet/ERC1271Lib.sol": {
      "ERC1271Lib": [
        {
          "length": 20,
          "start": 3169
        }
      ]
    },
    "contracts/base/libwallet/ERC20Lib.sol": {
      "ERC20Lib": [
        {
          "length": 20,
          "start": 3423
        },
        {
          "length": 20,
          "start": 4910
        },
        {
          "length": 20,
          "start": 5235
        },
        {
          "length": 20,
          "start": 6059
        },
        {
          "length": 20,
          "start": 6245
        },
        {
          "length": 20,
          "start": 6503
        },
        {
          "length": 20,
          "start": 7364
        },
        {
          "length": 20,
          "start": 8350
        },
        {
          "length": 20,
          "start": 10045
        },
        {
          "length": 20,
          "start": 11768
        },
        {
          "length": 20,
          "start": 11980
        },
        {
          "length": 20,
          "start": 12192
        },
        {
          "length": 20,
          "start": 12404
        }
      ]
    },
    "contracts/base/libwallet/GuardianLib.sol": {
      "GuardianLib": [
        {
          "length": 20,
          "start": 2797
        },
        {
          "length": 20,
          "start": 3036
        },
        {
          "length": 20,
          "start": 4765
        },
        {
          "length": 20,
          "start": 5591
        },
        {
          "length": 20,
          "start": 5933
        },
        {
          "length": 20,
          "start": 6821
        },
        {
          "length": 20,
          "start": 7071
        },
        {
          "length": 20,
          "start": 8133
        },
        {
          "length": 20,
          "start": 9059
        },
        {
          "length": 20,
          "start": 10814
        },
        {
          "length": 20,
          "start": 11026
        },
        {
          "length": 20,
          "start": 11238
        }
      ]
    },
    "contracts/base/libwallet/InheritanceLib.sol": {
      "InheritanceLib": [
        {
          "length": 20,
          "start": 9245
        }
      ]
    },
    "contracts/base/libwallet/LockLib.sol": {
      "LockLib": [
        {
          "length": 20,
          "start": 6943
        },
        {
          "length": 20,
          "start": 9750
        },
        {
          "length": 20,
          "start": 12616
        }
      ]
    },
    "contracts/base/libwallet/QuotaLib.sol": {
      "QuotaLib": [
        {
          "length": 20,
          "start": 5454
        },
        {
          "length": 20,
          "start": 9432
        }
      ]
    },
    "contracts/base/libwallet/RecoverLib.sol": {
      "RecoverLib": [
        {
          "length": 20,
          "start": 3668
        },
        {
          "length": 20,
          "start": 13067
        }
      ]
    },
    "contracts/base/libwallet/UpgradeLib.sol": {
      "UpgradeLib": [
        {
          "length": 20,
          "start": 5040
        },
        {
          "length": 20,
          "start": 12828
        }
      ]
    },
    "contracts/base/libwallet/WhitelistLib.sol": {
      "WhitelistLib": [
        {
          "length": 20,
          "start": 4543
        },
        {
          "length": 20,
          "start": 5773
        },
        {
          "length": 20,
          "start": 8586
        },
        {
          "length": 20,
          "start": 11556
        }
      ]
    }
  }
}