{
  "_format": "hh-sol-artifact-1",
  "contractName": "WalletFactory",
  "sourceName": "contracts/base/WalletFactory.sol",
  "abi": [
    {
      "inputs": [
        {
          "internalType": "address",
          "name": "_walletImplementation",
          "type": "address"
        }
      ],
      "stateMutability": "nonpayable",
      "type": "constructor"
    },
    {
      "anonymous": false,
      "inputs": [
        {
          "indexed": true,
          "internalType": "address",
          "name": "operator",
          "type": "address"
        }
      ],
      "name": "OperatorAdded",
      "type": "event"
    },
    {
      "anonymous": false,
      "inputs": [
        {
          "indexed": true,
          "internalType": "address",
          "name": "operator",
          "type": "address"
        }
      ],
      "name": "OperatorRemoved",
      "type": "event"
    },
    {
      "anonymous": false,
      "inputs": [
        {
          "indexed": true,
          "internalType": "address",
          "name": "previousOwner",
          "type": "address"
        },
        {
          "indexed": true,
          "internalType": "address",
          "name": "newOwner",
          "type": "address"
        }
      ],
      "name": "OwnershipTransferred",
      "type": "event"
    },
    {
      "anonymous": false,
      "inputs": [
        {
          "indexed": false,
          "internalType": "address",
          "name": "wallet",
          "type": "address"
        },
        {
          "indexed": false,
          "internalType": "address",
          "name": "owner",
          "type": "address"
        }
      ],
      "name": "WalletCreated",
      "type": "event"
    },
    {
      "inputs": [],
      "name": "CREATE_WALLET_TYPEHASH",
      "outputs": [
        {
          "internalType": "bytes32",
          "name": "",
          "type": "bytes32"
        }
      ],
      "stateMutability": "view",
      "type": "function"
    },
    {
      "inputs": [],
      "name": "WALLET_CREATION",
      "outputs": [
        {
          "internalType": "string",
          "name": "",
          "type": "string"
        }
      ],
      "stateMutability": "view",
      "type": "function"
    },
    {
      "inputs": [
        {
          "internalType": "address",
          "name": "operator",
          "type": "address"
        }
      ],
      "name": "addOperator",
      "outputs": [],
      "stateMutability": "nonpayable",
      "type": "function"
    },
    {
      "inputs": [
        {
          "internalType": "address",
          "name": "owner",
          "type": "address"
        },
        {
          "internalType": "uint256",
          "name": "salt",
          "type": "uint256"
        }
      ],
      "name": "computeWalletAddress",
      "outputs": [
        {
          "internalType": "address",
          "name": "",
          "type": "address"
        }
      ],
      "stateMutability": "view",
      "type": "function"
    },
    {
      "inputs": [
        {
          "internalType": "address",
          "name": "owner",
          "type": "address"
        },
        {
          "internalType": "uint256",
          "name": "salt",
          "type": "uint256"
        }
      ],
      "name": "computeWalletSalt",
      "outputs": [
        {
          "internalType": "bytes32",
          "name": "",
          "type": "bytes32"
        }
      ],
      "stateMutability": "pure",
      "type": "function"
    },
    {
      "inputs": [
        {
          "components": [
            {
              "internalType": "address",
              "name": "owner",
              "type": "address"
            },
            {
              "internalType": "address[]",
              "name": "guardians",
              "type": "address[]"
            },
            {
              "internalType": "uint256",
              "name": "quota",
              "type": "uint256"
            },
            {
              "internalType": "address",
              "name": "inheritor",
              "type": "address"
            },
            {
              "internalType": "address",
              "name": "feeRecipient",
              "type": "address"
            },
            {
              "internalType": "address",
              "name": "feeToken",
              "type": "address"
            },
            {
              "internalType": "uint256",
              "name": "maxFeeAmount",
              "type": "uint256"
            },
            {
              "internalType": "uint256",
              "name": "salt",
              "type": "uint256"
            },
            {
              "internalType": "bytes",
              "name": "signature",
              "type": "bytes"
            }
          ],
          "internalType": "struct WalletFactory.WalletConfig",
          "name": "config",
          "type": "tuple"
        },
        {
          "internalType": "uint256",
          "name": "feeAmount",
          "type": "uint256"
        }
      ],
      "name": "createWallet",
      "outputs": [
        {
          "internalType": "address",
          "name": "wallet",
          "type": "address"
        }
      ],
      "stateMutability": "nonpayable",
      "type": "function"
    },
    {
      "inputs": [
        {
          "components": [
            {
              "internalType": "address",
              "name": "owner",
              "type": "address"
            },
            {
              "internalType": "address",
              "name": "initOwner",
              "type": "address"
            },
            {
              "internalType": "address[]",
              "name": "guardians",
              "type": "address[]"
            },
            {
              "internalType": "uint256",
              "name": "quota",
              "type": "uint256"
            },
            {
              "internalType": "address",
              "name": "inheritor",
              "type": "address"
            },
            {
              "internalType": "address",
              "name": "feeRecipient",
              "type": "address"
            },
            {
              "internalType": "address",
              "name": "feeToken",
              "type": "address"
            },
            {
              "internalType": "uint256",
              "name": "maxFeeAmount",
              "type": "uint256"
            },
            {
              "internalType": "uint256",
              "name": "salt",
              "type": "uint256"
            }
          ],
          "internalType": "struct WalletFactory.WalletConfigV2",
          "name": "config",
          "type": "tuple"
        },
        {
          "internalType": "uint256",
          "name": "feeAmount",
          "type": "uint256"
        }
      ],
      "name": "createWalletByOperator",
      "outputs": [
        {
          "internalType": "address",
          "name": "wallet",
          "type": "address"
        }
      ],
      "stateMutability": "nonpayable",
      "type": "function"
    },
    {
      "inputs": [],
      "name": "domainSeparator",
      "outputs": [
        {
          "internalType": "bytes32",
          "name": "",
          "type": "bytes32"
        }
      ],
      "stateMutability": "view",
      "type": "function"
    },
    {
      "inputs": [],
      "name": "getWalletCode",
      "outputs": [
        {
          "internalType": "bytes",
          "name": "",
          "type": "bytes"
        }
      ],
      "stateMutability": "view",
      "type": "function"
    },
    {
      "inputs": [
        {
          "internalType": "address",
          "name": "addr",
          "type": "address"
        }
      ],
      "name": "isOperator",
      "outputs": [
        {
          "internalType": "bool",
          "name": "",
          "type": "bool"
        }
      ],
      "stateMutability": "view",
      "type": "function"
    },
    {
      "inputs": [],
      "name": "numOperators",
      "outputs": [
        {
          "internalType": "uint256",
          "name": "",
          "type": "uint256"
        }
      ],
      "stateMutability": "view",
      "type": "function"
    },
    {
      "inputs": [],
      "name": "operators",
      "outputs": [
        {
          "internalType": "address[]",
          "name": "",
          "type": "address[]"
        }
      ],
      "stateMutability": "view",
      "type": "function"
    },
    {
      "inputs": [],
      "name": "owner",
      "outputs": [
        {
          "internalType": "address",
          "name": "",
          "type": "address"
        }
      ],
      "stateMutability": "view",
      "type": "function"
    },
    {
      "inputs": [
        {
          "internalType": "address",
          "name": "operator",
          "type": "address"
        }
      ],
      "name": "removeOperator",
      "outputs": [],
      "stateMutability": "nonpayable",
      "type": "function"
    },
    {
      "inputs": [],
      "name": "renounceOwnership",
      "outputs": [],
      "stateMutability": "nonpayable",
      "type": "function"
    },
    {
      "inputs": [
        {
          "internalType": "address",
          "name": "newOwner",
          "type": "address"
        }
      ],
      "name": "transferOwnership",
      "outputs": [],
      "stateMutability": "nonpayable",
      "type": "function"
    },
    {
      "inputs": [],
      "name": "walletImplementation",
      "outputs": [
        {
          "internalType": "address",
          "name": "",
          "type": "address"
        }
      ],
      "stateMutability": "view",
      "type": "function"
    }
  ],
  "bytecode": "0x60c06040523480156200001157600080fd5b5060405162001fd338038062001fd3833981016040819052620000349162000155565b6001600160a01b0381166080908152600080546001600160a01b031916331790556040805160a081018252600d606082019081526c57616c6c6574466163746f727960981b938201939093529182528051808201825260058152640322e302e360dc1b602082810191909152808401919091523091830191909152620000c49190620009bd620000ce821b17901c565b60a0525062000187565b805180516020918201208183015180519083012060408085015181517f8b73c3c69bb8fe3d512ecc4cf759cc79239f7b179b0ffacaa9a75d522b39400f958101959095529084019290925260608301524660808301526001600160a01b031660a082015260009060c001604051602081830303815290604052805190602001209050919050565b6000602082840312156200016857600080fd5b81516001600160a01b03811681146200018057600080fd5b9392505050565b60805160a051611e18620001bb600039600081816103320152610df20152600081816101cb01526107a10152611e186000f3fe60806040523480156200001157600080fd5b5060043610620001215760003560e01c8063ac8a584a11620000af578063d70e2000116200007a578063d70e200014620002db578063d92d1f5614620002e5578063e673df8a14620002fc578063f2fde38b1462000315578063f698da25146200032c57600080fd5b8063ac8a584a1462000256578063b6830d8f146200026d578063bd8206881462000284578063ce15861214620002c457600080fd5b80638117abc111620000f05780638117abc114620001c55780638da5cb5b14620001ed57806390610b0e14620002015780639870d7fe146200023f57600080fd5b80634c30d6c914620001265780635b29128f14620001615780636d70f7ae1462000191578063715018a614620001b9575b600080fd5b6200014e7f4392cdd6c9d91e0896c5def13bad6473db5d21e2b0def85ab8c2475c3e60d14c81565b6040519081526020015b60405180910390f35b620001786200017236600462001789565b62000354565b6040516001600160a01b03909116815260200162000158565b620001a8620001a2366004620017ef565b6200058b565b604051901515815260200162000158565b620001c3620005cc565b005b620001787f000000000000000000000000000000000000000000000000000000000000000081565b60005462000178906001600160a01b031681565b620002306040518060400160405280600f81526020016e2ba0a62622aa2fa1a922a0aa24a7a760891b81525081565b60405162000158919062001861565b620001c362000250366004620017ef565b62000643565b620001c362000267366004620017ef565b6200067e565b6200014e6200027e36600462001876565b620006fd565b60008051602062001dc383398151915260005260016020527fc57586a1ce5b766b3947a214bb396289fde9dce9bbf0dd15355e79ddc42fd129546200014e565b62000178620002d536600462001876565b62000760565b6200023062000776565b62000178620002f636600462001789565b62000803565b62000306620008d2565b604051620001589190620018a3565b620001c362000326366004620017ef565b620008ee565b6200014e7f000000000000000000000000000000000000000000000000000000000000000081565b600062000361336200058b565b620003a45760405162461bcd60e51b815260206004820152600e60248201526d2727aa10209027a822a920aa27a960911b60448201526064015b60405180910390fd5b8260e00135821115620003ef5760405162461bcd60e51b81526020600482015260126024820152711253959053125117d1915157d05353d5539560721b60448201526064016200039b565b6000620004006020850185620017ef565b6001600160a01b031603620004485760405162461bcd60e51b815260206004820152600d60248201526c24a72b20a624a22fa7aba722a960991b60448201526064016200039b565b6200046a6200045e6040850160208601620017ef565b84610100013562000a44565b90506001600160a01b03811663d6bb65c26200048a6020860186620017ef565b620004996040870187620018f2565b6060880135620004b060a08a0160808b01620017ef565b620004c260c08b0160a08c01620017ef565b620004d460e08c0160c08d01620017ef565b8a6040518963ffffffff1660e01b8152600401620004fa98979695949392919062001946565b600060405180830381600087803b1580156200051557600080fd5b505af11580156200052a573d6000803e3d6000fd5b507f5b03bfed1c14a02bdeceb5fa582eb1a5765fc0bc64ca0e6af4c20afc9487f08192508391506200056290506020860186620017ef565b604080516001600160a01b0393841681529290911660208301520160405180910390a192915050565b6001600160a01b03811660009081527fc57586a1ce5b766b3947a214bb396289fde9dce9bbf0dd15355e79ddc42fd128602052604081205415155b92915050565b6000546001600160a01b03163314620005f95760405162461bcd60e51b81526004016200039b90620019c6565b600080546040516001600160a01b03909116907f8be0079c531659141344cd1fd0a4f28419497f9722a3daafe3b4186f6b6457e0908390a3600080546001600160a01b0319169055565b6000546001600160a01b03163314620006705760405162461bcd60e51b81526004016200039b90620019c6565b6200067b8162000a68565b50565b6000546001600160a01b03163314620006ab5760405162461bcd60e51b81526004016200039b90620019c6565b620006c660008051602062001dc38339815191528262000abc565b6040516001600160a01b038216907f80c0b871b97b595b16a7741c1b06fed0c6f6f558639f18ccbce50724325dc40d90600090a250565b60006040518060400160405280600f81526020016e2ba0a62622aa2fa1a922a0aa24a7a760891b81525083836040516020016200073d93929190620019ec565b60405160208183030381529060405280519060200120905092915050565b905090565b60006200076f83833062000c40565b9392505050565b6060604051806020016200078a9062001761565b601f1982820381018352601f9091011660408181527f00000000000000000000000000000000000000000000000000000000000000006001600160a01b031660208301520160408051601f1981840301815290829052620007ef929160200162001a2d565b604051602081830303815290604052905090565b600062000810336200058b565b6200084f5760405162461bcd60e51b815260206004820152600e60248201526d2727aa10209027a822a920aa27a960911b60448201526064016200039b565b8260c001358211156200089a5760405162461bcd60e51b81526020600482015260126024820152711253959053125117d1915157d05353d5539560721b60448201526064016200039b565b620008a58362000c72565b620008c3620008b86020850185620017ef565b8460e0013562000a44565b9050620005c681848462000ec3565b60606200075b60008051602062001dc383398151915262000fe1565b6000546001600160a01b031633146200091b5760405162461bcd60e51b81526004016200039b90620019c6565b6001600160a01b038116620009625760405162461bcd60e51b815260206004820152600c60248201526b5a45524f5f4144445245535360a01b60448201526064016200039b565b600080546040516001600160a01b03808516939216917f8be0079c531659141344cd1fd0a4f28419497f9722a3daafe3b4186f6b6457e091a3600080546001600160a01b0319166001600160a01b0392909216919091179055565b805180516020918201208183015180519083012060408085015181517f8b73c3c69bb8fe3d512ecc4cf759cc79239f7b179b0ffacaa9a75d522b39400f958101959095529084019290925260608301524660808301526001600160a01b031660a082015260009060c001604051602081830303815290604052805190602001209050919050565b60006200076f600062000a588585620006fd565b62000a6262000776565b620010a7565b62000a8560008051602062001dc3833981519152826001620011b1565b6040516001600160a01b038216907fac6fa858e9350a46cec16539926e0fde25b7629f84b5a72bffaae4df888ae86d90600090a250565b60008281526001602081815260408084206001600160a01b0386168552928301909152822054909181900362000b225760405162461bcd60e51b815260206004820152600a6024820152691393d517d25397d4d15560b21b60448201526064016200039b565b6001600160a01b03831660009081526001808401602052604082208290556002840180549192909162000b5790849062001a76565b909155505081541562000c3a5760008260000183600201548154811062000b825762000b8262001a8c565b6000918252602090912001546001600160a01b0390811691508416811462000c0257808362000bb360018562001a76565b8154811062000bc65762000bc662001a8c565b600091825260208083209190910180546001600160a01b0319166001600160a01b03948516179055918316815260018501909152604090208290555b825483908062000c165762000c1662001aa2565b600082815260209020810160001990810180546001600160a01b0319169055019055505b50505050565b600062000c6a62000c528585620006fd565b62000c5c62000776565b80519060200120846200132c565b949350505050565b600062000c836020830183620017ef565b6001600160a01b03160362000ccb5760405162461bcd60e51b815260206004820152600d60248201526c24a72b20a624a22fa7aba722a960991b60448201526064016200039b565b60007f4392cdd6c9d91e0896c5def13bad6473db5d21e2b0def85ab8c2475c3e60d14c62000cfd6020840184620017ef565b62000d0c6020850185620018f2565b60405160200162000d1f92919062001ab8565b60405160208183030381529060405280519060200120846040013585606001602081019062000d4f9190620017ef565b62000d6160a0880160808901620017ef565b62000d7360c0890160a08a01620017ef565b6040805160208101989098526001600160a01b039687169088015260608701949094526080860192909252831660a0850152821660c084810191909152911660e0838101919091529084013561010083015283013561012082015261014001604051602081830303815290604052805190602001209050600062000e187f00000000000000000000000000000000000000000000000000000000000000008362001356565b905062000e7c62000e2d6020850185620017ef565b62000e3d61010086018662001afc565b8080601f016020809104026020016040519081016040528093929190818152602001838380828437600092019190915250869493925050620013899050565b62000ebe5760405162461bcd60e51b8152602060048201526011602482015270494e56414c49445f5349474e415455524560781b60448201526064016200039b565b505050565b6001600160a01b03831663d6bb65c262000ee16020850185620017ef565b62000ef06020860186620018f2565b604087013562000f076080890160608a01620017ef565b62000f1960a08a0160808b01620017ef565b62000f2b60c08b0160a08c01620017ef565b896040518963ffffffff1660e01b815260040162000f5198979695949392919062001946565b600060405180830381600087803b15801562000f6c57600080fd5b505af115801562000f81573d6000803e3d6000fd5b507f5b03bfed1c14a02bdeceb5fa582eb1a5765fc0bc64ca0e6af4c20afc9487f081925085915062000fb990506020850185620017ef565b604080516001600160a01b0393841681529290911660208301520160405180910390a1505050565b60008181526001602052604090208054600282015460609291146200103a5760405162461bcd60e51b815260206004820152600e60248201526d1393d517d350525395105253915160921b60448201526064016200039b565b600083815260016020908152604091829020805483518184028101840190945280845290918301828280156200109a57602002820191906000526020600020905b81546001600160a01b031681526001909101906020018083116200107b575b5050505050915050919050565b600083471015620010fb5760405162461bcd60e51b815260206004820152601d60248201527f437265617465323a20696e73756666696369656e742062616c616e636500000060448201526064016200039b565b81516000036200114e5760405162461bcd60e51b815260206004820181905260248201527f437265617465323a2062797465636f6465206c656e677468206973207a65726f60448201526064016200039b565b8282516020840186f590506001600160a01b0381166200076f5760405162461bcd60e51b815260206004820152601960248201527f437265617465323a204661696c6564206f6e206465706c6f790000000000000060448201526064016200039b565b60008381526001602081815260408084206001600160a01b03871685529283019091529091205415620012185760405162461bcd60e51b815260206004820152600e60248201526d1053149150511657d25397d4d15560921b60448201526064016200039b565b8115620012a6576002810154815414620012755760405162461bcd60e51b815260206004820152601960248201527f50524556494f55534c595f4e4f545f4d41494e5441494c45440000000000000060448201526064016200039b565b80546001810182556000828152602090200180546001600160a01b0319166001600160a01b038516179055620012e7565b805415620012e75760405162461bcd60e51b815260206004820152600d60248201526c26aaa9aa2fa6a0a4a72a20a4a760991b60448201526064016200039b565b6001816002016000828254620012fe919062001b46565b909155505060028101546001600160a01b039093166000908152600190910160205260409020919091555050565b6000604051836040820152846020820152828152600b8101905060ff815360559020949350505050565b600060405180604001604052806002815260200161190160f01b81525083836040516020016200073d9392919062001b5c565b60006001600160a01b038316620013a3575060006200076f565b620013b7836001600160a01b0316620013dc565b620013cf57620013c984848462001414565b62000c6a565b62000c6a84848462001550565b6000813f80158015906200076f57507fc5d2460186f7233c927e7db2dcc703c0e500b653ca82273b7bfad8045d85a470141592915050565b60006001600160a01b0383166200142e575060006200076f565b81516041148062001440575081516042145b6200148e5760405162461bcd60e51b815260206004820152601860248201527f494e56414c49445f5349474e41545552455f4c454e475448000000000000000060448201526064016200039b565b60008251604203620014a257506041825260015b620014ae85846200164c565b6001600160a01b0316846001600160a01b0316149150816200153c576040517f19457468657265756d205369676e6564204d6573736167653a0a3332000000006020820152603c8101869052600090605c016040516020818303038152906040528051906020012090506200152481856200164c565b6001600160a01b0316856001600160a01b0316149250505b80156200154857604283525b509392505050565b600080631626ba7e60e01b85846040516024016200157092919062001b85565b604051602081830303815290604052906001600160e01b0319166020820180516001600160e01b0383818316178352505050509050600080856001600160a01b031683604051620015c2919062001ba0565b600060405180830381855afa9150503d8060008114620015ff576040519150601f19603f3d011682016040523d82523d6000602084013e62001604565b606091505b509150915081801562001618575080516020145b8015620016415750630b135d3f60e11b620016358260006200173b565b6001600160e01b031916145b979650505050505050565b600081516041146200166157506000620005c6565b60208201516040830151604184015160ff167f7fffffffffffffffffffffffffffffff5d576e7357a4501ddfe92f46681b20a0821115620016a95760009350505050620005c6565b8060ff16601b1480620016bf57508060ff16601c145b156200172e5760408051600081526020810180835288905260ff831691810191909152606081018490526080810183905260019060a0016020604051602081039080840390855afa15801562001719573d6000803e3d6000fd5b505050602060405103519350505050620005c6565b60009350505050620005c6565b60006200174a82600462001b46565b835110156200175857600080fd5b50016020015190565b6102048062001bbf83390190565b600061012082840312156200178357600080fd5b50919050565b600080604083850312156200179d57600080fd5b823567ffffffffffffffff811115620017b557600080fd5b620017c3858286016200176f565b95602094909401359450505050565b80356001600160a01b0381168114620017ea57600080fd5b919050565b6000602082840312156200180257600080fd5b6200076f82620017d2565b60005b838110156200182a57818101518382015260200162001810565b50506000910152565b600081518084526200184d8160208601602086016200180d565b601f01601f19169290920160200192915050565b6020815260006200076f602083018462001833565b600080604083850312156200188a57600080fd5b6200189583620017d2565b946020939093013593505050565b6020808252825182820181905260009190848201906040850190845b81811015620018e65783516001600160a01b031683529284019291840191600101620018bf565b50909695505050505050565b6000808335601e198436030181126200190a57600080fd5b83018035915067ffffffffffffffff8211156200192657600080fd5b6020019150600581901b36038213156200193f57600080fd5b9250929050565b6001600160a01b03898116825260e060208084018290529083018990526000918a916101008501845b8c8110156200199857836200198486620017d2565b16825293820193908201906001016200196f565b50604086019a909a5250968716606084015250509284166080840152921660a082015260c001529392505050565b6020808252600c908201526b15539055551213d49256915160a21b604082015260600190565b6000845162001a008184602089016200180d565b60609490941b6bffffffffffffffffffffffff191691909301908152601481019190915260340192915050565b6000835162001a418184602088016200180d565b83519083019062001a578183602088016200180d565b01949350505050565b634e487b7160e01b600052601160045260246000fd5b81810381811115620005c657620005c662001a60565b634e487b7160e01b600052603260045260246000fd5b634e487b7160e01b600052603160045260246000fd5b60008184825b8581101562001af1576001600160a01b0362001ada83620017d2565b168352602092830192919091019060010162001abe565b509095945050505050565b6000808335601e1984360301811262001b1457600080fd5b83018035915067ffffffffffffffff82111562001b3057600080fd5b6020019150368190038213156200193f57600080fd5b80820180821115620005c657620005c662001a60565b6000845162001b708184602089016200180d565b91909101928352506020820152604001919050565b82815260406020820152600062000c6a604083018462001833565b6000825162001bb48184602087016200180d565b919091019291505056fe608060405234801561001057600080fd5b5060405161020438038061020483398101604081905261002f91610110565b6100456001600160a01b0382161515606b610088565b600054610063906001600160a01b0383811691161415610138610088565b600080546001600160a01b0319166001600160a01b0392909216919091179055610140565b81610096576100968161009a565b5050565b6100aa81624c524360e81b6100ad565b50565b62461bcd60e51b600090815260206004526007602452600a808404818106603090810160081b958390069590950190829004918206850160101b01602363ffffff0060e086901c160160181b0190930160c81b604481905260e883901c91606490fd5b60006020828403121561012257600080fd5b81516001600160a01b038116811461013957600080fd5b9392505050565b60b68061014e6000396000f3fe608060405236603f5760405134815233907f88a5966d370b9919b20f3e2c13ff65706f196a4e32cc2c12bf57088f885258749060200160405180910390a2005b600080546001600160a01b0316632cf35bc960e11b823501606257808252602082f35b3682833781823684845af490503d82833e80607b573d82fd5b503d81f3fea2646970667358221220ee96c327a95f6921d81c4ab54dab79c0e1e44cc06bbed57528778d29956b3e8164736f6c63430008110033e63c388d4543ca9e94c981423c48d71e347af88fa97254eee172e5d43f973b05a26469706673582212208dcf4fa1527696381e5d4676968a2c283bdae7d68e20c8848e15c23e6adc85cf64736f6c63430008110033",
  "linkReferences": {},
  "deployedLinkReferences": {}
}