{
  "_format": "hh-sol-artifact-1",
  "contractName": "WalletFactory",
  "sourceName": "contracts/base/WalletFactory.sol",
  "abi": [
    {
      "inputs": [
        {
          "internalType": "address",
          "name": "_walletImplementation",
          "type": "address"
        }
      ],
      "stateMutability": "nonpayable",
      "type": "constructor"
    },
    {
      "anonymous": false,
      "inputs": [
        {
          "indexed": true,
          "internalType": "address",
          "name": "operator",
          "type": "address"
        }
      ],
      "name": "OperatorAdded",
      "type": "event"
    },
    {
      "anonymous": false,
      "inputs": [
        {
          "indexed": true,
          "internalType": "address",
          "name": "operator",
          "type": "address"
        }
      ],
      "name": "OperatorRemoved",
      "type": "event"
    },
    {
      "anonymous": false,
      "inputs": [
        {
          "indexed": true,
          "internalType": "address",
          "name": "previousOwner",
          "type": "address"
        },
        {
          "indexed": true,
          "internalType": "address",
          "name": "newOwner",
          "type": "address"
        }
      ],
      "name": "OwnershipTransferred",
      "type": "event"
    },
    {
      "anonymous": false,
      "inputs": [
        {
          "indexed": false,
          "internalType": "address",
          "name": "wallet",
          "type": "address"
        },
        {
          "indexed": false,
          "internalType": "address",
          "name": "owner",
          "type": "address"
        }
      ],
      "name": "WalletCreated",
      "type": "event"
    },
    {
      "inputs": [],
      "name": "CREATE_WALLET_TYPEHASH",
      "outputs": [
        {
          "internalType": "bytes32",
          "name": "",
          "type": "bytes32"
        }
      ],
      "stateMutability": "view",
      "type": "function"
    },
    {
      "inputs": [],
      "name": "DOMAIN_SEPARATOR",
      "outputs": [
        {
          "internalType": "bytes32",
          "name": "",
          "type": "bytes32"
        }
      ],
      "stateMutability": "view",
      "type": "function"
    },
    {
      "inputs": [],
      "name": "WALLET_CREATION",
      "outputs": [
        {
          "internalType": "string",
          "name": "",
          "type": "string"
        }
      ],
      "stateMutability": "view",
      "type": "function"
    },
    {
      "inputs": [
        {
          "internalType": "address",
          "name": "operator",
          "type": "address"
        }
      ],
      "name": "addOperator",
      "outputs": [],
      "stateMutability": "nonpayable",
      "type": "function"
    },
    {
      "inputs": [
        {
          "internalType": "address",
          "name": "owner",
          "type": "address"
        },
        {
          "internalType": "uint256",
          "name": "salt",
          "type": "uint256"
        }
      ],
      "name": "computeWalletAddress",
      "outputs": [
        {
          "internalType": "address",
          "name": "",
          "type": "address"
        }
      ],
      "stateMutability": "view",
      "type": "function"
    },
    {
      "inputs": [
        {
          "internalType": "address",
          "name": "owner",
          "type": "address"
        },
        {
          "internalType": "uint256",
          "name": "salt",
          "type": "uint256"
        }
      ],
      "name": "computeWalletSalt",
      "outputs": [
        {
          "internalType": "bytes32",
          "name": "",
          "type": "bytes32"
        }
      ],
      "stateMutability": "pure",
      "type": "function"
    },
    {
      "inputs": [
        {
          "components": [
            {
              "internalType": "address",
              "name": "owner",
              "type": "address"
            },
            {
              "internalType": "address[]",
              "name": "guardians",
              "type": "address[]"
            },
            {
              "internalType": "uint256",
              "name": "quota",
              "type": "uint256"
            },
            {
              "internalType": "address",
              "name": "inheritor",
              "type": "address"
            },
            {
              "internalType": "address",
              "name": "feeRecipient",
              "type": "address"
            },
            {
              "internalType": "address",
              "name": "feeToken",
              "type": "address"
            },
            {
              "internalType": "uint256",
              "name": "maxFeeAmount",
              "type": "uint256"
            },
            {
              "internalType": "uint256",
              "name": "salt",
              "type": "uint256"
            },
            {
              "internalType": "bytes",
              "name": "signature",
              "type": "bytes"
            }
          ],
          "internalType": "struct WalletFactory.WalletConfig",
          "name": "config",
          "type": "tuple"
        },
        {
          "internalType": "uint256",
          "name": "feeAmount",
          "type": "uint256"
        }
      ],
      "name": "createWallet",
      "outputs": [
        {
          "internalType": "address",
          "name": "wallet",
          "type": "address"
        }
      ],
      "stateMutability": "nonpayable",
      "type": "function"
    },
    {
      "inputs": [
        {
          "components": [
            {
              "internalType": "address",
              "name": "owner",
              "type": "address"
            },
            {
              "internalType": "address",
              "name": "initOwner",
              "type": "address"
            },
            {
              "internalType": "address[]",
              "name": "guardians",
              "type": "address[]"
            },
            {
              "internalType": "uint256",
              "name": "quota",
              "type": "uint256"
            },
            {
              "internalType": "address",
              "name": "inheritor",
              "type": "address"
            },
            {
              "internalType": "address",
              "name": "feeRecipient",
              "type": "address"
            },
            {
              "internalType": "address",
              "name": "feeToken",
              "type": "address"
            },
            {
              "internalType": "uint256",
              "name": "maxFeeAmount",
              "type": "uint256"
            },
            {
              "internalType": "uint256",
              "name": "salt",
              "type": "uint256"
            }
          ],
          "internalType": "struct WalletFactory.WalletConfigV2",
          "name": "config",
          "type": "tuple"
        },
        {
          "internalType": "uint256",
          "name": "feeAmount",
          "type": "uint256"
        }
      ],
      "name": "createWalletByOperator",
      "outputs": [
        {
          "internalType": "address",
          "name": "wallet",
          "type": "address"
        }
      ],
      "stateMutability": "nonpayable",
      "type": "function"
    },
    {
      "inputs": [],
      "name": "getWalletCode",
      "outputs": [
        {
          "internalType": "bytes",
          "name": "",
          "type": "bytes"
        }
      ],
      "stateMutability": "view",
      "type": "function"
    },
    {
      "inputs": [
        {
          "internalType": "address",
          "name": "addr",
          "type": "address"
        }
      ],
      "name": "isOperator",
      "outputs": [
        {
          "internalType": "bool",
          "name": "",
          "type": "bool"
        }
      ],
      "stateMutability": "view",
      "type": "function"
    },
    {
      "inputs": [],
      "name": "numOperators",
      "outputs": [
        {
          "internalType": "uint256",
          "name": "",
          "type": "uint256"
        }
      ],
      "stateMutability": "view",
      "type": "function"
    },
    {
      "inputs": [],
      "name": "operators",
      "outputs": [
        {
          "internalType": "address[]",
          "name": "",
          "type": "address[]"
        }
      ],
      "stateMutability": "view",
      "type": "function"
    },
    {
      "inputs": [],
      "name": "owner",
      "outputs": [
        {
          "internalType": "address",
          "name": "",
          "type": "address"
        }
      ],
      "stateMutability": "view",
      "type": "function"
    },
    {
      "inputs": [
        {
          "internalType": "address",
          "name": "operator",
          "type": "address"
        }
      ],
      "name": "removeOperator",
      "outputs": [],
      "stateMutability": "nonpayable",
      "type": "function"
    },
    {
      "inputs": [],
      "name": "renounceOwnership",
      "outputs": [],
      "stateMutability": "nonpayable",
      "type": "function"
    },
    {
      "inputs": [
        {
          "internalType": "address",
          "name": "newOwner",
          "type": "address"
        }
      ],
      "name": "transferOwnership",
      "outputs": [],
      "stateMutability": "nonpayable",
      "type": "function"
    },
    {
      "inputs": [],
      "name": "walletImplementation",
      "outputs": [
        {
          "internalType": "address",
          "name": "",
          "type": "address"
        }
      ],
      "stateMutability": "view",
      "type": "function"
    }
  ],
  "bytecode": "0x60c06040523480156200001157600080fd5b5060405162001eed38038062001eed833981016040819052620000349162000150565b6001600160a01b0381166080908152600080546001600160a01b031916331790556040805160a081018252600d606082019081526c57616c6c6574466163746f727960981b938201939093529182528051808201825260058152640322e302e360dc1b602082810191909152808401919091523091830191909152620000c49190620009bd620000ce821b17901c565b60a0525062000182565b805180516020918201208183015180519083012060409384015184517f8b73c3c69bb8fe3d512ecc4cf759cc79239f7b179b0ffacaa9a75d522b39400f818601528086019390935260608301919091524660808301526001600160a01b031660a0808301919091528351808303909101815260c0909101909252815191012090565b6000602082840312156200016357600080fd5b81516001600160a01b03811681146200017b57600080fd5b9392505050565b60805160a051611d37620001b66000396000818161012c0152610e430152600081816101f301526107a10152611d376000f3fe60806040523480156200001157600080fd5b5060043610620001215760003560e01c80639870d7fe11620000af578063ce158612116200007a578063ce15861214620002ec578063d70e20001462000303578063d92d1f56146200030d578063e673df8a1462000324578063f2fde38b146200033d57600080fd5b80639870d7fe1462000267578063ac8a584a146200027e578063b6830d8f1462000295578063bd82068814620002ac57600080fd5b8063715018a611620000f0578063715018a614620001e15780638117abc114620001ed5780638da5cb5b146200021557806390610b0e146200022957600080fd5b80633644e51514620001265780634c30d6c914620001615780635b29128f14620001895780636d70f7ae14620001b9575b600080fd5b6200014e7f000000000000000000000000000000000000000000000000000000000000000081565b6040519081526020015b60405180910390f35b6200014e7f4392cdd6c9d91e0896c5def13bad6473db5d21e2b0def85ab8c2475c3e60d14c81565b620001a06200019a366004620016fe565b62000354565b6040516001600160a01b03909116815260200162000158565b620001d0620001ca36600462001764565b6200058b565b604051901515815260200162000158565b620001eb620005cc565b005b620001a07f000000000000000000000000000000000000000000000000000000000000000081565b600054620001a0906001600160a01b031681565b620002586040518060400160405280600f81526020016e2ba0a62622aa2fa1a922a0aa24a7a760891b81525081565b604051620001589190620017d6565b620001eb6200027836600462001764565b62000643565b620001eb6200028f36600462001764565b6200067e565b6200014e620002a6366004620017eb565b620006fd565b60008051602062001ce283398151915260005260016020527fc57586a1ce5b766b3947a214bb396289fde9dce9bbf0dd15355e79ddc42fd129546200014e565b620001a0620002fd366004620017eb565b62000760565b6200025862000776565b620001a06200031e366004620016fe565b62000803565b6200032e620008d2565b60405162000158919062001818565b620001eb6200034e36600462001764565b620008ee565b600062000361336200058b565b620003a45760405162461bcd60e51b815260206004820152600e60248201526d2727aa10209027a822a920aa27a960911b60448201526064015b60405180910390fd5b8260e00135821115620003ef5760405162461bcd60e51b81526020600482015260126024820152711253959053125117d1915157d05353d5539560721b60448201526064016200039b565b600062000400602085018562001764565b6001600160a01b031603620004485760405162461bcd60e51b815260206004820152600d60248201526c24a72b20a624a22fa7aba722a960991b60448201526064016200039b565b6200046a6200045e604085016020860162001764565b84610100013562000a3f565b90506001600160a01b03811663d6bb65c26200048a602086018662001764565b62000499604087018762001867565b6060880135620004b060a08a0160808b0162001764565b620004c260c08b0160a08c0162001764565b620004d460e08c0160c08d0162001764565b8a6040518963ffffffff1660e01b8152600401620004fa989796959493929190620018bb565b600060405180830381600087803b1580156200051557600080fd5b505af11580156200052a573d6000803e3d6000fd5b507f5b03bfed1c14a02bdeceb5fa582eb1a5765fc0bc64ca0e6af4c20afc9487f0819250839150620005629050602086018662001764565b604080516001600160a01b0393841681529290911660208301520160405180910390a192915050565b6001600160a01b03811660009081527fc57586a1ce5b766b3947a214bb396289fde9dce9bbf0dd15355e79ddc42fd128602052604081205415155b92915050565b6000546001600160a01b03163314620005f95760405162461bcd60e51b81526004016200039b906200193b565b600080546040516001600160a01b03909116907f8be0079c531659141344cd1fd0a4f28419497f9722a3daafe3b4186f6b6457e0908390a3600080546001600160a01b0319169055565b6000546001600160a01b03163314620006705760405162461bcd60e51b81526004016200039b906200193b565b6200067b8162000a61565b50565b6000546001600160a01b03163314620006ab5760405162461bcd60e51b81526004016200039b906200193b565b620006c660008051602062001ce28339815191528262000ab5565b6040516001600160a01b038216907f80c0b871b97b595b16a7741c1b06fed0c6f6f558639f18ccbce50724325dc40d90600090a250565b60006040518060400160405280600f81526020016e2ba0a62622aa2fa1a922a0aa24a7a760891b81525083836040516020016200073d9392919062001961565b60405160208183030381529060405280519060200120905092915050565b905090565b60006200076f83833062000c39565b9392505050565b6060604051806020016200078a90620016d6565b601f1982820381018352601f9091011660408181527f00000000000000000000000000000000000000000000000000000000000000006001600160a01b031660208301520160408051601f1981840301815290829052620007ef9291602001620019a2565b604051602081830303815290604052905090565b600062000810336200058b565b6200084f5760405162461bcd60e51b815260206004820152600e60248201526d2727aa10209027a822a920aa27a960911b60448201526064016200039b565b8260c001358211156200089a5760405162461bcd60e51b81526020600482015260126024820152711253959053125117d1915157d05353d5539560721b60448201526064016200039b565b620008a58362000cc3565b620008c3620008b8602085018562001764565b8460e0013562000a3f565b9050620005c681848462000f14565b60606200075b60008051602062001ce283398151915262001032565b6000546001600160a01b031633146200091b5760405162461bcd60e51b81526004016200039b906200193b565b6001600160a01b038116620009625760405162461bcd60e51b815260206004820152600c60248201526b5a45524f5f4144445245535360a01b60448201526064016200039b565b600080546040516001600160a01b03808516939216917f8be0079c531659141344cd1fd0a4f28419497f9722a3daafe3b4186f6b6457e091a3600080546001600160a01b0319166001600160a01b0392909216919091179055565b805180516020918201208183015180519083012060409384015184517f8b73c3c69bb8fe3d512ecc4cf759cc79239f7b179b0ffacaa9a75d522b39400f818601528086019390935260608301919091524660808301526001600160a01b031660a0808301919091528351808303909101815260c0909101909252815191012090565b60006200076f62000a518484620006fd565b62000a5b62000776565b620010f8565b62000a7e60008051602062001ce283398151915282600162001150565b6040516001600160a01b038216907fac6fa858e9350a46cec16539926e0fde25b7629f84b5a72bffaae4df888ae86d90600090a250565b60008281526001602081815260408084206001600160a01b0386168552928301909152822054909181900362000b1b5760405162461bcd60e51b815260206004820152600a6024820152691393d517d25397d4d15560b21b60448201526064016200039b565b6001600160a01b03831660009081526001808401602052604082208290556002840180549192909162000b50908490620019eb565b909155505081541562000c335760008260000183600201548154811062000b7b5762000b7b62001a01565b6000918252602090912001546001600160a01b0390811691508416811462000bfb57808362000bac600185620019eb565b8154811062000bbf5762000bbf62001a01565b600091825260208083209190910180546001600160a01b0319166001600160a01b03948516179055918316815260018501909152604090208290555b825483908062000c0f5762000c0f62001a17565b600082815260209020810160001990810180546001600160a01b0319169055019055505b50505050565b600062000cbb62000c4b8585620006fd565b62000c5562000776565b8051602091820120604080516001600160f81b0319818501526bffffffffffffffffffffffff19606089901b166021820152603581019490945260558085019290925280518085039092018252607590930190925281519101206001600160a01b031690565b949350505050565b600062000cd4602083018362001764565b6001600160a01b03160362000d1c5760405162461bcd60e51b815260206004820152600d60248201526c24a72b20a624a22fa7aba722a960991b60448201526064016200039b565b60007f4392cdd6c9d91e0896c5def13bad6473db5d21e2b0def85ab8c2475c3e60d14c62000d4e602084018462001764565b62000d5d602085018562001867565b60405160200162000d7092919062001a2d565b60405160208183030381529060405280519060200120846040013585606001602081019062000da0919062001764565b62000db260a088016080890162001764565b62000dc460c0890160a08a0162001764565b6040805160208101989098526001600160a01b039687169088015260608701949094526080860192909252831660a0850152821660c084810191909152911660e0838101919091529084013561010083015283013561012082015261014001604051602081830303815290604052805190602001209050600062000e697f000000000000000000000000000000000000000000000000000000000000000083620012cb565b905062000ecd62000e7e602085018562001764565b62000e8e61010086018662001a71565b8080601f016020809104026020016040519081016040528093929190818152602001838380828437600092019190915250869493925050620012fe9050565b62000f0f5760405162461bcd60e51b8152602060048201526011602482015270494e56414c49445f5349474e415455524560781b60448201526064016200039b565b505050565b6001600160a01b03831663d6bb65c262000f32602085018562001764565b62000f41602086018662001867565b604087013562000f586080890160608a0162001764565b62000f6a60a08a0160808b0162001764565b62000f7c60c08b0160a08c0162001764565b896040518963ffffffff1660e01b815260040162000fa2989796959493929190620018bb565b600060405180830381600087803b15801562000fbd57600080fd5b505af115801562000fd2573d6000803e3d6000fd5b507f5b03bfed1c14a02bdeceb5fa582eb1a5765fc0bc64ca0e6af4c20afc9487f08192508591506200100a9050602085018562001764565b604080516001600160a01b0393841681529290911660208301520160405180910390a1505050565b60008181526001602052604090208054600282015460609291146200108b5760405162461bcd60e51b815260206004820152600e60248201526d1393d517d350525395105253915160921b60448201526064016200039b565b60008381526001602090815260409182902080548351818402810184019094528084529091830182828015620010eb57602002820191906000526020600020905b81546001600160a01b03168152600190910190602001808311620010cc575b5050505050915050919050565b600080838351602085016000f590506001600160a01b0381166200076f5760405162461bcd60e51b815260206004820152600e60248201526d10d4915055114c97d1905253115160921b60448201526064016200039b565b60008381526001602081815260408084206001600160a01b03871685529283019091529091205415620011b75760405162461bcd60e51b815260206004820152600e60248201526d1053149150511657d25397d4d15560921b60448201526064016200039b565b811562001245576002810154815414620012145760405162461bcd60e51b815260206004820152601960248201527f50524556494f55534c595f4e4f545f4d41494e5441494c45440000000000000060448201526064016200039b565b80546001810182556000828152602090200180546001600160a01b0319166001600160a01b03851617905562001286565b805415620012865760405162461bcd60e51b815260206004820152600d60248201526c26aaa9aa2fa6a0a4a72a20a4a760991b60448201526064016200039b565b60018160020160008282546200129d919062001abb565b909155505060028101546001600160a01b039093166000908152600190910160205260409020919091555050565b600060405180604001604052806002815260200161190160f01b81525083836040516020016200073d9392919062001ad1565b60006001600160a01b03831662001318575060006200076f565b6200132c836001600160a01b031662001351565b62001344576200133e84848462001389565b62000cbb565b62000cbb848484620014c5565b6000813f80158015906200076f57507fc5d2460186f7233c927e7db2dcc703c0e500b653ca82273b7bfad8045d85a470141592915050565b60006001600160a01b038316620013a3575060006200076f565b815160411480620013b5575081516042145b620014035760405162461bcd60e51b815260206004820152601860248201527f494e56414c49445f5349474e41545552455f4c454e475448000000000000000060448201526064016200039b565b600082516042036200141757506041825260015b620014238584620015c1565b6001600160a01b0316846001600160a01b031614915081620014b1576040517f19457468657265756d205369676e6564204d6573736167653a0a3332000000006020820152603c8101869052600090605c01604051602081830303815290604052805190602001209050620014998185620015c1565b6001600160a01b0316856001600160a01b0316149250505b8015620014bd57604283525b509392505050565b600080631626ba7e60e01b8584604051602401620014e592919062001afa565b604051602081830303815290604052906001600160e01b0319166020820180516001600160e01b0383818316178352505050509050600080856001600160a01b03168360405162001537919062001b15565b600060405180830381855afa9150503d806000811462001574576040519150601f19603f3d011682016040523d82523d6000602084013e62001579565b606091505b50915091508180156200158d575080516020145b8015620015b65750630b135d3f60e11b620015aa826000620016b0565b6001600160e01b031916145b979650505050505050565b60008151604114620015d657506000620005c6565b60208201516040830151604184015160ff167f7fffffffffffffffffffffffffffffff5d576e7357a4501ddfe92f46681b20a08211156200161e5760009350505050620005c6565b8060ff16601b14806200163457508060ff16601c145b15620016a35760408051600081526020810180835288905260ff831691810191909152606081018490526080810183905260019060a0016020604051602081039080840390855afa1580156200168e573d6000803e3d6000fd5b505050602060405103519350505050620005c6565b60009350505050620005c6565b6000620016bf82600462001abb565b83511015620016cd57600080fd5b50016020015190565b6101ae8062001b3483390190565b60006101208284031215620016f857600080fd5b50919050565b600080604083850312156200171257600080fd5b823567ffffffffffffffff8111156200172a57600080fd5b6200173885828601620016e4565b95602094909401359450505050565b80356001600160a01b03811681146200175f57600080fd5b919050565b6000602082840312156200177757600080fd5b6200076f8262001747565b60005b838110156200179f57818101518382015260200162001785565b50506000910152565b60008151808452620017c281602086016020860162001782565b601f01601f19169290920160200192915050565b6020815260006200076f6020830184620017a8565b60008060408385031215620017ff57600080fd5b6200180a8362001747565b946020939093013593505050565b6020808252825182820181905260009190848201906040850190845b818110156200185b5783516001600160a01b03168352928401929184019160010162001834565b50909695505050505050565b6000808335601e198436030181126200187f57600080fd5b83018035915067ffffffffffffffff8211156200189b57600080fd5b6020019150600581901b3603821315620018b457600080fd5b9250929050565b6001600160a01b03898116825260e060208084018290529083018990526000918a916101008501845b8c8110156200190d5783620018f98662001747565b1682529382019390820190600101620018e4565b50604086019a909a5250968716606084015250509284166080840152921660a082015260c001529392505050565b6020808252600c908201526b15539055551213d49256915160a21b604082015260600190565b600084516200197581846020890162001782565b60609490941b6bffffffffffffffffffffffff191691909301908152601481019190915260340192915050565b60008351620019b681846020880162001782565b835190830190620019cc81836020880162001782565b01949350505050565b634e487b7160e01b600052601160045260246000fd5b81810381811115620005c657620005c6620019d5565b634e487b7160e01b600052603260045260246000fd5b634e487b7160e01b600052603160045260246000fd5b60008184825b8581101562001a66576001600160a01b0362001a4f8362001747565b168352602092830192919091019060010162001a33565b509095945050505050565b6000808335601e1984360301811262001a8957600080fd5b83018035915067ffffffffffffffff82111562001aa557600080fd5b602001915036819003821315620018b457600080fd5b80820180821115620005c657620005c6620019d5565b6000845162001ae581846020890162001782565b91909101928352506020820152604001919050565b82815260406020820152600062000cbb6040830184620017a8565b6000825162001b2981846020870162001782565b919091019291505056fe608060405234801561001057600080fd5b506040516101ae3803806101ae83398101604081905261002f916100ba565b6001600160a01b0381166100955760405162461bcd60e51b8152602060048201526024808201527f496e76616c6964206d617374657220636f707920616464726573732070726f766044820152631a59195960e21b606482015260840160405180910390fd5b600080546001600160a01b0319166001600160a01b03929092169190911790556100ea565b6000602082840312156100cc57600080fd5b81516001600160a01b03811681146100e357600080fd5b9392505050565b60b6806100f86000396000f3fe608060405236603f5760405134815233907f88a5966d370b9919b20f3e2c13ff65706f196a4e32cc2c12bf57088f885258749060200160405180910390a2005b600080546001600160a01b0316632cf35bc960e11b823501606257808252602082f35b3682833781823684845af490503d82833e80607b573d82fd5b503d81f3fea26469706673582212203effd9e83d120ca9a70567accb1058e63d967f6f5232927b0db288215ea9be6d64736f6c63430008110033e63c388d4543ca9e94c981423c48d71e347af88fa97254eee172e5d43f973b05a2646970667358221220b1edd9159f7c85cf23e5eee2e664e9b4bdb12754315ce03ed4aa54ef8a31f07b64736f6c63430008110033",
  "linkReferences": {},
  "deployedLinkReferences": {}
}